{
  "contractName": "MecaTaskContract",
  "abi": [
    {
      "inputs": [
        {
          "internalType": "uint256",
          "name": "taskAdditionFee",
          "type": "uint256"
        }
      ],
      "stateMutability": "nonpayable",
      "type": "constructor"
    },
    {
      "stateMutability": "payable",
      "type": "fallback"
    },
    {
      "inputs": [],
      "name": "TASK_ADDITION_FEE",
      "outputs": [
        {
          "internalType": "uint256",
          "name": "",
          "type": "uint256"
        }
      ],
      "stateMutability": "view",
      "type": "function"
    },
    {
      "inputs": [
        {
          "internalType": "bytes32",
          "name": "ipfsSha256",
          "type": "bytes32"
        },
        {
          "internalType": "uint256",
          "name": "fee",
          "type": "uint256"
        },
        {
          "internalType": "uint8",
          "name": "computingType",
          "type": "uint8"
        },
        {
          "internalType": "uint256",
          "name": "size",
          "type": "uint256"
        }
      ],
      "name": "addTask",
      "outputs": [],
      "stateMutability": "payable",
      "type": "function"
    },
    {
      "inputs": [],
      "name": "clear",
      "outputs": [],
      "stateMutability": "nonpayable",
      "type": "function"
    },
    {
      "inputs": [
        {
          "internalType": "bytes32",
          "name": "ipfsSha256",
          "type": "bytes32"
        }
      ],
      "name": "deleteTask",
      "outputs": [],
      "stateMutability": "nonpayable",
      "type": "function"
    },
    {
      "inputs": [
        {
          "internalType": "bytes32",
          "name": "ipfsSha256",
          "type": "bytes32"
        }
      ],
      "name": "getTaskComputingType",
      "outputs": [
        {
          "internalType": "uint8",
          "name": "",
          "type": "uint8"
        }
      ],
      "stateMutability": "view",
      "type": "function"
    },
    {
      "inputs": [
        {
          "internalType": "bytes32",
          "name": "ipfsSha256",
          "type": "bytes32"
        }
      ],
      "name": "getTaskFee",
      "outputs": [
        {
          "internalType": "uint256",
          "name": "",
          "type": "uint256"
        }
      ],
      "stateMutability": "view",
      "type": "function"
    },
    {
      "inputs": [
        {
          "internalType": "bytes32",
          "name": "ipfsSha256",
          "type": "bytes32"
        }
      ],
      "name": "getTaskOwner",
      "outputs": [
        {
          "internalType": "address",
          "name": "",
          "type": "address"
        }
      ],
      "stateMutability": "view",
      "type": "function"
    },
    {
      "inputs": [
        {
          "internalType": "bytes32",
          "name": "ipfsSha256",
          "type": "bytes32"
        }
      ],
      "name": "getTaskSize",
      "outputs": [
        {
          "internalType": "uint256",
          "name": "",
          "type": "uint256"
        }
      ],
      "stateMutability": "view",
      "type": "function"
    },
    {
      "inputs": [],
      "name": "owner",
      "outputs": [
        {
          "internalType": "address payable",
          "name": "",
          "type": "address"
        }
      ],
      "stateMutability": "view",
      "type": "function"
    },
    {
      "inputs": [
        {
          "internalType": "uint256",
          "name": "",
          "type": "uint256"
        }
      ],
      "name": "tasks",
      "outputs": [
        {
          "internalType": "bytes32",
          "name": "ipfsSha256",
          "type": "bytes32"
        },
        {
          "internalType": "address payable",
          "name": "owner",
          "type": "address"
        },
        {
          "internalType": "uint256",
          "name": "fee",
          "type": "uint256"
        },
        {
          "internalType": "uint8",
          "name": "computingType",
          "type": "uint8"
        },
        {
          "internalType": "uint256",
          "name": "size",
          "type": "uint256"
        }
      ],
      "stateMutability": "view",
      "type": "function"
    },
    {
      "inputs": [
        {
          "internalType": "bytes32",
          "name": "",
          "type": "bytes32"
        }
      ],
      "name": "tasks_index",
      "outputs": [
        {
          "internalType": "uint32",
          "name": "",
          "type": "uint32"
        }
      ],
      "stateMutability": "view",
      "type": "function"
    },
    {
      "inputs": [
        {
          "internalType": "bytes32",
          "name": "ipfsSha256",
          "type": "bytes32"
        },
        {
          "internalType": "uint256",
          "name": "newFee",
          "type": "uint256"
        }
      ],
      "name": "updateTaskFee",
      "outputs": [],
      "stateMutability": "nonpayable",
      "type": "function"
    },
    {
      "inputs": [
        {
          "internalType": "bytes32",
          "name": "ipfsSha256",
          "type": "bytes32"
        },
        {
          "internalType": "address",
          "name": "newOwner",
          "type": "address"
        }
      ],
      "name": "updateTaskOwner",
      "outputs": [],
      "stateMutability": "nonpayable",
      "type": "function"
    },
    {
      "inputs": [
        {
          "internalType": "bytes32",
          "name": "ipfsSha256",
          "type": "bytes32"
        },
        {
          "internalType": "uint256",
          "name": "newSize",
          "type": "uint256"
        }
      ],
      "name": "updateTaskSize",
      "outputs": [],
      "stateMutability": "nonpayable",
      "type": "function"
    },
    {
      "stateMutability": "payable",
      "type": "receive"
    },
    {
      "inputs": [],
      "name": "getTasks",
      "outputs": [
        {
          "components": [
            {
              "internalType": "bytes32",
              "name": "ipfsSha256",
              "type": "bytes32"
            },
            {
              "internalType": "address payable",
              "name": "owner",
              "type": "address"
            },
            {
              "internalType": "uint256",
              "name": "fee",
              "type": "uint256"
            },
            {
              "internalType": "uint8",
              "name": "computingType",
              "type": "uint8"
            },
            {
              "internalType": "uint256",
              "name": "size",
              "type": "uint256"
            }
          ],
          "internalType": "struct MecaTaskAbstractContract.Task[]",
          "name": "",
          "type": "tuple[]"
        }
      ],
      "stateMutability": "view",
      "type": "function"
    }
  ],
  "bytecode": "0x60803461006357601f610ae038819003918201601f19168301916001600160401b03831184841017610068578084926020946040528339810103126100635751600080546001600160a01b03191632179055600155604051610a61908161007f8239f35b600080fd5b634e487b7160e01b600052604160045260246000fdfe60806040818152600480361015610024575b505050361561001f57600080fd5b600080fd5b600092833560e01c90816304a87e3814610735575080630c5163a714610708578063269a4482146106e957806333490116146106c557806343e201c0146105765780634723218d1461051c5780634b093f9c1461050257806352efea6e146103ef57806358f64498146103ad5780638b90363b1461038b5780638d9776721461031e5780638da5cb5b146102f6578063d004eade146102c9578063e64f15a21461010a5763f5108acf03610011573461010657602036600319011261010657602092506001600160a01b039083906100fc903561099a565b0151169051908152f35b8280fd5b509190346102c55760203660031901126102c5576001600160a01b0383356101418260206101378461099a565b01511633146108ed565b61014a816109d8565b600380549091600019918281019081116102b25761016790610883565b506101796101748361096e565b610883565b9190916102a057808a918303610257575b5050506101996101748261096e565b50548752600260205285872063ffffffff8019921682825416179055838752858720908154169055815480156102445701906101d482610883565b610232578695946020610206889687968796878e8882809a55826001820155826002820155828482015501555561099a565b01511660015490828215610229575bf11561021f575080f35b51903d90823e3d90fd5b506108fc610215565b634e487b7160e01b8752868852602487fd5b634e487b7160e01b875260318852602487fd5b808291548455600184018960018301541660018060a01b03198254161790556002810154600285015586840160ff888301541660ff19825416179055015491015538888161018a565b634e487b7160e01b8952888a52602489fd5b634e487b7160e01b885260118952602488fd5b5080fd5b5091346102f35760203660031901126102f35750806102ea6020933561099a565b01519051908152f35b80fd5b5050346102c557816003193601126102c557905490516001600160a01b039091168152602090f35b509034610106576020366003190112610106578135600354811015610387576005602085600360a0975220910201805492600180861b036001830154169260028301549160ff600385015416930154938151958652602086015284015260608301526080820152f35b8380fd5b5091346102f35760203660031901126102f3575060806102ea6020933561099a565b83346102f3576103e460026103e96101746103c73661086d565b94906103df6001600160a01b0360206101378461099a565b6109d8565b61096e565b50015580f35b508290346102c557816003193601126102c55781546001600160a01b031633036104d257815b6003548110156104635761042881610883565b505483526002602052838320805463ffffffff19169055600019811461045057600101610415565b634e487b7160e01b835260118252602483fd5b5060039081549083835581610476578380f35b60059282840292848404036104bf5780855260208520928301925b83811061049e5750508380f35b80868692558660018201558660028201558683820155868482015501610491565b634e487b7160e01b855260118252602485fd5b606490602084519162461bcd60e51b8352820152600a6024820152694f776e6572206f6e6c7960b01b6044820152fd5b8382346102c5576103e4906103e96101746103c73661086d565b509034610106573660031901126102c5576024356001600160a01b03818116923591839003610387576101746103e4836103df61056094602061013760019861099a565b500180546001600160a01b031916909117905580f35b50906080366003190112610106578135916044359060ff82168092036106c157600154340361068f576105a76108b8565b90848252602082019433865284830193602435855260608401908152608084019160643583528852600260205263ffffffff9485878a20541661068b57600354600160401b811015610678578060016106039201600355610883565b959095610666575197888655600186019060018060a01b0390511660018060a01b031982541617905551600285015560ff6003850191511660ff198254161790555191015560035416918352600260205282209063ffffffff1982541617905580f35b634e487b7160e01b8a5289855260248afd5b634e487b7160e01b8a526041855260248afd5b8880fd5b606490602084519162461bcd60e51b8352820152600c60248201526b119959481c995c5d5a5c995960a21b6044820152fd5b8480fd5b5091346102f35760203660031901126102f3575060ff60606100fc6020943561099a565b5050346102c557816003193601126102c5576020906001549051908152f35b5034610106576020366003190112610106578160209363ffffffff92358152600285522054169051908152f35b84929150346101065782600319360112610106576003546001600160401b0380821161085a5760059382851b603f01601f191684019182118483101761084757508552808252600384526020938483019390929190837fc2575a0e9e593c00f959f8c92f12db2869c3395a3b0502d05e2516446f71f85b865b848310610823575050505050845193808501918186525180925285850193925b8281106107db5785850386f35b835180518652808301516001600160a01b031686840152878101518887015260608082015160ff16908701526080908101519086015260a090940193928101926001016107ce565b8389600192610835859c999a9c61092b565b815201920192019190979594976107ae565b634e487b7160e01b865260419052602485fd5b634e487b7160e01b855260418452602485fd5b604090600319011261001f576004359060243590565b6003548110156108a25760036000526005602060002091020190600090565b634e487b7160e01b600052603260045260246000fd5b6040519060a082018281106001600160401b038211176108d757604052565b634e487b7160e01b600052604160045260246000fd5b156108f457565b60405162461bcd60e51b815260206004820152600f60248201526e5461736b206f776e6572206f6e6c7960881b6044820152606490fd5b9060046109366108b8565b8354815260018401546001600160a01b0316602082015260028401546040820152600384015460ff1660608201529201546080830152565b63ffffffff908116600019019190821161098457565b634e487b7160e01b600052601160045260246000fd5b6109cf6101746103e46109d593600060806109b36108b8565b82815282602082015282604082015282606082015201526109d8565b5061092b565b90565b600052600260205263ffffffff6040600020541680156109f55790565b60405162461bcd60e51b815260206004820152600e60248201526d15185cdac81b9bdd08199bdd5b9960921b6044820152606490fdfea26469706673582212206e92684cd9bc9d38d7764c2bff3ab30b38150196d99c757a49b7adf8fbb807ee64736f6c63430008110033",
  "immutableReferences": {},
  "source": "// SPDX-License-Identifier: MIT \r\n/*\r\n\r\nName: MecaTaskContract\r\nDescription: An on-chain Task contract for MECA ecosystem\r\nAuthor: Ciocirlan Stefan-Dan (sdcioc)\r\nDate: Feb 2024\r\n\r\nMIT License\r\n\r\n*/\r\n\r\npragma solidity ^0.8.17;\r\n\r\nimport \"./TaskAbstract.sol\";\r\n\r\ncontract MecaTaskContract is MecaTaskAbstractContract\r\n{\r\n    // We have a list with all the tasks and a mapping to check if a task exists\r\n    // and what is the position in the list of a task (if it exists is index + 1, if not is 0)\r\n    mapping(bytes32 => uint32) public tasks_index;\r\n    Task[] public tasks;\r\n\r\n    constructor(uint256 taskAdditionFee)\r\n        MecaTaskAbstractContract(taskAdditionFee)\r\n    {\r\n    }\r\n\r\n    // External functions\r\n\r\n    // External functions that are view\r\n\r\n    function getTasks() external view override returns (Task[] memory)\r\n    {\r\n        return tasks;\r\n    }\r\n\r\n    // External functions that are pure\r\n\r\n    // Public functions\r\n\r\n    // Internal functions\r\n    function _clear() internal override\r\n    {\r\n        // TODO: maybe go through task as pops and delete them\r\n        for (uint256 i = 0; i < tasks.length; i++) {\r\n            tasks_index[tasks[i].ipfsSha256] = 0;\r\n        }\r\n        delete tasks;\r\n    }\r\n\r\n    function _addTask(\r\n        Task memory task\r\n    ) internal override {\r\n        if (tasks_index[task.ipfsSha256] != 0) {\r\n            revert();\r\n        }\r\n        tasks.push(task);\r\n        tasks_index[task.ipfsSha256] = uint32(tasks.length);\r\n    }\r\n\r\n    function _updateTaskFee(\r\n        bytes32 ipfsSha256,\r\n        uint256 fee\r\n    ) internal override {\r\n        tasks[_getTaskIndex(ipfsSha256) - 1].fee = fee;\r\n    }\r\n\r\n    function _updateTaskOwner(\r\n        bytes32 ipfsSha256,\r\n        address newOwner\r\n    ) internal override {\r\n        tasks[_getTaskIndex(ipfsSha256) - 1].owner = payable(newOwner);\r\n    }\r\n\r\n    function _updateTaskSize(\r\n        bytes32 ipfsSha256,\r\n        uint256 size\r\n    ) internal override {\r\n        tasks[_getTaskIndex(ipfsSha256) - 1].size = size;\r\n    }\r\n\r\n    function _deleteTask(\r\n        bytes32 ipfsSha256\r\n    ) internal override {\r\n        uint32 index = _getTaskIndex(ipfsSha256);\r\n        tasks[index - 1] = tasks[tasks.length - 1];\r\n        tasks_index[tasks[index - 1].ipfsSha256] = index;\r\n        tasks_index[ipfsSha256] = 0;\r\n        tasks.pop();\r\n    }\r\n\r\n    function _getTask(\r\n        bytes32 ipfsSha256\r\n    )\r\n        internal\r\n        view\r\n        override\r\n        returns (Task memory)\r\n    {\r\n        return tasks[_getTaskIndex(ipfsSha256) - 1];\r\n    }\r\n\r\n    // Private functions\r\n    /**\r\n    * @notice get the index of the task given the ipfs hash\r\n    * @param ipfsSha256 The IPFS hash of the task\r\n    * @return uint32 The index of the task\r\n    */\r\n    function _getTaskIndex(\r\n        bytes32 ipfsSha256\r\n    )\r\n        private\r\n        view\r\n        returns (uint32)\r\n    {\r\n        uint32 index = tasks_index[ipfsSha256];\r\n        require(index != 0, \"Task not found\");\r\n        return index;\r\n    }\r\n\r\n}",
  "sourcePath": "C:\\Users\\jxlim\\repos\\meca_contracts\\src\\contracts\\TaskContract.sol",
  "compiler": {
    "name": "solc",
    "version": "0.8.17+commit.8df45f5f.Emscripten.clang"
  },
  "schemaVersion": "3.4.12",
  "updatedAt": "2024-02-26T02:39:08.461Z",
  "devdoc": {
    "kind": "dev",
    "methods": {
      "addTask(bytes32,uint256,uint8,uint256)": {
        "details": "This function is used to add a task to the contract The function is payable and the fee is sent to the contract and kept as a stake and it returns to the task owner when the task is deleted",
        "params": {
          "computingType": "The type of computing (0: cpu / 1: gpu)",
          "fee": "The fee of the task",
          "ipfsSha256": "The IPFS hash of the task",
          "size": "The i/o size of the task (in bytes)"
        }
      },
      "clear()": {
        "details": "This function is used to clear the contract"
      },
      "deleteTask(bytes32)": {
        "details": "Return the task fee to the owner",
        "params": {
          "ipfsSha256": "The IPFS hash of the task"
        }
      },
      "getTaskComputingType(bytes32)": {
        "params": {
          "ipfsSha256": "The IPFS hash of the task"
        },
        "returns": {
          "_0": "uint8 The computing type of the task"
        }
      },
      "getTaskFee(bytes32)": {
        "params": {
          "ipfsSha256": "The IPFS hash of the task"
        },
        "returns": {
          "_0": "uint256 The fee of the task"
        }
      },
      "getTaskOwner(bytes32)": {
        "params": {
          "ipfsSha256": "The IPFS hash of the task"
        },
        "returns": {
          "_0": "address The owner of the task"
        }
      },
      "getTaskSize(bytes32)": {
        "params": {
          "ipfsSha256": "The IPFS hash of the task"
        },
        "returns": {
          "_0": "uint256 The i/o size of the task"
        }
      },
      "getTasks()": {
        "returns": {
          "_0": "task[] The tasks"
        }
      },
      "updateTaskFee(bytes32,uint256)": {
        "params": {
          "ipfsSha256": "The IPFS hash of the task",
          "newFee": "The new fee of the task"
        }
      },
      "updateTaskOwner(bytes32,address)": {
        "params": {
          "ipfsSha256": "The IPFS hash of the task",
          "newOwner": "The new owner of the task"
        }
      },
      "updateTaskSize(bytes32,uint256)": {
        "params": {
          "ipfsSha256": "The IPFS hash of the task",
          "newSize": "The new i/o size of the task"
        }
      }
    },
    "version": 1
  },
  "userdoc": {
    "kind": "user",
    "methods": {
      "addTask(bytes32,uint256,uint8,uint256)": {
        "notice": "The addTask function"
      },
      "clear()": {
        "notice": "The clear function"
      },
      "deleteTask(bytes32)": {
        "notice": "Deletes a task"
      },
      "getTaskComputingType(bytes32)": {
        "notice": "Get the task computing type for the task"
      },
      "getTaskFee(bytes32)": {
        "notice": "Get the task fee for the task developer"
      },
      "getTaskOwner(bytes32)": {
        "notice": "Get the task owner for the task"
      },
      "getTaskSize(bytes32)": {
        "notice": "Get the task i/o size for the task"
      },
      "getTasks()": {
        "notice": "Get all the tasks"
      },
      "owner()": {
        "notice": "The owner of the contract"
      },
      "updateTaskFee(bytes32,uint256)": {
        "notice": "Updates the task fee"
      },
      "updateTaskOwner(bytes32,address)": {
        "notice": "Updates the task owner"
      },
      "updateTaskSize(bytes32,uint256)": {
        "notice": "Updates the task i/o size"
      }
    },
    "version": 1
  }
}