{
  "contractName": "MecaTowerContract",
  "abi": [
    {
      "inputs": [
        {
          "internalType": "uint256",
          "name": "towerInitialStake",
          "type": "uint256"
        },
        {
          "internalType": "uint256",
          "name": "hostRequestFee",
          "type": "uint256"
        },
        {
          "internalType": "uint256",
          "name": "failedTaskPenalty",
          "type": "uint256"
        }
      ],
      "stateMutability": "nonpayable",
      "type": "constructor"
    },
    {
      "stateMutability": "payable",
      "type": "fallback"
    },
    {
      "inputs": [],
      "name": "FAILED_TASK_PENALTY",
      "outputs": [
        {
          "internalType": "uint256",
          "name": "",
          "type": "uint256"
        }
      ],
      "stateMutability": "view",
      "type": "function"
    },
    {
      "inputs": [],
      "name": "HOST_REQUEST_FEE",
      "outputs": [
        {
          "internalType": "uint256",
          "name": "",
          "type": "uint256"
        }
      ],
      "stateMutability": "view",
      "type": "function"
    },
    {
      "inputs": [],
      "name": "TOWER_INITIAL_STAKE",
      "outputs": [
        {
          "internalType": "uint256",
          "name": "",
          "type": "uint256"
        }
      ],
      "stateMutability": "view",
      "type": "function"
    },
    {
      "inputs": [
        {
          "internalType": "address",
          "name": "hostAddress",
          "type": "address"
        }
      ],
      "name": "acceptHost",
      "outputs": [],
      "stateMutability": "nonpayable",
      "type": "function"
    },
    {
      "inputs": [],
      "name": "addStake",
      "outputs": [],
      "stateMutability": "payable",
      "type": "function"
    },
    {
      "inputs": [],
      "name": "clear",
      "outputs": [],
      "stateMutability": "nonpayable",
      "type": "function"
    },
    {
      "inputs": [
        {
          "internalType": "address",
          "name": "hostAddress",
          "type": "address"
        }
      ],
      "name": "deleteHost",
      "outputs": [],
      "stateMutability": "nonpayable",
      "type": "function"
    },
    {
      "inputs": [],
      "name": "deleteTower",
      "outputs": [],
      "stateMutability": "nonpayable",
      "type": "function"
    },
    {
      "inputs": [
        {
          "internalType": "address",
          "name": "towerAddress",
          "type": "address"
        },
        {
          "internalType": "uint256",
          "name": "size",
          "type": "uint256"
        },
        {
          "internalType": "uint256",
          "name": "blockTimeoutLimit",
          "type": "uint256"
        }
      ],
      "name": "getTowerFee",
      "outputs": [
        {
          "internalType": "uint256",
          "name": "",
          "type": "uint256"
        }
      ],
      "stateMutability": "view",
      "type": "function"
    },
    {
      "inputs": [
        {
          "internalType": "address",
          "name": "towerAddress",
          "type": "address"
        }
      ],
      "name": "getTowerHosts",
      "outputs": [
        {
          "internalType": "address[]",
          "name": "",
          "type": "address[]"
        }
      ],
      "stateMutability": "view",
      "type": "function"
    },
    {
      "inputs": [
        {
          "internalType": "address",
          "name": "towerAddress",
          "type": "address"
        }
      ],
      "name": "getTowerPendingHosts",
      "outputs": [
        {
          "internalType": "address[]",
          "name": "",
          "type": "address[]"
        }
      ],
      "stateMutability": "view",
      "type": "function"
    },
    {
      "inputs": [
        {
          "internalType": "address",
          "name": "towerAddress",
          "type": "address"
        }
      ],
      "name": "getTowerPublicConnection",
      "outputs": [
        {
          "internalType": "string",
          "name": "",
          "type": "string"
        }
      ],
      "stateMutability": "view",
      "type": "function"
    },
    {
      "inputs": [
        {
          "internalType": "address",
          "name": "towerAddress",
          "type": "address"
        }
      ],
      "name": "getTowerSizeLimit",
      "outputs": [
        {
          "internalType": "uint256",
          "name": "",
          "type": "uint256"
        }
      ],
      "stateMutability": "view",
      "type": "function"
    },
    {
      "inputs": [
        {
          "internalType": "address",
          "name": "towerAddress",
          "type": "address"
        }
      ],
      "name": "getTowerStake",
      "outputs": [
        {
          "internalType": "uint256",
          "name": "",
          "type": "uint256"
        }
      ],
      "stateMutability": "view",
      "type": "function"
    },
    {
      "inputs": [],
      "name": "getTowers",
      "outputs": [
        {
          "components": [
            {
              "internalType": "address payable",
              "name": "owner",
              "type": "address"
            },
            {
              "internalType": "uint256",
              "name": "sizeLimit",
              "type": "uint256"
            },
            {
              "internalType": "string",
              "name": "publicConnection",
              "type": "string"
            },
            {
              "internalType": "uint8",
              "name": "feeType",
              "type": "uint8"
            },
            {
              "internalType": "uint256",
              "name": "fee",
              "type": "uint256"
            },
            {
              "internalType": "uint256",
              "name": "stake",
              "type": "uint256"
            }
          ],
          "internalType": "struct MecaTowerAbstractContract.Tower[]",
          "name": "",
          "type": "tuple[]"
        }
      ],
      "stateMutability": "view",
      "type": "function"
    },
    {
      "inputs": [],
      "name": "owner",
      "outputs": [
        {
          "internalType": "address payable",
          "name": "",
          "type": "address"
        }
      ],
      "stateMutability": "view",
      "type": "function"
    },
    {
      "inputs": [
        {
          "internalType": "address",
          "name": "towerAddress",
          "type": "address"
        },
        {
          "internalType": "address",
          "name": "userAddress",
          "type": "address"
        }
      ],
      "name": "penaltyForFailedTask",
      "outputs": [],
      "stateMutability": "nonpayable",
      "type": "function"
    },
    {
      "inputs": [
        {
          "internalType": "uint256",
          "name": "sizeLimit",
          "type": "uint256"
        },
        {
          "internalType": "string",
          "name": "publicConnection",
          "type": "string"
        },
        {
          "internalType": "uint256",
          "name": "fee",
          "type": "uint256"
        },
        {
          "internalType": "uint8",
          "name": "feeType",
          "type": "uint8"
        }
      ],
      "name": "registerAsTower",
      "outputs": [],
      "stateMutability": "payable",
      "type": "function"
    },
    {
      "inputs": [
        {
          "internalType": "address",
          "name": "towerAddress",
          "type": "address"
        }
      ],
      "name": "registerMeForTower",
      "outputs": [],
      "stateMutability": "payable",
      "type": "function"
    },
    {
      "inputs": [
        {
          "internalType": "address",
          "name": "hostAddress",
          "type": "address"
        }
      ],
      "name": "rejectHost",
      "outputs": [],
      "stateMutability": "nonpayable",
      "type": "function"
    },
    {
      "inputs": [],
      "name": "schedulerContractAddress",
      "outputs": [
        {
          "internalType": "address",
          "name": "",
          "type": "address"
        }
      ],
      "stateMutability": "view",
      "type": "function"
    },
    {
      "inputs": [
        {
          "internalType": "address",
          "name": "newSchedulerContractAddress",
          "type": "address"
        }
      ],
      "name": "setSchedulerContractAddress",
      "outputs": [],
      "stateMutability": "nonpayable",
      "type": "function"
    },
    {
      "inputs": [
        {
          "internalType": "address",
          "name": "",
          "type": "address"
        },
        {
          "internalType": "uint256",
          "name": "",
          "type": "uint256"
        }
      ],
      "name": "towerActiveHosts",
      "outputs": [
        {
          "internalType": "address",
          "name": "",
          "type": "address"
        }
      ],
      "stateMutability": "view",
      "type": "function"
    },
    {
      "inputs": [
        {
          "internalType": "address",
          "name": "",
          "type": "address"
        },
        {
          "internalType": "uint256",
          "name": "",
          "type": "uint256"
        }
      ],
      "name": "towerPendingHosts",
      "outputs": [
        {
          "internalType": "address",
          "name": "",
          "type": "address"
        }
      ],
      "stateMutability": "view",
      "type": "function"
    },
    {
      "inputs": [
        {
          "internalType": "uint256",
          "name": "",
          "type": "uint256"
        }
      ],
      "name": "towers",
      "outputs": [
        {
          "internalType": "address payable",
          "name": "owner",
          "type": "address"
        },
        {
          "internalType": "uint256",
          "name": "sizeLimit",
          "type": "uint256"
        },
        {
          "internalType": "string",
          "name": "publicConnection",
          "type": "string"
        },
        {
          "internalType": "uint8",
          "name": "feeType",
          "type": "uint8"
        },
        {
          "internalType": "uint256",
          "name": "fee",
          "type": "uint256"
        },
        {
          "internalType": "uint256",
          "name": "stake",
          "type": "uint256"
        }
      ],
      "stateMutability": "view",
      "type": "function"
    },
    {
      "inputs": [
        {
          "internalType": "address",
          "name": "",
          "type": "address"
        }
      ],
      "name": "towersIndex",
      "outputs": [
        {
          "internalType": "uint32",
          "name": "",
          "type": "uint32"
        }
      ],
      "stateMutability": "view",
      "type": "function"
    },
    {
      "inputs": [
        {
          "internalType": "uint8",
          "name": "newFeeType",
          "type": "uint8"
        },
        {
          "internalType": "uint256",
          "name": "newFee",
          "type": "uint256"
        }
      ],
      "name": "updateFee",
      "outputs": [],
      "stateMutability": "nonpayable",
      "type": "function"
    },
    {
      "inputs": [
        {
          "internalType": "string",
          "name": "newPublicConnection",
          "type": "string"
        }
      ],
      "name": "updatePublicConnection",
      "outputs": [],
      "stateMutability": "nonpayable",
      "type": "function"
    },
    {
      "inputs": [
        {
          "internalType": "uint256",
          "name": "newSizeLimit",
          "type": "uint256"
        }
      ],
      "name": "updateSizeLimit",
      "outputs": [],
      "stateMutability": "nonpayable",
      "type": "function"
    },
    {
      "inputs": [
        {
          "internalType": "uint256",
          "name": "amount",
          "type": "uint256"
        }
      ],
      "name": "withdrawStake",
      "outputs": [],
      "stateMutability": "nonpayable",
      "type": "function"
    },
    {
      "stateMutability": "payable",
      "type": "receive"
    }
  ],
  "bytecode": "0x60e0346100ca57601f611cdf38819003918201601f19168301916001600160401b038311848410176100cf578084926060946040528339810103126100ca57805190604060208201519101519060018060a01b0319923284600054161760005560805260a05260c05260015416600155604051611bf990816100e682396080518181816101e501528181610d530152610ef7015260a05181818161083d015281816108e401528181610c3a01528181610d180152610e2c015260c0518181816107f10152610a7d0152f35b600080fd5b634e487b7160e01b600052604160045260246000fdfe6080604052600436101561001e575b361561001957600080fd5b600080fd5b60003560e01c806314ac563f14610fe85780631b149c7314610f9f5780631bb6582114610f2457806325d5971f14610e9e578063264632ce14610dee57806347fa822f14610d9557806348be1f2814610d765780634ee850cf14610d3b57806350a6ab5614610d0057806352efea6e14610c0e57806354efc17414610af257806357e1282e14610a385780635a627dbc14610a0a57806366b89b20146109e85780637052a5e51461098f578063818a3a8f146109655780638d39e55d146108ce5780638da5cb5b146108a5578063920372d914610883578063940f736f14610814578063a91a2182146107d9578063aaeed5291461079d578063b1f2d6ac1461075d578063c435bdec146106d2578063db5daade1461069f578063db88497c14610676578063e9393c861461062d578063f6291f251461053b578063f7d04456146101a55763fcdc8b8e0361000e57346100195760203660031901126100195761019761019261018d33611b60565b6114fc565b6111e0565b506001600435910155600080f35b6080366003190112610019576024356001600160401b038111610019576101d09036906004016110eb565b906064359060ff82168092036100195761020c7f000000000000000000000000000000000000000000000000000000000000000034101561136f565b6040519261021984611239565b33845260043560208501526001600160401b038111610479576040519161024a601f8301601f19166020018461126f565b8183523682820111610019578160009260209283860137830101526040830152606082015260443560808201523460a082015260018060a01b03815116600052600260205263ffffffff6040600020541661001957600354600160401b811015610479578060016102be92016003556111e0565b91909161052557805182546001600160a01b0319166001600160a01b039190911617825560208101516001830155604081015180519092906001600160401b0381116104795761031e8161031560028501546111ff565b6002850161145f565b6020601f82116001146104b757819293946000926104ac575b50508160011b916000199060031b1c19161760028201555b6003810160ff60608401511660ff1982541617905560808201516004820155600560a083015191015563ffffffff6003541660018060a01b03825116600052600260205260406000209063ffffffff198254161790556040516103b181611254565b600080825282516001600160a01b031681526005602052604090208151916001600160401b038311610479576020906103ea84846114c8565b0190600052602060002060005b83811061048f576040518561040b82611254565b600080835290516001600160a01b03168152600460205260409020815190916001600160401b0382116104795760209061044583856114c8565b019160005260206000209160005b82811061045c57005b81516001600160a01b031681850155602090910190600101610453565b634e487b7160e01b600052604160045260246000fd5b82516001600160a01b0316818301556020909201916001016103f7565b015190508480610337565b6002830160005260206000209060005b601f198416811061050d5750600193949583601f198116106104f4575b505050811b01600282015561034f565b015160001960f88460031b161c191690558480806104e4565b9091602060018192858a0151815501930191016104c7565b634e487b7160e01b600052600060045260246000fd5b34610019576020366003190112610019576004356003548110156100195760036000526006027fc2575a0e9e593c00f959f8c92f12db2869c3395a3b0502d05e2516446f71f85b810180547fc2575a0e9e593c00f959f8c92f12db2869c3395a3b0502d05e2516446f71f85c830154926001600160a01b039190911691906105e4907fc2575a0e9e593c00f959f8c92f12db2869c3395a3b0502d05e2516446f71f85d01611290565b60ff6003830154169161061960056004830154920154926040519687968752602087015260c0604087015260c08601906111a0565b926060850152608084015260a08301520390f35b3461001957602036600319011261001957610646611118565b6000546001600160a01b0391906106609083163314611336565b1660018060a01b03196001541617600155600080f35b34610019576000366003190112610019576001546040516001600160a01b039091168152602090f35b346100195760603660031901126100195760206106ca6106bd611118565b60443590602435906113d4565b604051908152f35b3461001957602080600319360112610019576001600160a01b03806106f5611118565b1660005260058252604060002091604051809282855492838152019460005282600020926000915b8383106107445761074086610734818a038261126f565b6040519182918261115c565b0390f35b845481168752958101956001948501949092019161071d565b34610019576020366003190112610019576001600160a01b0361077e611118565b166000526002602052602063ffffffff60406000205416604051908152f35b346100195760203660031901126100195761074060406107c36107be611118565b611b24565b01516040519182916020835260208301906111a0565b346100195760003660031901126100195760206040517f00000000000000000000000000000000000000000000000000000000000000008152f35b3461001957602036600319011261001957610836610830611118565b336118f9565b60008080807f000000000000000000000000000000000000000000000000000000000000000081811561087a575b3390f11561086e57005b6040513d6000823e3d90fd5b506108fc610864565b346100195760203660031901126100195761083661089f611118565b336119e8565b34610019576000366003190112610019576000546040516001600160a01b039091168152602090f35b6020366003190112610019576108e2611118565b7f000000000000000000000000000000000000000000000000000000000000000034036109295760018060a01b0316600052600460205261092733604060002061185c565b005b60405162461bcd60e51b8152602060048201526014602482015273135a5b9a5b5d5b48199959481c995c5d5a5c995960621b6044820152606490fd5b3461001957602036600319011261001957602060a06109856107be611118565b0151604051908152f35b346100195760403660031901126100195760043560ff81168091036100195760036109d96101926109bf33611b60565b6109cb610192826114fc565b5060046024359101556114fc565b5001805460ff19169091179055005b3461001957602036600319011261001957610927610a04611118565b33611a83565b6000366003190112610019576005610a2761019261018d33611b60565b5001610a343482546113b4565b9055005b3461001957604036600319011261001957610a51611118565b6024356001600160a01b038181169182900361001957600154163303610abc5760008080938193610aa37f00000000000000000000000000000000000000000000000000000000000000008093611512565b828215610ab3575bf11561086e57005b506108fc610aab565b60405162461bcd60e51b815260206004820152600e60248201526d5363686564756c6572206f6e6c7960901b6044820152606490fd5b34610019576000366003190112610019576003546001600160401b0381116104795760405190602090610b2a828260051b018461126f565b80835281830190816003600052836000206000915b838310610beb5750505050604051918083019381845251809452604083019360408160051b85010192916000955b828710610b7a5785850386f35b909192938280600192603f19898203018552875190848060a01b0382511681528282015183820152610bba604083015160c08060408501528301906111a0565b91606060ff8183015116908301526080808201519083015260a0809101519101529601920196019592919092610b6d565b600686600192610bfd859a999a611534565b815201920192019190959495610b3f565b34610019576000366003190112610019576000546001600160a01b0390610c389082163314611336565b7f00000000000000000000000000000000000000000000000000000000000000005b6003548015610927576000198101908111610cea57610cb16005610c7d836111e0565b500154610cab84610ca687610c9e81610c95896111e0565b505416976111e0565b50541661166e565b6113c1565b906113b4565b8015918215610cc3575b505050610c5a565b6000928392839283928390610ce1575bf11561086e57828080610cbb565b506108fc610cd3565b634e487b7160e01b600052601160045260246000fd5b346100195760003660031901126100195760206040517f00000000000000000000000000000000000000000000000000000000000000008152f35b346100195760003660031901126100195760206040517f00000000000000000000000000000000000000000000000000000000000000008152f35b34610019576020366003190112610019576020806109856107be611118565b3461001957604036600319011261001957610dae611118565b6024359060018060a01b0380911660005260056020526040600020805483101561001957602092610dde9161112e565b9190546040519260031b1c168152f35b3461001957600036600319011261001957610e0833611b24565b6020810151610e625760008080610e5160a082950151610cab610e2a3361166e565b7f0000000000000000000000000000000000000000000000000000000000000000906113c1565b81811561087a573390f11561086e57005b60405162461bcd60e51b8152602060048201526014602482015273053697a65206c696d6974206d75737420626520360641b6044820152606490fd5b346100195760203660031901126100195760008080806004358060a0610ec333611b24565b0151101580610ee0575b610ed69061136f565b610e518133611512565b50610ed660a0610eef33611b24565b0151610f1b837f00000000000000000000000000000000000000000000000000000000000000006113b4565b11159050610ecd565b3461001957602080600319360112610019576001600160a01b0380610f47611118565b1660005260048252604060002091604051809282855492838152019460005282600020926000915b838310610f865761074086610734818a038261126f565b8454811687529581019560019485019490920191610f6f565b3461001957604036600319011261001957610fb8611118565b6024359060018060a01b0380911660005260046020526040600020805483101561001957602092610dde9161112e565b3461001957602080600319360112610019576001600160401b036004358181116100195761101a9036906004016110eb565b90600261102c61019261018d33611b60565b5001928211610479576110498261104385546111ff565b8561145f565b600093601f831160011461108757509281929360009261107c575b5050600019600383901b1c191660019190911b179055005b013590508380611064565b90601f198316948460005282600020926000905b8782106110d35750508360019596106110b9575b505050811b019055005b0135600019600384901b60f8161c191690558380806110af565b8060018496829495870135815501950192019061109b565b9181601f84011215610019578235916001600160401b038311610019576020838186019501011161001957565b600435906001600160a01b038216820361001957565b80548210156111465760005260206000200190600090565b634e487b7160e01b600052603260045260246000fd5b6020908160408183019282815285518094520193019160005b828110611183575050505090565b83516001600160a01b031685529381019392810192600101611175565b919082519283825260005b8481106111cc575050826000602080949584010152601f8019910116010190565b6020818301810151848301820152016111ab565b6003548110156111465760036000526006602060002091020190600090565b90600182811c9216801561122f575b602083101461121957565b634e487b7160e01b600052602260045260246000fd5b91607f169161120e565b60c081019081106001600160401b0382111761047957604052565b602081019081106001600160401b0382111761047957604052565b90601f801991011681019081106001600160401b0382111761047957604052565b90604051918260008254926112a4846111ff565b90818452600194858116908160001461131357506001146112d0575b50506112ce9250038361126f565b565b9093915060005260209081600020936000915b8183106112fb5750506112ce935082010138806112c0565b855488840185015294850194879450918301916112e3565b9150506112ce94506020925060ff191682840152151560051b82010138806112c0565b1561133d57565b60405162461bcd60e51b815260206004820152600a6024820152694f776e6572206f6e6c7960b01b6044820152606490fd5b1561137657565b60405162461bcd60e51b8152602060048201526016602482015275135a5b9a5b5d5b481cdd185ad9481c995c5d5a5c995960521b6044820152606490fd5b91908201809211610cea57565b81810292918115918404141715610cea57565b6113dd90611b24565b90608060ff6060840151169201519282156000146113fb5750505090565b60018394929314600014611417575061141492506113c1565b90565b91926002810361142c575061141492506113c1565b6003036114405761141492610ca6916113c1565b505050600090565b818110611453575050565b60008155600101611448565b9190601f811161146e57505050565b6112ce926000526020600020906020601f840160051c8301931061149a575b601f0160051c0190611448565b909150819061148d565b805460008255806114b3575050565b6112ce91600052602060002090810190611448565b90600160401b8111610479578154908083558181106114e657505050565b6112ce9260005260206000209182019101611448565b63ffffffff9081166000190191908211610cea57565b61152361019261018d600593611b60565b50018054918203918211610cea5755565b9060405161154181611239565b82546001600160a01b031681526001830154602082015291829060a09060059061156d60028201611290565b604085015260ff6003820154166060850152600481015460808501520154910152565b9080821461166a576115a281546111ff565b906001600160401b0382116104795781906115c7826115c186546111ff565b8661145f565b600090601f83116001146115fe576000926115f3575b50508160011b916000199060031b1c1916179055565b0154905038806115dd565b81526020808220858352818320935090601f1985169083905b828210611651575050908460019594939210611638575b505050811b019055565b015460001960f88460031b161c1916905538808061162e565b8495819295850154815560018091019601940190611617565b5050565b61167790611b60565b61168c611686610192836114fc565b50611534565b9060039081549160001992838101908111610cea576116aa906111e0565b506116b7610192846114fc565b919091610525578082036117f7575b50506116d4610192836114fc565b509060018060a01b0380925416936000948552602093600285526040862063ffffffff801992168282541617905583875116865260408620908154169055815480156117e3570190611725826111e0565b6117cf57926004926040959287600587826114149b9955826001820155826002820161175181546111ff565b80611793575b50508482015582888201550155558087511684528282528484205496818151168552600583526117888686206114a4565b5116835252206114a4565b601f81116001146117a95750555b823880611757565b8183528983206117c391601f01861c810190600101611448565b818981209155556117a1565b634e487b7160e01b86526004869052602486fd5b634e487b7160e01b86526031600452602486fd5b805482546001600160a01b0319166001600160a01b03919091161782556001808201549083015560059081906118336002808301908601611590565b84840160ff868301541660ff1982541617905560048101546004850155015491015538806116c6565b80549190600160401b831015610479578261187f9160016112ce9501815561112e565b9080546001600160a01b0360039390931b83811b80199092169390941690931b909216179055565b6000198114610cea5760010190565b805480156118e35760001901906118cd828261112e565b81549060018060a01b039060031b1b1916905555565b634e487b7160e01b600052603160045260246000fd5b919060005b60018060a01b038085168060005260049060209082825260409384600020548610156119dd57611931868660002061112e565b9054600391821b1c82168883161461195757505050505050611952906118a7565b6118fe565b91939598509193956119749084600052600586528760002061185c565b600083815285855286902080546000198101919082116119c857926112ce9899926119a561187f936119bc9661112e565b9054911b1c1691846000528686528760002061112e565b600052526000206118b6565b601187634e487b7160e01b6000525260246000fd5b505050505050509050565b919060005b60018060a01b038085168060005260049060209082825260409384600020548610156119dd57611a20868660002061112e565b9054600391821b1c821688831614611a4657505050505050611a41906118a7565b6119ed565b919395985091939550826000528484528560002086600020549060001982019182116119c857926112ce9899926119a561187f936119bc9661112e565b9060005b60018060a01b0380841680600052600560208181526040928360002054861015611b1a57611ab8868560002061112e565b905460039691871b1c811688821614611adf57505050505050611ada906118a7565b611a87565b9295919497508093965060005284845285600020918660002054906000198201918211610cea576112ce986119a561187f936119bc9661112e565b5050505050505050565b61168661019261018d61141493600060a0604051611b4181611239565b8281528260208201526060604082015282606082015282608082015201525b6001600160a01b031660009081526002602052604090205463ffffffff168015611b875790565b60405162461bcd60e51b8152602060048201526014602482015273151bddd95c88191bd95cc81b9bdd08195e1a5cdd60621b6044820152606490fdfea26469706673582212201d3d7329d9b6a6f119cc11f55238c88fe0f4446986e1d3482b60cdc594c5dd8164736f6c63430008110033",
  "immutableReferences": {
    "2480": [
      {
        "length": 32,
        "start": 485
      },
      {
        "length": 32,
        "start": 3411
      },
      {
        "length": 32,
        "start": 3831
      }
    ],
    "2483": [
      {
        "length": 32,
        "start": 2109
      },
      {
        "length": 32,
        "start": 2276
      },
      {
        "length": 32,
        "start": 3130
      },
      {
        "length": 32,
        "start": 3352
      },
      {
        "length": 32,
        "start": 3628
      }
    ],
    "2486": [
      {
        "length": 32,
        "start": 2033
      },
      {
        "length": 32,
        "start": 2685
      }
    ]
  },
  "source": "// SPDX-License-Identifier: MIT \r\n/*\r\n\r\nName: MecaTowerContract\r\nDescription: An on-chain Tower contract for MECA ecosystem\r\nAuthor: Ciocirlan Stefan-Dan (sdcioc)\r\nDate: Feb 2024\r\n\r\nMIT License\r\n\r\n*/\r\n\r\npragma solidity ^0.8.17;\r\n\r\nimport \"./TowerAbstract.sol\";\r\n\r\ncontract MecaTowerContract is MecaTowerAbstractContract\r\n{\r\n    // We have a list with all the tower and a mapping to check if a tower exists\r\n    // and what is the position in the list of a tower (if it exists is index + 1, if not is 0)\r\n    mapping(address => uint32) public towersIndex;\r\n    Tower[] public towers;\r\n\r\n    mapping(address => address[]) public towerPendingHosts;\r\n    mapping(address => address[]) public towerActiveHosts;\r\n    // custom modifiers\r\n\r\n    // constructor\r\n\r\n    constructor(\r\n        uint256 towerInitialStake,\r\n        uint256 hostRequestFee,\r\n        uint256 failedTaskPenalty\r\n    )\r\n        MecaTowerAbstractContract(\r\n            towerInitialStake,\r\n            hostRequestFee,\r\n            failedTaskPenalty\r\n        )\r\n    {\r\n    }\r\n\r\n\r\n    // External functions\r\n\r\n    // External functions that are view\r\n    \r\n    // External functions that are pure\r\n\r\n    // Public functions\r\n\r\n    // Internal functions\r\n    function _clear() internal override\r\n    {\r\n        // TODO: maybe go through tower as pops and delete them\r\n        while (towers.length > 0) {\r\n            uint256 stake = towers[towers.length - 1].stake;\r\n            address payable towerOwner = towers[towers.length - 1].owner;\r\n            uint256 pending_hosts = _deleteTower(towers[towers.length - 1].owner);\r\n            stake += pending_hosts * HOST_REQUEST_FEE;\r\n            if (stake > 0) {\r\n                towerOwner.transfer(stake);\r\n            }\r\n        }\r\n    }\r\n\r\n    function _registerAsTower(\r\n        Tower memory tower\r\n    ) internal override {\r\n        if (towersIndex[tower.owner] != 0) {\r\n            revert();\r\n        }\r\n        towers.push(tower);\r\n        towersIndex[tower.owner] = uint32(towers.length);\r\n        towerActiveHosts[tower.owner] = new address[](0);\r\n        towerPendingHosts[tower.owner] = new address[](0);\r\n    }\r\n\r\n    function _addStake(\r\n        address tower_address,\r\n        uint256 stake\r\n    ) internal override {\r\n        uint32 index = _getTowerIndex(tower_address);\r\n        towers[index - 1].stake += stake;\r\n    }\r\n\r\n    function _removeStake(\r\n        address tower_address,\r\n        uint256 stake\r\n    ) internal override {\r\n        uint32 index = _getTowerIndex(tower_address);\r\n        towers[index - 1].stake -= stake;\r\n    }\r\n\r\n    function _updateSizeLimit(\r\n        address tower_address,\r\n        uint256 newSizeLimit\r\n    ) internal override {\r\n        uint32 index = _getTowerIndex(tower_address);\r\n        towers[index - 1].sizeLimit = newSizeLimit;\r\n    }\r\n\r\n    function _updatePublicConnection(\r\n        address tower_address,\r\n        string calldata newPublicConnection\r\n    ) internal override {\r\n        uint32 index = _getTowerIndex(tower_address);\r\n        towers[index - 1].publicConnection = newPublicConnection;\r\n    }\r\n\r\n    function _updateFee(\r\n        address tower_address,\r\n        uint8 newFeeType,\r\n        uint256 newFee\r\n    ) internal override {\r\n        uint32 index = _getTowerIndex(tower_address);\r\n        towers[index - 1].fee = newFee;\r\n        towers[index - 1].feeType = newFeeType;\r\n    }\r\n\r\n    function _deleteTower(\r\n        address tower_address\r\n    ) internal override returns (uint256) {\r\n        uint32 index = _getTowerIndex(tower_address);\r\n        Tower memory t = towers[index - 1];\r\n        towers[index - 1] = towers[towers.length - 1];\r\n        towersIndex[towers[index  - 1].owner] = index;\r\n        towersIndex[t.owner] = 0;\r\n        towers.pop();\r\n        uint256 pending_hosts = towerPendingHosts[t.owner].length;\r\n        delete towerActiveHosts[t.owner];\r\n        delete towerPendingHosts[t.owner];\r\n        return pending_hosts;\r\n    }\r\n\r\n    function _registerHostForTower(\r\n        address tower_address,\r\n        address host_address\r\n    ) internal override {\r\n        towerPendingHosts[tower_address].push(host_address);\r\n    }\r\n\r\n    function _acceptHost(\r\n        address tower_address,\r\n        address host_address\r\n    ) internal override {\r\n        for (uint256 i = 0; i < towerPendingHosts[tower_address].length; i++) {\r\n            if (towerPendingHosts[tower_address][i] == host_address) {\r\n                towerActiveHosts[tower_address].push(host_address);\r\n                towerPendingHosts[tower_address][i] = towerPendingHosts[tower_address][towerPendingHosts[tower_address].length - 1];\r\n                towerPendingHosts[tower_address].pop();\r\n                return;\r\n            }\r\n        }\r\n    }\r\n\r\n    function _rejectHost(\r\n        address tower_address,\r\n        address host_address\r\n    ) internal override {\r\n        for (uint256 i = 0; i < towerPendingHosts[tower_address].length; i++) {\r\n            if (towerPendingHosts[tower_address][i] == host_address) {\r\n                towerPendingHosts[tower_address][i] = towerPendingHosts[tower_address][towerPendingHosts[tower_address].length - 1];\r\n                towerPendingHosts[tower_address].pop();\r\n                return;\r\n            }\r\n        }\r\n    }\r\n\r\n    function _deleteHost(\r\n        address tower_address,\r\n        address host_address\r\n    ) internal override {\r\n        for (uint256 i = 0; i < towerActiveHosts[tower_address].length; i++) {\r\n            if (towerActiveHosts[tower_address][i] == host_address) {\r\n                towerActiveHosts[tower_address][i] = towerActiveHosts[tower_address][towerActiveHosts[tower_address].length - 1];\r\n                towerActiveHosts[tower_address].pop();\r\n                return;\r\n            }\r\n        }\r\n    }\r\n\r\n    // Internal functions that are view\r\n\r\n    function _getTower(\r\n        address tower_address\r\n    ) internal view override returns (Tower memory)\r\n    {\r\n        uint32 index = _getTowerIndex(tower_address);\r\n        return towers[index - 1];\r\n    }\r\n    \r\n    function _getTowerHosts(\r\n        address tower_address\r\n    ) internal view override returns (address[] memory)\r\n    {\r\n        return towerActiveHosts[tower_address];\r\n    }\r\n    \r\n    function _getTowerPendingHosts(\r\n        address tower_address\r\n    ) internal view override returns (address[] memory)\r\n    {\r\n        return towerPendingHosts[tower_address];\r\n    }\r\n\r\n    function _getTowers(\r\n    ) internal view override returns (Tower[] memory)\r\n    {\r\n        return towers;\r\n    }\r\n\r\n    // Private functions\r\n    function _getTowerIndex(\r\n        address tower_address\r\n    ) private view returns (uint32)\r\n    {\r\n        uint32 index = towersIndex[tower_address];\r\n        require(index > 0, \"Tower does not exist\");\r\n        return index;\r\n    }\r\n\r\n}",
  "sourcePath": "C:\\Users\\jxlim\\repos\\meca_contracts\\src\\contracts\\TowerContract.sol",
  "compiler": {
    "name": "solc",
    "version": "0.8.17+commit.8df45f5f.Emscripten.clang"
  },
  "schemaVersion": "3.4.12",
  "updatedAt": "2024-02-26T02:39:08.483Z",
  "devdoc": {
    "kind": "dev",
    "methods": {
      "acceptHost(address)": {
        "details": "This function is used to accept the host candidate the tower gets the host fee",
        "params": {
          "hostAddress": "The address of the host"
        }
      },
      "addStake()": {
        "details": "Only the tower can use this function for itself"
      },
      "clear()": {
        "details": "This function is used to clear the contract"
      },
      "deleteHost(address)": {
        "details": "This function is used to delete a host from the tower",
        "params": {
          "hostAddress": "The address of the host"
        }
      },
      "deleteTower()": {
        "details": "Only the tower can use this function for itself"
      },
      "getTowerFee(address,uint256,uint256)": {
        "params": {
          "blockTimeoutLimit": "The block timeout limit of the task",
          "size": "The size of the task",
          "towerAddress": "The address of the tower"
        },
        "returns": {
          "_0": "uint256 The fee of the tower"
        }
      },
      "getTowerHosts(address)": {
        "params": {
          "towerAddress": "The address of the tower"
        },
        "returns": {
          "_0": "address[] The hosts of the tower"
        }
      },
      "getTowerPendingHosts(address)": {
        "params": {
          "towerAddress": "The address of the tower"
        },
        "returns": {
          "_0": "address[] The pending hosts of the tower"
        }
      },
      "getTowerPublicConnection(address)": {
        "params": {
          "towerAddress": "The address of the tower"
        },
        "returns": {
          "_0": "string The public connection of the tower"
        }
      },
      "getTowerSizeLimit(address)": {
        "params": {
          "towerAddress": "The address of the tower"
        },
        "returns": {
          "_0": "uint256 The size limit of the tower"
        }
      },
      "getTowerStake(address)": {
        "params": {
          "towerAddress": "The address of the tower"
        },
        "returns": {
          "_0": "uint256 The stake of the tower"
        }
      },
      "getTowers()": {
        "returns": {
          "_0": "tower[] The towers"
        }
      },
      "penaltyForFailedTask(address,address)": {
        "details": "This function is used to penalize the tower for a failed task and send the penalty to the user",
        "params": {
          "towerAddress": "The address of the tower",
          "userAddress": "The address of the user"
        }
      },
      "registerAsTower(uint256,string,uint256,uint8)": {
        "details": "This function is used to register as a tower the stake is inside the call",
        "params": {
          "fee": "The fee of the tower",
          "feeType": "The type of the fee (0: fixed / 1: size / 2: time / 3: size and time)",
          "publicConnection": "The public connection of the tower",
          "sizeLimit": "The size limit of the tower"
        }
      },
      "registerMeForTower(address)": {
        "details": "This function is used to register the sending host for the tower The host must pay a fee",
        "params": {
          "towerAddress": "The address of the tower"
        }
      },
      "rejectHost(address)": {
        "details": "This function is used to reject the host candidate the tower gets the host fee",
        "params": {
          "hostAddress": "The address of the host"
        }
      },
      "setSchedulerContractAddress(address)": {
        "details": "This function is used only by the owner to set the scheduler contract address ",
        "params": {
          "newSchedulerContractAddress": "The new scheduler contract address"
        }
      },
      "updateFee(uint8,uint256)": {
        "details": "Only the tower can use this function for itself"
      },
      "updatePublicConnection(string)": {
        "details": "Only the tower can use this function for itself"
      },
      "updateSizeLimit(uint256)": {
        "details": "Only the tower can use this function for itself"
      },
      "withdrawStake(uint256)": {
        "details": "Only the tower can use this function for itself",
        "params": {
          "amount": "The amount to withdraw"
        }
      }
    },
    "version": 1
  },
  "userdoc": {
    "kind": "user",
    "methods": {
      "FAILED_TASK_PENALTY()": {
        "notice": "The penalty for failed task"
      },
      "HOST_REQUEST_FEE()": {
        "notice": "The fee for requesting to be host to a tower"
      },
      "TOWER_INITIAL_STAKE()": {
        "notice": "The initial stake for adding a tower"
      },
      "acceptHost(address)": {
        "notice": "accept the host"
      },
      "addStake()": {
        "notice": "add a stake to the tower"
      },
      "clear()": {
        "notice": "The clear function"
      },
      "deleteHost(address)": {
        "notice": "delete a host from the tower"
      },
      "deleteTower()": {
        "notice": "delete the tower"
      },
      "getTowerFee(address,uint256,uint256)": {
        "notice": "Get the tower fee"
      },
      "getTowerHosts(address)": {
        "notice": "Get the tower hosts"
      },
      "getTowerPendingHosts(address)": {
        "notice": "Get the tower pending hosts"
      },
      "getTowerPublicConnection(address)": {
        "notice": "Get the tower public connection"
      },
      "getTowerSizeLimit(address)": {
        "notice": "Get the tower size limit"
      },
      "getTowerStake(address)": {
        "notice": "Get the tower stake"
      },
      "getTowers()": {
        "notice": "Get the towers"
      },
      "owner()": {
        "notice": "The owner of the contract"
      },
      "penaltyForFailedTask(address,address)": {
        "notice": "penalty for failed task"
      },
      "registerAsTower(uint256,string,uint256,uint8)": {
        "notice": "Register as a tower"
      },
      "registerMeForTower(address)": {
        "notice": "register the sending host for the tower"
      },
      "rejectHost(address)": {
        "notice": "reject the host"
      },
      "schedulerContractAddress()": {
        "notice": "The scheduler contract address"
      },
      "setSchedulerContractAddress(address)": {
        "notice": "Set the scheduler contract address"
      },
      "updateFee(uint8,uint256)": {
        "notice": "update the fee of the tower"
      },
      "updatePublicConnection(string)": {
        "notice": "update the public connection of the tower"
      },
      "updateSizeLimit(uint256)": {
        "notice": "update the size limit of the tower"
      },
      "withdrawStake(uint256)": {
        "notice": "withdraw the money from the tower stake but keeping the minimum stake"
      }
    },
    "version": 1
  }
}