{
  "contractName": "CptContract",
  "abi": [
    {
      "anonymous": false,
      "inputs": [
        {
          "indexed": false,
          "internalType": "uint256",
          "name": "cptId",
          "type": "uint256"
        },
        {
          "indexed": false,
          "internalType": "bytes",
          "name": "credentialPublicKey",
          "type": "bytes"
        },
        {
          "indexed": false,
          "internalType": "bytes",
          "name": "credentialProof",
          "type": "bytes"
        }
      ],
      "name": "CredentialTemplate",
      "type": "event"
    },
    {
      "anonymous": false,
      "inputs": [
        {
          "indexed": false,
          "internalType": "uint256",
          "name": "retCode",
          "type": "uint256"
        },
        {
          "indexed": false,
          "internalType": "uint256",
          "name": "cptId",
          "type": "uint256"
        },
        {
          "indexed": false,
          "internalType": "int256",
          "name": "cptVersion",
          "type": "int256"
        }
      ],
      "name": "RegisterCptRetLog",
      "type": "event"
    },
    {
      "anonymous": false,
      "inputs": [
        {
          "indexed": false,
          "internalType": "uint256",
          "name": "retCode",
          "type": "uint256"
        },
        {
          "indexed": false,
          "internalType": "uint256",
          "name": "cptId",
          "type": "uint256"
        },
        {
          "indexed": false,
          "internalType": "int256",
          "name": "cptVersion",
          "type": "int256"
        }
      ],
      "name": "UpdateCptRetLog",
      "type": "event"
    },
    {
      "constant": true,
      "inputs": [],
      "name": "AUTHORITY_ISSUER_START_ID",
      "outputs": [
        {
          "internalType": "uint256",
          "name": "",
          "type": "uint256"
        }
      ],
      "payable": false,
      "stateMutability": "view",
      "type": "function"
    },
    {
      "constant": true,
      "inputs": [],
      "name": "NONE_AUTHORITY_ISSUER_START_ID",
      "outputs": [
        {
          "internalType": "uint256",
          "name": "",
          "type": "uint256"
        }
      ],
      "payable": false,
      "stateMutability": "view",
      "type": "function"
    },
    {
      "constant": false,
      "inputs": [
        {
          "internalType": "address",
          "name": "publisher",
          "type": "address"
        },
        {
          "internalType": "int256[8]",
          "name": "intArray",
          "type": "int256[8]"
        },
        {
          "internalType": "bytes32[8]",
          "name": "bytes32Array",
          "type": "bytes32[8]"
        },
        {
          "internalType": "bytes32[32]",
          "name": "jsonSchemaArray",
          "type": "bytes32[32]"
        },
        {
          "internalType": "uint8",
          "name": "v",
          "type": "uint8"
        },
        {
          "internalType": "bytes32",
          "name": "r",
          "type": "bytes32"
        },
        {
          "internalType": "bytes32",
          "name": "s",
          "type": "bytes32"
        }
      ],
      "name": "registerCpt",
      "outputs": [
        {
          "internalType": "bool",
          "name": "",
          "type": "bool"
        }
      ],
      "payable": false,
      "stateMutability": "nonpayable",
      "type": "function"
    },
    {
      "constant": false,
      "inputs": [
        {
          "internalType": "uint256",
          "name": "cptId",
          "type": "uint256"
        },
        {
          "internalType": "address",
          "name": "publisher",
          "type": "address"
        },
        {
          "internalType": "int256[8]",
          "name": "intArray",
          "type": "int256[8]"
        },
        {
          "internalType": "bytes32[8]",
          "name": "bytes32Array",
          "type": "bytes32[8]"
        },
        {
          "internalType": "bytes32[32]",
          "name": "jsonSchemaArray",
          "type": "bytes32[32]"
        },
        {
          "internalType": "uint8",
          "name": "v",
          "type": "uint8"
        },
        {
          "internalType": "bytes32",
          "name": "r",
          "type": "bytes32"
        },
        {
          "internalType": "bytes32",
          "name": "s",
          "type": "bytes32"
        }
      ],
      "name": "updateCpt",
      "outputs": [
        {
          "internalType": "bool",
          "name": "",
          "type": "bool"
        }
      ],
      "payable": false,
      "stateMutability": "nonpayable",
      "type": "function"
    },
    {
      "constant": true,
      "inputs": [
        {
          "internalType": "uint256",
          "name": "cptId",
          "type": "uint256"
        }
      ],
      "name": "queryCpt",
      "outputs": [
        {
          "internalType": "address",
          "name": "publisher",
          "type": "address"
        },
        {
          "internalType": "int256[]",
          "name": "intArray",
          "type": "int256[]"
        },
        {
          "internalType": "bytes32[]",
          "name": "bytes32Array",
          "type": "bytes32[]"
        },
        {
          "internalType": "bytes32[]",
          "name": "jsonSchemaArray",
          "type": "bytes32[]"
        },
        {
          "internalType": "uint8",
          "name": "v",
          "type": "uint8"
        },
        {
          "internalType": "bytes32",
          "name": "r",
          "type": "bytes32"
        },
        {
          "internalType": "bytes32",
          "name": "s",
          "type": "bytes32"
        }
      ],
      "payable": false,
      "stateMutability": "view",
      "type": "function"
    },
    {
      "constant": true,
      "inputs": [
        {
          "internalType": "uint256",
          "name": "cptId",
          "type": "uint256"
        },
        {
          "internalType": "address",
          "name": "dataStorageAddress",
          "type": "address"
        }
      ],
      "name": "getCptDynamicIntArray",
      "outputs": [
        {
          "internalType": "int256[]",
          "name": "",
          "type": "int256[]"
        }
      ],
      "payable": false,
      "stateMutability": "view",
      "type": "function"
    },
    {
      "constant": true,
      "inputs": [
        {
          "internalType": "uint256",
          "name": "cptId",
          "type": "uint256"
        },
        {
          "internalType": "address",
          "name": "dataStorageAddress",
          "type": "address"
        }
      ],
      "name": "getCptDynamicBytes32Array",
      "outputs": [
        {
          "internalType": "bytes32[]",
          "name": "",
          "type": "bytes32[]"
        }
      ],
      "payable": false,
      "stateMutability": "view",
      "type": "function"
    },
    {
      "constant": true,
      "inputs": [
        {
          "internalType": "uint256",
          "name": "cptId",
          "type": "uint256"
        },
        {
          "internalType": "address",
          "name": "dataStorageAddress",
          "type": "address"
        }
      ],
      "name": "getCptDynamicJsonSchemaArray",
      "outputs": [
        {
          "internalType": "bytes32[]",
          "name": "",
          "type": "bytes32[]"
        }
      ],
      "payable": false,
      "stateMutability": "view",
      "type": "function"
    },
    {
      "constant": true,
      "inputs": [
        {
          "internalType": "uint256",
          "name": "startPos",
          "type": "uint256"
        },
        {
          "internalType": "uint256",
          "name": "num",
          "type": "uint256"
        }
      ],
      "name": "getCptIdList",
      "outputs": [
        {
          "internalType": "uint256[]",
          "name": "",
          "type": "uint256[]"
        }
      ],
      "payable": false,
      "stateMutability": "view",
      "type": "function"
    },
    {
      "constant": true,
      "inputs": [],
      "name": "getTotalCptId",
      "outputs": [
        {
          "internalType": "uint256",
          "name": "",
          "type": "uint256"
        }
      ],
      "payable": false,
      "stateMutability": "view",
      "type": "function"
    },
    {
      "constant": false,
      "inputs": [
        {
          "internalType": "uint256",
          "name": "cptId",
          "type": "uint256"
        },
        {
          "internalType": "bytes",
          "name": "credentialPublicKey",
          "type": "bytes"
        },
        {
          "internalType": "bytes",
          "name": "credentialProof",
          "type": "bytes"
        }
      ],
      "name": "putCredentialTemplate",
      "outputs": [],
      "payable": false,
      "stateMutability": "nonpayable",
      "type": "function"
    },
    {
      "constant": true,
      "inputs": [
        {
          "internalType": "uint256",
          "name": "cptId",
          "type": "uint256"
        }
      ],
      "name": "getCredentialTemplateBlock",
      "outputs": [
        {
          "internalType": "uint256",
          "name": "",
          "type": "uint256"
        }
      ],
      "payable": false,
      "stateMutability": "view",
      "type": "function"
    },
    {
      "constant": false,
      "inputs": [
        {
          "internalType": "uint256[]",
          "name": "uintArray",
          "type": "uint256[]"
        }
      ],
      "name": "putClaimPoliciesIntoPresentationMap",
      "outputs": [],
      "payable": false,
      "stateMutability": "nonpayable",
      "type": "function"
    },
    {
      "constant": true,
      "inputs": [
        {
          "internalType": "uint256",
          "name": "presentationId",
          "type": "uint256"
        }
      ],
      "name": "getClaimPoliciesFromPresentationMap",
      "outputs": [
        {
          "internalType": "uint256[]",
          "name": "",
          "type": "uint256[]"
        },
        {
          "internalType": "address",
          "name": "",
          "type": "address"
        }
      ],
      "payable": false,
      "stateMutability": "view",
      "type": "function"
    },
    {
      "constant": false,
      "inputs": [
        {
          "internalType": "uint256",
          "name": "cptId",
          "type": "uint256"
        },
        {
          "internalType": "uint256[]",
          "name": "uintArray",
          "type": "uint256[]"
        }
      ],
      "name": "putClaimPoliciesIntoCptMap",
      "outputs": [],
      "payable": false,
      "stateMutability": "nonpayable",
      "type": "function"
    },
    {
      "constant": true,
      "inputs": [
        {
          "internalType": "uint256",
          "name": "cptId",
          "type": "uint256"
        }
      ],
      "name": "getClaimPoliciesFromCptMap",
      "outputs": [
        {
          "internalType": "uint256[]",
          "name": "",
          "type": "uint256[]"
        }
      ],
      "payable": false,
      "stateMutability": "view",
      "type": "function"
    },
    {
      "constant": false,
      "inputs": [
        {
          "internalType": "uint256",
          "name": "cptId",
          "type": "uint256"
        },
        {
          "internalType": "address",
          "name": "cptPublisher",
          "type": "address"
        },
        {
          "internalType": "int256[8]",
          "name": "cptIntArray",
          "type": "int256[8]"
        },
        {
          "internalType": "bytes32[8]",
          "name": "cptBytes32Array",
          "type": "bytes32[8]"
        },
        {
          "internalType": "bytes32[32]",
          "name": "cptJsonSchemaArray",
          "type": "bytes32[32]"
        },
        {
          "internalType": "uint8",
          "name": "cptV",
          "type": "uint8"
        },
        {
          "internalType": "bytes32",
          "name": "cptR",
          "type": "bytes32"
        },
        {
          "internalType": "bytes32",
          "name": "cptS",
          "type": "bytes32"
        }
      ],
      "name": "putCpt",
      "outputs": [
        {
          "internalType": "bool",
          "name": "",
          "type": "bool"
        }
      ],
      "payable": false,
      "stateMutability": "nonpayable",
      "type": "function"
    },
    {
      "constant": false,
      "inputs": [],
      "name": "getCptId",
      "outputs": [
        {
          "internalType": "uint256",
          "name": "cptId",
          "type": "uint256"
        }
      ],
      "payable": false,
      "stateMutability": "nonpayable",
      "type": "function"
    },
    {
      "constant": true,
      "inputs": [
        {
          "internalType": "uint256",
          "name": "cptId",
          "type": "uint256"
        }
      ],
      "name": "isCptExist",
      "outputs": [
        {
          "internalType": "bool",
          "name": "",
          "type": "bool"
        }
      ],
      "payable": false,
      "stateMutability": "view",
      "type": "function"
    },
    {
      "constant": true,
      "inputs": [
        {
          "internalType": "uint256",
          "name": "cptId",
          "type": "uint256"
        }
      ],
      "name": "getCptPublisher",
      "outputs": [
        {
          "internalType": "address",
          "name": "publisher",
          "type": "address"
        }
      ],
      "payable": false,
      "stateMutability": "view",
      "type": "function"
    },
    {
      "constant": true,
      "inputs": [
        {
          "internalType": "uint256",
          "name": "cptId",
          "type": "uint256"
        }
      ],
      "name": "getCptIntArray",
      "outputs": [
        {
          "internalType": "int256[8]",
          "name": "intArray",
          "type": "int256[8]"
        }
      ],
      "payable": false,
      "stateMutability": "view",
      "type": "function"
    },
    {
      "constant": true,
      "inputs": [
        {
          "internalType": "uint256",
          "name": "cptId",
          "type": "uint256"
        }
      ],
      "name": "getCptJsonSchemaArray",
      "outputs": [
        {
          "internalType": "bytes32[32]",
          "name": "jsonSchemaArray",
          "type": "bytes32[32]"
        }
      ],
      "payable": false,
      "stateMutability": "view",
      "type": "function"
    },
    {
      "constant": true,
      "inputs": [
        {
          "internalType": "uint256",
          "name": "cptId",
          "type": "uint256"
        }
      ],
      "name": "getCptBytes32Array",
      "outputs": [
        {
          "internalType": "bytes32[8]",
          "name": "bytes32Array",
          "type": "bytes32[8]"
        }
      ],
      "payable": false,
      "stateMutability": "view",
      "type": "function"
    },
    {
      "constant": true,
      "inputs": [
        {
          "internalType": "uint256",
          "name": "cptId",
          "type": "uint256"
        }
      ],
      "name": "getCptSignature",
      "outputs": [
        {
          "internalType": "uint8",
          "name": "v",
          "type": "uint8"
        },
        {
          "internalType": "bytes32",
          "name": "r",
          "type": "bytes32"
        },
        {
          "internalType": "bytes32",
          "name": "s",
          "type": "bytes32"
        }
      ],
      "payable": false,
      "stateMutability": "view",
      "type": "function"
    },
    {
      "constant": true,
      "inputs": [],
      "name": "getDatasetLength",
      "outputs": [
        {
          "internalType": "uint256",
          "name": "",
          "type": "uint256"
        }
      ],
      "payable": false,
      "stateMutability": "view",
      "type": "function"
    },
    {
      "constant": true,
      "inputs": [
        {
          "internalType": "uint256",
          "name": "index",
          "type": "uint256"
        }
      ],
      "name": "getCptIdFromIndex",
      "outputs": [
        {
          "internalType": "uint256",
          "name": "",
          "type": "uint256"
        }
      ],
      "payable": false,
      "stateMutability": "view",
      "type": "function"
    }
  ],
  "bytecode": "0x60806040526103e8600055621e84806001556001600b5534801561002257600080fd5b50611bfc806100326000396000f3fe608060405234801561001057600080fd5b50600436106101aa576000357c01000000000000000000000000000000000000000000000000000000009004806366d6a90b116100fb578063d2a3b53d116100b4578063e083a3ad1161008e578063e083a3ad14610981578063e5741ff314610989578063e5a34e6e146109c8578063f00245ab146109f4576101aa565b8063d2a3b53d1461086a578063d4eb8a4214610938578063d6edb44e14610955576101aa565b806366d6a90b146106775780636da223b7146107455780636fce6bb31461077e578063a07bd9b514610786578063b3cc5e75146107a3578063cd3a34651461084d576101aa565b80633d6c482311610168578063497588e911610142578063497588e91461045f5780635ca35abf146104e957806362238a7914610618578063628e526f14610644576101aa565b80633d6c4823146102bf57806342e8f8e9146102dc57806347b42f8814610381576101aa565b806227baa4146101af5780631e040fc71461020557806323b746f1146102785780632984fcc8146102955780632c0abe1d146102af5780633d29ba2b146102b7575b600080fd5b6101cc600480360360208110156101c557600080fd5b5035610b28565b604051808261010080838360005b838110156101f25781810151838201526020016101da565b5050505090500191505060405180910390f35b6102286004803603604081101561021b57600080fd5b5080359060200135610c47565b60408051602080825283518183015283519192839290830191858101910280838360005b8381101561026457818101518382015260200161024c565b505050509050019250505060405180910390f35b6101cc6004803603602081101561028e57600080fd5b5035610d0b565b61029d610e29565b60408051918252519081900360200190f35b61029d610e39565b61029d610e40565b61029d600480360360208110156102d557600080fd5b5035610e6e565b61037f600480360360208110156102f257600080fd5b81019060208101813564010000000081111561030d57600080fd5b82018360208201111561031f57600080fd5b8035906020019184602083028401116401000000008311171561034157600080fd5b919080806020026020016040519081016040528093929190818152602001838360200280828437600092019190915250929550610e83945050505050565b005b61044b600480360361068081101561039857600080fd5b60408051610100818101909252600160a060020a0384351693928301929161012083019190602084019060089083908390808284376000920191909152505060408051610100818101909252929594938181019392509060089083908390808284376000920191909152505060408051610400818101909252929594938181019392509060209083908390808284376000920191909152509194505060ff82351692505060208101359060400135610f21565b604080519115158252519081900360200190f35b61047c6004803603602081101561047557600080fd5b5035610f54565b604051808060200183600160a060020a0316600160a060020a03168152602001828103825284818151815260200191508051906020019060200280838360005b838110156104d45781810151838201526020016104bc565b50505050905001935050505060405180910390f35b610506600480360360208110156104ff57600080fd5b5035610fd2565b6040518088600160a060020a0316600160a060020a031681526020018060200180602001806020018760ff1660ff16815260200186815260200185815260200184810384528a818151815260200191508051906020019060200280838360005b8381101561057e578181015183820152602001610566565b50505050905001848103835289818151815260200191508051906020019060200280838360005b838110156105bd5781810151838201526020016105a5565b50505050905001848103825288818151815260200191508051906020019060200280838360005b838110156105fc5781810151838201526020016105e4565b505050509050019a505050505050505050505060405180910390f35b6102286004803603604081101561062e57600080fd5b5080359060200135600160a060020a0316611014565b6106616004803603602081101561065a57600080fd5b5035611094565b60405181518152808261040080838360206101da565b61044b60048036036106a081101561068e57600080fd5b604080516101008181018352843594600160a060020a03602082013516948101939092610140840192909184019060089083908390808284376000920191909152505060408051610100818101909252929594938181019392509060089083908390808284376000920191909152505060408051610400818101909252929594938181019392509060209083908390808284376000920191909152509194505060ff823516925050602081013590604001356111b7565b6107626004803603602081101561075b57600080fd5b50356111ec565b60408051600160a060020a039092168252519081900360200190f35b61029d611302565b61029d6004803603602081101561079c57600080fd5b5035611308565b61037f600480360360408110156107b957600080fd5b813591908101906040810160208201356401000000008111156107db57600080fd5b8201836020820111156107ed57600080fd5b8035906020019184602083028401116401000000008311171561080f57600080fd5b919080806020026020016040519081016040528093929190818152602001838360200280828437600092019190915250929550611329945050505050565b6102286004803603602081101561086357600080fd5b503561138e565b61044b60048036036106a081101561088157600080fd5b604080516101008181018352843594600160a060020a03602082013516948101939092610140840192909184019060089083908390808284376000920191909152505060408051610100818101909252929594938181019392509060089083908390808284376000920191909152505060408051610400818101909252929594938181019392509060209083908390808284376000920191909152509194505060ff823516925050602081013590604001356113f0565b61044b6004803603602081101561094e57600080fd5b5035611533565b6102286004803603604081101561096b57600080fd5b5080359060200135600160a060020a0316611564565b61029d6115dc565b6109a66004803603602081101561099f57600080fd5b50356115e2565b6040805160ff9094168452602084019290925282820152519081900360600190f35b610228600480360360408110156109de57600080fd5b5080359060200135600160a060020a0316611710565b61037f60048036036060811015610a0a57600080fd5b81359190810190604081016020820135640100000000811115610a2c57600080fd5b820183602082011115610a3e57600080fd5b80359060200191846001830284011164010000000083111715610a6057600080fd5b91908080601f0160208091040260200160405190810160405280939291908181526020018383808284376000920191909152509295949360208101935035915050640100000000811115610ab357600080fd5b820183602082011115610ac557600080fd5b80359060200191846001830284011164010000000083111715610ae757600080fd5b91908080601f016020809104026020016040519081016040528093929190818152602001838380828437600092019190915250929550611788945050505050565b610b30611a5b565b610b38611a7a565b600083815260026020908152604091829020825160a0810184528154600160a060020a03168152835161010081019485905290939192840191600184019060089082845b815481526020019060010190808311610b7c5750505091835250506040805161010081019182905260209092019190600984019060089082845b815481526020019060010190808311610bb657505050918352505060408051610400810191829052602092830192909160118501919082845b815481526020019060010190808311610bef57505050918352505060408051606081018252603184015460ff168152603284015460208281019190915260339094015481830152929091019190915201519392505050565b60606000610c536115dc565b9050600084821015610c865760408051600180825281830190925290602080830190803883390190505092505050610d05565b8385018211610c985750838103610c9b565b50825b606081604051908082528060200260200182016040528015610cc7578160200160208202803883390190505b50905060005b82811015610cff57610ce0818801611308565b828281518110610cec57fe5b6020908102919091010152600101610ccd565b50925050505b92915050565b610d13611a5b565b610d1b611a7a565b600083815260026020908152604091829020825160a0810184528154600160a060020a03168152835161010081019485905290939192840191600184019060089082845b815481526020019060010190808311610d5f5750505091835250506040805161010081019182905260209092019190600984019060089082845b815481526020019060010190808311610d9957505050918352505060408051610400810191829052602092830192909160118501919082845b815481526020019060010190808311610dd257505050918352505060408051606081018252603184015460ff1681526032840154602082810191909152603390940154918101919091529082015201519392505050565b6000610e336115dc565b90505b90565b621e848081565b60005b610e4e600154611533565b15610e60576001805481019055610e43565b506001805480820190915590565b6000818152600760205260409020545b919050565b600b5460009081526008602090815260409091208251610ea592840190611ac9565b50600b80546000908152600960209081526040808320805473ffffffffffffffffffffffffffffffffffffffff191633179055925483519283529082015260018183015290517fa17f6f29c43d53fdf8a8d5fc788d118621cdca690e8ee29962c3e2fbe70d5eb39181900360600190a150600b80546001019055565b6000610f4888888888888888600560009054906101000a9004600160a060020a03166118a5565b98975050505050505050565b600081815260086020908152604080832060098352818420548154835181860281018601909452808452606095949293600160a060020a0390921692849190830182828015610fc257602002820191906000526020600020905b815481526020019060010190808311610fae575b5050505050915091509150915091565b600060608060606000806000610ffd88600560009054906101000a9004600160a060020a031661191b565b959e949d50929b5090995097509550909350915050565b606061101e611b14565b61102784611094565b6040805160208082526104208201909252919250606091908082016104008038833901905050905060005b602081101561108b5782816020811061106757fe5b602002015182828151811061107857fe5b6020908102919091010152600101611052565b50949350505050565b61109c611b14565b6110a4611a7a565b600083815260026020908152604091829020825160a0810184528154600160a060020a03168152835161010081019485905290939192840191600184019060089082845b8154815260200190600101908083116110e85750505091835250506040805161010081019182905260209092019190600984019060089082845b81548152602001906001019080831161112257505050918352505060408051610400810191829052602092830192909160118501919082845b81548152602001906001019080831161115b5750505091835250506040805160608082018352603185015460ff168252603285015460208381019190915260339095015492820192909252929091019190915201519392505050565b60006111df8989898989898989600560009054906101000a9004600160a060020a0316611971565b9998505050505050505050565b60006111f6611a7a565b600083815260026020908152604091829020825160a0810184528154600160a060020a03168152835161010081019485905290939192840191600184019060089082845b81548152602001906001019080831161123a5750505091835250506040805161010081019182905260209092019190600984019060089082845b81548152602001906001019080831161127457505050918352505060408051610400810191829052602092830192909160118501919082845b8154815260200190600101908083116112ad57505050918352505060408051606081018252603184015460ff168152603284015460208281019190915260339094015491810191909152910152519392505050565b6103e881565b60006003828154811061131757fe5b90600052602060002001549050919050565b6000828152600a60209081526040909120825161134892840190611ac9565b5060408051600081526020810184905260018183015290517fa17f6f29c43d53fdf8a8d5fc788d118621cdca690e8ee29962c3e2fbe70d5eb39181900360600190a15050565b6000818152600a60209081526040918290208054835181840281018401909452808452606093928301828280156113e457602002820191906000526020600020905b8154815260200190600101908083116113d0575b50505050509050919050565b60006113fa611b33565b50604080516060808201835260ff871682526020808301879052828401869052835160a081018552600160a060020a038d811682528183018d81528287018d90529382018b90526080820185905260008f81526002909352949091208151815473ffffffffffffffffffffffffffffffffffffffff1916951694909417845590519192909161148f9060018301906008611b53565b5060408201516114a59060098301906008611b53565b5060608201516114bb9060118301906020611b80565b5060809190910151805160318301805460ff191660ff9092169190911790556020810151603283015560400151603390910155505060038054600181810183556000929092527fc2575a0e9e593c00f959f8c92f12db2869c3395a3b0502d05e2516446f71f85b019890985550959695505050505050565b600061153d611a5b565b61154683610d0b565b80519091501561155a576001915050610e7e565b6000915050610e7e565b606061156e611a5b565b61157784610b28565b604080516008808252610120820190925291925060609190602082016101008038833901905050905060005b600881101561108b578281600881106115b857fe5b60200201518282815181106115c957fe5b60209081029190910101526001016115a3565b60035490565b60008060006115ef611a7a565b600085815260026020908152604091829020825160a0810184528154600160a060020a03168152835161010081019485905290939192840191600184019060089082845b8154815260200190600101908083116116335750505091835250506040805161010081019182905260209092019190600984019060089082845b81548152602001906001019080831161166d57505050918352505060408051610400810191829052602092830192909160118501919082845b8154815260200190600101908083116116a657505050918352505060408051606081018252603184015460ff168152603284015460208281019190915260339094015481830152918301919091526080909201518051918101519201519097919650945092505050565b606061171a611a5b565b61172384610d0b565b604080516008808252610120820190925291925060609190602082016101008038833901905050905060005b600881101561108b5782816008811061176457fe5b602002015182828151811061177557fe5b602090810291909101015260010161174f565b7f474faf3aa6d5f61cba0888d71cc5e409fb0ec6d76c3da540ad881c925a419c99838383604051808481526020018060200180602001838103835285818151815260200191508051906020019080838360005b838110156117f35781810151838201526020016117db565b50505050905090810190601f1680156118205780820380516001836020036101000a031916815260200191505b50838103825284518152845160209182019186019080838360005b8381101561185357818101518382015260200161183b565b50505050905090810190601f1680156118805780820380516001836020036101000a031916815260200191505b509550505050505060405180910390a150506000908152600760205260409020439055565b6000806118b0610e40565b6001808b529091506118c8828c8c8c8c8c8c8c6113f0565b5060408051600081526020810184905280820183905290517fa17f6f29c43d53fdf8a8d5fc788d118621cdca690e8ee29962c3e2fbe70d5eb39181900360600190a15060019a9950505050505050505050565b600060608060606000806000611930896111ec565b965061193c8989611710565b95506119488989611564565b94506119548989611014565b935061195f896115e2565b989b979a509598509396939592505050565b600061197c8a611533565b15611a0857611989611a5b565b6119928b610d0b565b8051600101808b52602080830151908c01819052919250906119ba8d8d8d8d8d8d8d8d6113f0565b506040805160008152602081018f905280820184905290517f2614d1ec3482cc2505bf211c39bee96c28940521311ec70c9ebf14d3896fd1969181900360600190a1600193505050506111df565b604080516207a24d81526000602082018190528183015290517f2614d1ec3482cc2505bf211c39bee96c28940521311ec70c9ebf14d3896fd1969181900360600190a15060009998505050505050505050565b6040518061010001604052806008906020820280388339509192915050565b6040518060a001604052806000600160a060020a03168152602001611a9d611a5b565b8152602001611aaa611a5b565b8152602001611ab7611b14565b8152602001611ac4611b33565b905290565b828054828255906000526020600020908101928215611b04579160200282015b82811115611b04578251825591602001919060010190611ae9565b50611b10929150611bad565b5090565b6040518061040001604052806020906020820280388339509192915050565b604080516060810182526000808252602082018190529181019190915290565b8260088101928215611b045791602002820182811115611b04578251825591602001919060010190611ae9565b8260208101928215611b045791602002820182811115611b04578251825591602001919060010190611ae9565b610e3691905b80821115611b105760008155600101611bb356fea265627a7a72315820bef681233371e399de9f220aa3e6071d11397a73b39d5b2d2bbff559ac832a0564736f6c63430005100032",
  "source": "pragma solidity >=0.4.22 <0.9.0;\r\n\r\ncontract CptContract {\r\n\r\n    uint constant public AUTHORITY_ISSUER_START_ID = 1000;\r\n    uint constant public NONE_AUTHORITY_ISSUER_START_ID = 2000000;\r\n    uint private authority_issuer_current_id = 1000;\r\n    uint private none_authority_issuer_current_id = 2000000;\r\n\r\n    struct Signature {\r\n        uint8 v;\r\n        bytes32 r;\r\n        bytes32 s;\r\n    }\r\n\r\n    struct Cpt {\r\n        //store the weid address of cpt publisher\r\n        address publisher;\r\n        // [0]: cpt version, [1]: created, [2]: updated, [3]: the CPT ID\r\n        int[8] intArray;\r\n        // [0]: desc\r\n        bytes32[8] bytes32Array;\r\n        //store json schema\r\n        bytes32[32] jsonSchemaArray;\r\n        //store signature\r\n        Signature signature;\r\n    }\r\n\r\n    mapping(uint => Cpt) private cptMap;\r\n    uint[] private cptIdList;\r\n\r\n\r\n    // Error codes\r\n    uint constant private CPT_NOT_EXIST = 500301;\r\n    uint constant private AUTHORITY_ISSUER_CPT_ID_EXCEED_MAX = 500302;\r\n    uint constant private CPT_PUBLISHER_NOT_EXIST = 500303;\r\n    uint constant private CPT_ALREADY_EXIST = 500304;\r\n    uint constant private NO_PERMISSION = 500305;\r\n\r\n    // Default CPT version\r\n    int constant private CPT_DEFAULT_VERSION = 1;\r\n\r\n    // Reserved for contract owner check\r\n    address private internalRoleControllerAddress;\r\n\r\n    // CPT and Policy data storage address separately\r\n    address private cptDataStorageAddress;\r\n    address private policyDataStorageAddress;\r\n\r\n    event RegisterCptRetLog(\r\n        uint retCode,\r\n        uint cptId,\r\n        int cptVersion\r\n    );\r\n\r\n    event UpdateCptRetLog(\r\n        uint retCode,\r\n        uint cptId,\r\n        int cptVersion\r\n    );\r\n\r\n    function registerCptInner(\r\n        address publisher,\r\n        int[8] memory intArray,\r\n        bytes32[8] memory bytes32Array,\r\n        bytes32[32] memory jsonSchemaArray,\r\n        uint8 v,\r\n        bytes32 r,\r\n        bytes32 s,\r\n        address dataStorageAddress\r\n    )\r\n    private\r\n    returns (bool)\r\n    {\r\n        uint cptId = getCptId();\r\n\r\n        int cptVersion = CPT_DEFAULT_VERSION;\r\n        intArray[0] = cptVersion;\r\n        putCpt(cptId, publisher, intArray, bytes32Array, jsonSchemaArray, v, r, s);\r\n\r\n        emit RegisterCptRetLog(0, cptId, cptVersion);\r\n        return true;\r\n    }\r\n\r\n    function registerCpt(\r\n        address publisher,\r\n        int[8] memory intArray,\r\n        bytes32[8] memory bytes32Array,\r\n        bytes32[32] memory jsonSchemaArray,\r\n        uint8 v,\r\n        bytes32 r,\r\n        bytes32 s\r\n    )\r\n    public\r\n    returns (bool)\r\n    {\r\n        return registerCptInner(publisher, intArray, bytes32Array, jsonSchemaArray, v, r, s, cptDataStorageAddress);\r\n    }\r\n\r\n    function updateCptInner(\r\n        uint cptId,\r\n        address publisher,\r\n        int[8] memory intArray,\r\n        bytes32[8] memory bytes32Array,\r\n        bytes32[32] memory jsonSchemaArray,\r\n        uint8 v,\r\n        bytes32 r,\r\n        bytes32 s,\r\n        address dataStorageAddress\r\n    )\r\n    private\r\n    returns (bool)\r\n    {\r\n        if (isCptExist(cptId)) {\r\n            int[8] memory cptIntArray = getCptIntArray(cptId);\r\n            int cptVersion = cptIntArray[0] + 1;\r\n            intArray[0] = cptVersion;\r\n            int created = cptIntArray[1];\r\n            intArray[1] = created;\r\n            putCpt(cptId, publisher, intArray, bytes32Array, jsonSchemaArray, v, r, s);\r\n            emit UpdateCptRetLog(0, cptId, cptVersion);\r\n            return true;\r\n        } else {\r\n            emit UpdateCptRetLog(CPT_NOT_EXIST, 0, 0);\r\n            return false;\r\n        }\r\n    }\r\n\r\n    function updateCpt(\r\n        uint cptId,\r\n        address publisher,\r\n        int[8] memory intArray,\r\n        bytes32[8] memory bytes32Array,\r\n        bytes32[32] memory jsonSchemaArray,\r\n        uint8 v,\r\n        bytes32 r,\r\n        bytes32 s\r\n    )\r\n    public\r\n    returns (bool)\r\n    {\r\n        return updateCptInner(cptId, publisher, intArray, bytes32Array, jsonSchemaArray, v, r, s, cptDataStorageAddress);\r\n    }\r\n\r\n    function queryCptInner(\r\n        uint cptId,\r\n        address dataStorageAddress\r\n    )\r\n    private\r\n    view\r\n    returns (\r\n        address publisher,\r\n        int[] memory intArray,\r\n        bytes32[] memory bytes32Array,\r\n        bytes32[] memory jsonSchemaArray,\r\n        uint8 v,\r\n        bytes32 r,\r\n        bytes32 s)\r\n    {\r\n        publisher = getCptPublisher(cptId);\r\n        intArray = getCptDynamicIntArray(cptId, dataStorageAddress);\r\n        bytes32Array = getCptDynamicBytes32Array(cptId, dataStorageAddress);\r\n        jsonSchemaArray = getCptDynamicJsonSchemaArray(cptId, dataStorageAddress);\r\n        (v, r, s) = getCptSignature(cptId);\r\n    }\r\n\r\n    function queryCpt(\r\n        uint cptId\r\n    )\r\n    public\r\n    view\r\n    returns\r\n    (\r\n        address publisher,\r\n        int[] memory intArray,\r\n        bytes32[] memory bytes32Array,\r\n        bytes32[] memory jsonSchemaArray,\r\n        uint8 v,\r\n        bytes32 r,\r\n        bytes32 s)\r\n    {\r\n        return queryCptInner(cptId, cptDataStorageAddress);\r\n    }\r\n\r\n    function getCptDynamicIntArray(\r\n        uint cptId,\r\n        address dataStorageAddress\r\n    )\r\n    public\r\n    view\r\n    returns (int[] memory)\r\n    {\r\n        int[8] memory staticIntArray = getCptIntArray(cptId);\r\n        int[] memory dynamicIntArray = new int[](8);\r\n        for (uint i = 0; i < 8; i++) {\r\n            dynamicIntArray[i] = staticIntArray[i];\r\n        }\r\n        return dynamicIntArray;\r\n    }\r\n\r\n    function getCptDynamicBytes32Array(\r\n        uint cptId,\r\n        address dataStorageAddress\r\n    )\r\n    public\r\n    view\r\n    returns (bytes32[] memory)\r\n    {\r\n        bytes32[8] memory staticBytes32Array = getCptBytes32Array(cptId);\r\n        bytes32[] memory dynamicBytes32Array = new bytes32[](8);\r\n        for (uint i = 0; i < 8; i++) {\r\n            dynamicBytes32Array[i] = staticBytes32Array[i];\r\n        }\r\n        return dynamicBytes32Array;\r\n    }\r\n\r\n    function getCptDynamicJsonSchemaArray(\r\n        uint cptId,\r\n        address dataStorageAddress\r\n    )\r\n    public\r\n    view\r\n    returns (bytes32[] memory)\r\n    {\r\n        bytes32[32] memory staticBytes32Array = getCptJsonSchemaArray(cptId);\r\n        bytes32[] memory dynamicBytes32Array = new bytes32[](32);\r\n        for (uint i = 0; i < 32; i++) {\r\n            dynamicBytes32Array[i] = staticBytes32Array[i];\r\n        }\r\n        return dynamicBytes32Array;\r\n    }\r\n\r\n    function getCptIdList(uint startPos, uint num)\r\n    public\r\n    view\r\n    returns (uint[] memory)\r\n    {\r\n        uint totalLength = getDatasetLength();\r\n        uint dataLength;\r\n        if (totalLength < startPos) {\r\n            return new uint[](1);\r\n        } else if (totalLength <= startPos + num) {\r\n            dataLength = totalLength - startPos;\r\n        } else {\r\n            dataLength = num;\r\n        }\r\n        uint[] memory result = new uint[](dataLength);\r\n        for (uint i = 0; i < dataLength; i++) {\r\n            result[i] = getCptIdFromIndex(startPos + i);\r\n        }\r\n        return result;\r\n    }\r\n\r\n    function getTotalCptId() public view returns (uint) {\r\n        return getDatasetLength();\r\n    }\r\n\r\n    // --------------------------------------------------------\r\n    // Credential Template storage related funcs\r\n    // store the cptId and blocknumber\r\n    mapping (uint => uint) credentialTemplateStored;\r\n    event CredentialTemplate(\r\n        uint cptId,\r\n        bytes credentialPublicKey,\r\n        bytes credentialProof\r\n    );\r\n\r\n    function putCredentialTemplate(\r\n        uint cptId,\r\n        bytes memory credentialPublicKey,\r\n        bytes memory credentialProof\r\n    )\r\n    public\r\n    {\r\n        emit CredentialTemplate(cptId, credentialPublicKey, credentialProof);\r\n        credentialTemplateStored[cptId] = block.number;\r\n    }\r\n\r\n    function getCredentialTemplateBlock(\r\n        uint cptId\r\n    )\r\n    public\r\n    view\r\n    returns(uint)\r\n    {\r\n        return credentialTemplateStored[cptId];\r\n    }\r\n\r\n    // --------------------------------------------------------\r\n    // Claim Policy storage belonging to v.s. Presentation, Publisher WeID, and CPT\r\n    // Store the registered Presentation Policy ID (uint) v.s. Claim Policy ID list (uint[])\r\n    mapping (uint => uint[]) private claimPoliciesFromPresentation;\r\n    mapping (uint => address) private claimPoliciesWeIdFromPresentation;\r\n    // Store the registered CPT ID (uint) v.s. Claim Policy ID list (uint[])\r\n    mapping (uint => uint[]) private claimPoliciesFromCPT;\r\n\r\n    uint private presentationClaimMapId = 1;\r\n\r\n    function putClaimPoliciesIntoPresentationMap(uint[] memory uintArray) public {\r\n        claimPoliciesFromPresentation[presentationClaimMapId] = uintArray;\r\n        claimPoliciesWeIdFromPresentation[presentationClaimMapId] = msg.sender;\r\n        emit RegisterCptRetLog(0, presentationClaimMapId, CPT_DEFAULT_VERSION);\r\n        presentationClaimMapId ++;\r\n    }\r\n\r\n    function getClaimPoliciesFromPresentationMap(uint presentationId) public view returns (uint[] memory, address) {\r\n        return (claimPoliciesFromPresentation[presentationId], claimPoliciesWeIdFromPresentation[presentationId]);\r\n    }\r\n\r\n    function putClaimPoliciesIntoCptMap(uint cptId, uint[] memory uintArray) public {\r\n        claimPoliciesFromCPT[cptId] = uintArray;\r\n        emit RegisterCptRetLog(0, cptId, CPT_DEFAULT_VERSION);\r\n    }\r\n\r\n    function getClaimPoliciesFromCptMap(uint cptId) public view returns (uint[] memory) {\r\n        return claimPoliciesFromCPT[cptId];\r\n    }\r\n\r\n    function putCpt(\r\n        uint cptId,\r\n        address cptPublisher,\r\n        int[8] memory cptIntArray,\r\n        bytes32[8] memory cptBytes32Array,\r\n        bytes32[32] memory cptJsonSchemaArray,\r\n        uint8 cptV,\r\n        bytes32 cptR,\r\n        bytes32 cptS\r\n    )\r\n    public\r\n    returns (bool)\r\n    {\r\n        Signature memory cptSignature = Signature({v : cptV, r : cptR, s : cptS});\r\n        cptMap[cptId] = Cpt({publisher : cptPublisher, intArray : cptIntArray, bytes32Array : cptBytes32Array, jsonSchemaArray : cptJsonSchemaArray, signature : cptSignature});\r\n        cptIdList.push(cptId);\r\n        return true;\r\n    }\r\n\r\n    function getCptId(\r\n    )\r\n    public\r\n    returns\r\n    (uint cptId)\r\n    {\r\n        while (isCptExist(none_authority_issuer_current_id)) {\r\n            none_authority_issuer_current_id++;\r\n        }\r\n        cptId = none_authority_issuer_current_id++;\r\n    }\r\n\r\n    function isCptExist(\r\n        uint cptId\r\n    )\r\n    public\r\n    view\r\n    returns (bool)\r\n    {\r\n        int[8] memory intArray = getCptIntArray(cptId);\r\n        if (intArray[0] != 0) {\r\n            return true;\r\n        } else {\r\n            return false;\r\n        }\r\n    }\r\n\r\n    function getCptPublisher(\r\n        uint cptId\r\n    )\r\n    public\r\n    view\r\n    returns (address publisher)\r\n    {\r\n        Cpt memory cpt = cptMap[cptId];\r\n        publisher = cpt.publisher;\r\n    }\r\n\r\n    function getCptIntArray(\r\n        uint cptId\r\n    )\r\n    public\r\n    view\r\n    returns (int[8] memory intArray)\r\n    {\r\n        Cpt memory cpt = cptMap[cptId];\r\n        intArray = cpt.intArray;\r\n    }\r\n\r\n    function getCptJsonSchemaArray(\r\n        uint cptId\r\n    )\r\n    public\r\n    view\r\n    returns (bytes32[32] memory jsonSchemaArray)\r\n    {\r\n        Cpt memory cpt = cptMap[cptId];\r\n        jsonSchemaArray = cpt.jsonSchemaArray;\r\n    }\r\n\r\n    function getCptBytes32Array(\r\n        uint cptId\r\n    )\r\n    public\r\n    view\r\n    returns (bytes32[8] memory bytes32Array)\r\n    {\r\n        Cpt memory cpt = cptMap[cptId];\r\n        bytes32Array = cpt.bytes32Array;\r\n    }\r\n\r\n    function getCptSignature(\r\n        uint cptId\r\n    )\r\n    public\r\n    view\r\n    returns (uint8 v, bytes32 r, bytes32 s)\r\n    {\r\n        Cpt memory cpt = cptMap[cptId];\r\n        v = cpt.signature.v;\r\n        r = cpt.signature.r;\r\n        s = cpt.signature.s;\r\n    }\r\n\r\n    function getDatasetLength() public view returns (uint) {\r\n        return cptIdList.length;\r\n    }\r\n\r\n    function getCptIdFromIndex(uint index) public view returns (uint) {\r\n        return cptIdList[index];\r\n    }\r\n}\r\n",
  "sourcePath": "C:\\Users\\jxlim\\repos\\mec_anywhere\\did\\contract\\contracts\\CptContract.sol",
  "compiler": {
    "name": "solc",
    "version": "0.5.16+commit.9c3226ce.Emscripten.clang"
  },
  "schemaVersion": "3.4.12",
  "updatedAt": "2023-08-11T07:06:46.068Z",
  "devdoc": {
    "methods": {}
  },
  "userdoc": {
    "methods": {}
  }
}