{
  "contractName": "DIDContract",
  "abi": [
    {
      "inputs": [],
      "payable": false,
      "stateMutability": "nonpayable",
      "type": "constructor"
    },
    {
      "anonymous": false,
      "inputs": [
        {
          "indexed": true,
          "internalType": "address",
          "name": "identity",
          "type": "address"
        },
        {
          "indexed": false,
          "internalType": "bytes32",
          "name": "key",
          "type": "bytes32"
        },
        {
          "indexed": false,
          "internalType": "bytes",
          "name": "value",
          "type": "bytes"
        },
        {
          "indexed": false,
          "internalType": "uint256",
          "name": "previousBlock",
          "type": "uint256"
        },
        {
          "indexed": false,
          "internalType": "int256",
          "name": "updated",
          "type": "int256"
        }
      ],
      "name": "DIDAttributeChanged",
      "type": "event"
    },
    {
      "anonymous": false,
      "inputs": [
        {
          "indexed": true,
          "internalType": "address",
          "name": "identity",
          "type": "address"
        },
        {
          "indexed": false,
          "internalType": "uint256",
          "name": "previousBlock",
          "type": "uint256"
        },
        {
          "indexed": false,
          "internalType": "int256",
          "name": "created",
          "type": "int256"
        }
      ],
      "name": "DIDHistoryEvent",
      "type": "event"
    },
    {
      "constant": true,
      "inputs": [
        {
          "internalType": "address",
          "name": "identity",
          "type": "address"
        }
      ],
      "name": "getLatestRelatedBlock",
      "outputs": [
        {
          "internalType": "uint256",
          "name": "",
          "type": "uint256"
        }
      ],
      "payable": false,
      "stateMutability": "view",
      "type": "function"
    },
    {
      "constant": true,
      "inputs": [],
      "name": "getFirstBlockNum",
      "outputs": [
        {
          "internalType": "uint256",
          "name": "",
          "type": "uint256"
        }
      ],
      "payable": false,
      "stateMutability": "view",
      "type": "function"
    },
    {
      "constant": true,
      "inputs": [],
      "name": "getLatestBlockNum",
      "outputs": [
        {
          "internalType": "uint256",
          "name": "",
          "type": "uint256"
        }
      ],
      "payable": false,
      "stateMutability": "view",
      "type": "function"
    },
    {
      "constant": true,
      "inputs": [
        {
          "internalType": "uint256",
          "name": "currentBlockNum",
          "type": "uint256"
        }
      ],
      "name": "getNextBlockNumByBlockNum",
      "outputs": [
        {
          "internalType": "uint256",
          "name": "",
          "type": "uint256"
        }
      ],
      "payable": false,
      "stateMutability": "view",
      "type": "function"
    },
    {
      "constant": true,
      "inputs": [],
      "name": "getDIDCount",
      "outputs": [
        {
          "internalType": "uint256",
          "name": "",
          "type": "uint256"
        }
      ],
      "payable": false,
      "stateMutability": "view",
      "type": "function"
    },
    {
      "constant": false,
      "inputs": [
        {
          "internalType": "address",
          "name": "identity",
          "type": "address"
        },
        {
          "internalType": "bytes",
          "name": "auth",
          "type": "bytes"
        },
        {
          "internalType": "bytes",
          "name": "created",
          "type": "bytes"
        },
        {
          "internalType": "int256",
          "name": "updated",
          "type": "int256"
        }
      ],
      "name": "createDID",
      "outputs": [],
      "payable": false,
      "stateMutability": "nonpayable",
      "type": "function"
    },
    {
      "constant": false,
      "inputs": [
        {
          "internalType": "address",
          "name": "identity",
          "type": "address"
        },
        {
          "internalType": "bytes32",
          "name": "key",
          "type": "bytes32"
        },
        {
          "internalType": "bytes",
          "name": "value",
          "type": "bytes"
        },
        {
          "internalType": "int256",
          "name": "updated",
          "type": "int256"
        }
      ],
      "name": "setAttribute",
      "outputs": [],
      "payable": false,
      "stateMutability": "nonpayable",
      "type": "function"
    },
    {
      "constant": true,
      "inputs": [
        {
          "internalType": "address",
          "name": "identity",
          "type": "address"
        }
      ],
      "name": "identityExists",
      "outputs": [
        {
          "internalType": "bool",
          "name": "",
          "type": "bool"
        }
      ],
      "payable": false,
      "stateMutability": "view",
      "type": "function"
    }
  ],
  "bytecode": "0x6080604052600060035534801561001557600080fd5b504360018190556002556107a98061002e6000396000f3fe608060405234801561001057600080fd5b50600436106100a5576000357c0100000000000000000000000000000000000000000000000000000000900480638cf592d6116100785780638cf592d6146101e3578063baf80dff146101eb578063e49d8ece1461032a578063f03b7d5b14610332576100a5565b80631ba200c7146100aa5780633cf239db146100c45780634298ab94146101835780634d221b85146101a9575b600080fd5b6100b261034f565b60408051918252519081900360200190f35b610181600480360360808110156100da57600080fd5b600160a060020a038235169160208101359181019060608101604082013564010000000081111561010a57600080fd5b82018360208201111561011c57600080fd5b8035906020019184600183028401116401000000008311171561013e57600080fd5b91908080601f0160208091040260200160405190810160405280939291908181526020018383808284376000920191909152509295505091359250610355915050565b005b6100b26004803603602081101561019957600080fd5b5035600160a060020a0316610453565b6101cf600480360360208110156101bf57600080fd5b5035600160a060020a0316610472565b604080519115158252519081900360200190f35b6100b26104b8565b6101816004803603608081101561020157600080fd5b600160a060020a03823516919081019060408101602082013564010000000081111561022c57600080fd5b82018360208201111561023e57600080fd5b8035906020019184600183028401116401000000008311171561026057600080fd5b91908080601f01602080910402602001604051908101604052809392919081815260200183838082843760009201919091525092959493602081019350359150506401000000008111156102b357600080fd5b8201836020820111156102c557600080fd5b803590602001918460018302840111640100000000831117156102e757600080fd5b91908080601f01602080910402602001604051908101604052809392919081815260200183838082843760009201919091525092955050913592506104be915050565b6100b261075c565b6100b26004803603602081101561034857600080fd5b5035610762565b60015490565b83600160a060020a03167fd4cc5e0d855780794bdbe124fca8f62006ed1c8d10ca9a460114d3c5d3b138b8848460008089600160a060020a0316600160a060020a0316815260200190815260200160002054856040518085815260200180602001848152602001838152602001828103825285818151815260200191508051906020019080838360005b838110156103f75781810151838201526020016103df565b50505050905090810190601f1680156104245780820380516001836020036101000a031916815260200191505b509550505050505060405180910390a2505050600160a060020a03166000908152602081905260409020439055565b600160a060020a0381166000908152602081905260409020545b919050565b6000600160a060020a038216158015906104a35750600160a060020a03821660009081526020819052604090205415155b156104b05750600161046d565b506000919050565b60035490565b83600160a060020a03167fd4cc5e0d855780794bdbe124fca8f62006ed1c8d10ca9a460114d3c5d3b138b87f63726561746564000000000000000000000000000000000000000000000000008460008089600160a060020a0316600160a060020a0316815260200190815260200160002054856040518085815260200180602001848152602001838152602001828103825285818151815260200191508051906020019080838360005b83811015610580578181015183820152602001610568565b50505050905090810190601f1680156105ad5780820380516001836020036101000a031916815260200191505b509550505050505060405180910390a283600160a060020a03167fd4cc5e0d855780794bdbe124fca8f62006ed1c8d10ca9a460114d3c5d3b138b87f2f4449442f6175746800000000000000000000000000000000000000000000008560008089600160a060020a0316600160a060020a0316815260200190815260200160002054856040518085815260200180602001848152602001838152602001828103825285818151815260200191508051906020019080838360005b8381101561067f578181015183820152602001610667565b50505050905090810190601f1680156106ac5780820380516001836020036101000a031916815260200191505b509550505050505060405180910390a2600160a060020a0384166000908152602081905260409020439081905560025410156106f75760025460009081526004602052604090204390555b60025460408051918252602082018390528051600160a060020a038716927fac7b90e309a0b0289d7b1e6a75fb7df9b0fc1b4a65e51b90cc47d9156d876f1e92908290030190a260025443111561074d57436002555b50506003805460010190555050565b60025490565b6000908152600460205260409020549056fea265627a7a72315820bb4218c3e436401559079e3500f42ec60e3039ab883b176cbed0770d6d11b4b664736f6c63430005100032",
  "source": "pragma solidity >=0.4.22 <0.9.0;\r\n\r\ncontract DIDContract {\r\n\r\n    mapping(address => uint) changed;\r\n\r\n    uint firstBlockNum;\r\n\r\n    uint lastBlockNum;\r\n\r\n    uint didCount = 0;\r\n\r\n    mapping(uint => uint) blockAfterLink;\r\n\r\n    modifier onlyOwner(address identity, address actor) {\r\n        require (actor == identity);\r\n        _;\r\n    }\r\n\r\n    bytes32 constant private DID_KEY_CREATED = \"created\";\r\n    bytes32 constant private DID_KEY_AUTHENTICATION = \"/DID/auth\";\r\n\r\n    constructor ()\r\n        public\r\n    {\r\n        firstBlockNum = block.number;\r\n        lastBlockNum = firstBlockNum;\r\n    }\r\n\r\n    event DIDAttributeChanged(\r\n        address indexed identity,\r\n        bytes32 key,\r\n        bytes value,\r\n        uint previousBlock,\r\n        int updated\r\n    );\r\n\r\n    event DIDHistoryEvent(\r\n        address indexed identity,\r\n        uint previousBlock,\r\n        int created\r\n    );\r\n\r\n    function getLatestRelatedBlock(\r\n        address identity\r\n    )\r\n        public\r\n        view\r\n        returns (uint)\r\n    {\r\n        return changed[identity];\r\n    }\r\n\r\n    function getFirstBlockNum()\r\n        public\r\n        view\r\n        returns (uint)\r\n    {\r\n        return firstBlockNum;\r\n    }\r\n\r\n    function getLatestBlockNum()\r\n        public\r\n        view\r\n        returns (uint)\r\n    {\r\n        return lastBlockNum;\r\n    }\r\n\r\n    function getNextBlockNumByBlockNum(uint currentBlockNum)\r\n        public\r\n        view\r\n        returns (uint)\r\n    {\r\n        return blockAfterLink[currentBlockNum];\r\n    }\r\n\r\n    function getDIDCount()\r\n        public\r\n        view\r\n        returns (uint)\r\n    {\r\n        return didCount;\r\n    }\r\n\r\n    function createDID(\r\n        address identity,\r\n        bytes memory auth,\r\n        bytes memory created,\r\n        int updated\r\n    )\r\n        public\r\n//        onlyOwner(identity, msg.sender)\r\n    {\r\n        emit DIDAttributeChanged(identity, DID_KEY_CREATED, created, changed[identity], updated);\r\n        emit DIDAttributeChanged(identity, DID_KEY_AUTHENTICATION, auth, changed[identity], updated);\r\n        changed[identity] = block.number;\r\n        if (block.number > lastBlockNum) {\r\n            blockAfterLink[lastBlockNum] = block.number;\r\n        }\r\n        emit DIDHistoryEvent(identity, lastBlockNum, updated);\r\n        if (block.number > lastBlockNum) {\r\n            lastBlockNum = block.number;\r\n        }\r\n        didCount++;\r\n    }\r\n\r\n    function setAttribute(\r\n        address identity,\r\n        bytes32 key,\r\n        bytes memory value,\r\n        int updated\r\n    )\r\n        public\r\n//        onlyOwner(identity, msg.sender)\r\n    {\r\n        emit DIDAttributeChanged(identity, key, value, changed[identity], updated);\r\n        changed[identity] = block.number;\r\n    }\r\n\r\n    function identityExists(\r\n        address identity\r\n    )\r\n        public\r\n        view\r\n        returns (bool)\r\n    {\r\n        if (address(0x0) != identity && 0 != changed[identity]) {\r\n            return true;\r\n    }\r\n        return false;\r\n    }\r\n}",
  "sourcePath": "C:\\Users\\jxlim\\repos\\mec_anywhere\\did\\contract\\contracts\\DIDContract.sol",
  "compiler": {
    "name": "solc",
    "version": "0.5.16+commit.9c3226ce.Emscripten.clang"
  },
  "schemaVersion": "3.4.12",
  "updatedAt": "2023-11-01T03:52:34.520Z",
  "networkType": "ethereum",
  "devdoc": {
    "methods": {}
  },
  "userdoc": {
    "methods": {}
  }
}