{
  "contractName": "DiscoveryContract",
  "abi": [
    {
      "inputs": [
        {
          "internalType": "uint256",
          "name": "expiryDuration",
          "type": "uint256"
        }
      ],
      "stateMutability": "nonpayable",
      "type": "constructor"
    },
    {
      "inputs": [],
      "name": "EXPIRY_DURATION",
      "outputs": [
        {
          "internalType": "uint256",
          "name": "",
          "type": "uint256"
        }
      ],
      "stateMutability": "view",
      "type": "function",
      "constant": true
    },
    {
      "inputs": [
        {
          "internalType": "string",
          "name": "did",
          "type": "string"
        },
        {
          "internalType": "uint256",
          "name": "timestamp",
          "type": "uint256"
        },
        {
          "internalType": "uint256",
          "name": "latency",
          "type": "uint256"
        }
      ],
      "name": "setUser",
      "outputs": [],
      "stateMutability": "nonpayable",
      "type": "function"
    },
    {
      "inputs": [
        {
          "internalType": "uint256",
          "name": "currentTimestamp",
          "type": "uint256"
        }
      ],
      "name": "lazyRemoveExpiredUsers",
      "outputs": [],
      "stateMutability": "nonpayable",
      "type": "function"
    },
    {
      "inputs": [],
      "name": "getFirstUserQueue",
      "outputs": [
        {
          "internalType": "string",
          "name": "",
          "type": "string"
        }
      ],
      "stateMutability": "view",
      "type": "function",
      "constant": true
    },
    {
      "inputs": [],
      "name": "getUserCount",
      "outputs": [
        {
          "internalType": "uint256",
          "name": "",
          "type": "uint256"
        }
      ],
      "stateMutability": "view",
      "type": "function",
      "constant": true
    },
    {
      "inputs": [],
      "name": "getAllDidToTimestamps",
      "outputs": [
        {
          "internalType": "string[]",
          "name": "",
          "type": "string[]"
        },
        {
          "internalType": "uint256[]",
          "name": "",
          "type": "uint256[]"
        }
      ],
      "stateMutability": "view",
      "type": "function",
      "constant": true
    },
    {
      "inputs": [
        {
          "internalType": "string",
          "name": "did",
          "type": "string"
        }
      ],
      "name": "removeUser",
      "outputs": [],
      "stateMutability": "nonpayable",
      "type": "function"
    },
    {
      "inputs": [
        {
          "internalType": "string[]",
          "name": "dids",
          "type": "string[]"
        }
      ],
      "name": "removeUsers",
      "outputs": [],
      "stateMutability": "nonpayable",
      "type": "function"
    }
  ],
  "bytecode": "0x6080604052600060035534801561001557600080fd5b506040516111283803806111288339810160408190526100349161003c565b600055610055565b60006020828403121561004e57600080fd5b5051919050565b6110c4806100646000396000f3fe608060405234801561001057600080fd5b50600436106100a5576000357c010000000000000000000000000000000000000000000000000000000090048063b509e6b811610078578063b509e6b814610101578063b5cb15f714610117578063be32d5381461011f578063ebd8c4c81461013457600080fd5b80633d3eeac9146100aa5780634234347a146100c65780635e417894146100db578063600cee78146100ee575b600080fd5b6100b360005481565b6040519081526020015b60405180910390f35b6100d96100d4366004610c6f565b610147565b005b6100d96100e9366004610d42565b610248565b6100d96100fc366004610e04565b61028c565b6101096106d9565b6040516100bd929190610e9d565b6003546100b3565b6101276108ae565b6040516100bd9190610f37565b6100d9610142366004610f51565b610981565b600060035411801561018a5750600054600260008154811061016b5761016b610f9f565b906000526020600020906006020160030154826101889190610fd1565b115b15610245576100d460026000815481106101a6576101a6610f9f565b906000526020600020906006020160000180546101c290610fe8565b80601f01602080910402602001604051908101604052809291908181526020018280546101ee90610fe8565b801561023b5780601f106102105761010080835404028352916020019161023b565b820191906000526020600020905b81548152906001019060200180831161021e57829003601f168201915b505050505061028c565b50565b60005b81518110156102885761027682828151811061026957610269610f9f565b602002602001015161028c565b8061028081611026565b91505061024b565b5050565b60018160405161029c9190611041565b9081526040519081900360200190206002015460ff1661031c576040517f08c379a000000000000000000000000000000000000000000000000000000000815260206004820152601160248201527f496420646f6573206e6f74206578697374000000000000000000000000000000604482015260640160405180910390fd5b600060018260405161032e9190611041565b90815260200160405180910390206001015490506000600260016003546103559190610fd1565b8154811061036557610365610f9f565b90600052602060002090600602016040518060c001604052908160008201805461038e90610fe8565b80601f01602080910402602001604051908101604052809291908181526020018280546103ba90610fe8565b80156104075780601f106103dc57610100808354040283529160200191610407565b820191906000526020600020905b8154815290600101906020018083116103ea57829003601f168201915b505050918352505060018201546020820152600282015460ff1615156040820152600382015460608201526004820154608082015260058201805460a09092019161045190610fe8565b80601f016020809104026020016040519081016040528092919081815260200182805461047d90610fe8565b80156104ca5780601f1061049f576101008083540402835291602001916104ca565b820191906000526020600020905b8154815290600101906020018083116104ad57829003601f168201915b5050509190925250505060208101839052805160405191925082916001916104f191611041565b9081526020016040518091039020600082015181600001908051906020019061051b929190610ba0565b506020828101516001830155604083015160028301805460ff1916911515919091179055606083015160038301556080830151600483015560a0830151805161056a9260058501920190610ba0565b50905050806002838154811061058257610582610f9f565b906000526020600020906006020160008201518160000190805190602001906105ac929190610ba0565b506020828101516001830155604083015160028301805460ff1916911515919091179055606083015160038301556080830151600483015560a083015180516105fb9260058501920190610ba0565b505060035461060d9150600190610fd1565b60035560028054806106215761062161105d565b600082815260208120600019909201916006830201906106418282610c24565b60006001830181905560028301805460ff191690556003830181905560048301819055610672906005840190610c24565b505090556001836040516106869190611041565b90815260405190819003602001902060006106a18282610c24565b60006001830181905560028301805460ff1916905560038301819055600483018190556106d2906005840190610c24565b5050505050565b606080600060035467ffffffffffffffff8111156106f9576106f9610c88565b604051908082528060200260200182016040528015610722578160200160208202803683370190505b509050600060035467ffffffffffffffff81111561074257610742610c88565b60405190808252806020026020018201604052801561077557816020015b60608152602001906001900390816107605790505b50905060005b6003548110156108a5576002818154811061079857610798610f9f565b9060005260206000209060060201600301548382815181106107bc576107bc610f9f565b602002602001018181525050600281815481106107db576107db610f9f565b906000526020600020906006020160000180546107f790610fe8565b80601f016020809104026020016040519081016040528092919081815260200182805461082390610fe8565b80156108705780601f1061084557610100808354040283529160200191610870565b820191906000526020600020905b81548152906001019060200180831161085357829003601f168201915b505050505082828151811061088757610887610f9f565b6020026020010181905250808061089d90611026565b91505061077b565b50939092509050565b6060600354600014156108ce575060408051602081019091526000815290565b60026000815481106108e2576108e2610f9f565b906000526020600020906006020160050180546108fe90610fe8565b80601f016020809104026020016040519081016040528092919081815260200182805461092a90610fe8565b80156109775780601f1061094c57610100808354040283529160200191610977565b820191906000526020600020905b81548152906001019060200180831161095a57829003601f168201915b5050505050905090565b6001836040516109919190611041565b9081526040519081900360200190206002015460ff1615610a2a5760006001846040516109be9190611041565b908152602001604051809103902060010154905082600282815481106109e6576109e6610f9f565b9060005260206000209060060201600301819055508160028281548110610a0f57610a0f610f9f565b90600052602060002090600602016004018190555050505050565b6040805160c0810182528481526003546020808301919091526001928201839052606082018590526080820184905260a08201869052600280549384018155600052815180519293849360069091027f405787fa12a823e0f2b7631cc41b3ba8828b3321ca811111fa75cd3aa3bb5ace0192610aaa928492910190610ba0565b506020828101516001830155604083015160028301805460ff1916911515919091179055606083015160038301556080830151600483015560a08301518051610af99260058501920190610ba0565b50505080600185604051610b0d9190611041565b90815260200160405180910390206000820151816000019080519060200190610b37929190610ba0565b506020828101516001830155604083015160028301805460ff1916911515919091179055606083015160038301556080830151600483015560a08301518051610b869260058501920190610ba0565b5050600354610b9791506001611076565b60035550505050565b828054610bac90610fe8565b90600052602060002090601f016020900481019282610bce5760008555610c14565b82601f10610be757805160ff1916838001178555610c14565b82800160010185558215610c14579182015b82811115610c14578251825591602001919060010190610bf9565b50610c20929150610c5a565b5090565b508054610c3090610fe8565b6000825580601f10610c40575050565b601f01602090049060005260206000209081019061024591905b5b80821115610c205760008155600101610c5b565b600060208284031215610c8157600080fd5b5035919050565b60e060020a634e487b7102600052604160045260246000fd5b604051601f8201601f1916810167ffffffffffffffff81118282101715610cca57610cca610c88565b604052919050565b600082601f830112610ce357600080fd5b813567ffffffffffffffff811115610cfd57610cfd610c88565b610d10601f8201601f1916602001610ca1565b818152846020838601011115610d2557600080fd5b816020850160208301376000918101602001919091529392505050565b60006020808385031215610d5557600080fd5b823567ffffffffffffffff80821115610d6d57600080fd5b818501915085601f830112610d8157600080fd5b813581811115610d9357610d93610c88565b838102610da1858201610ca1565b9182528381018501918581019089841115610dbb57600080fd5b86860192505b83831015610df757823585811115610dd95760008081fd5b610de78b89838a0101610cd2565b8352509186019190860190610dc1565b9998505050505050505050565b600060208284031215610e1657600080fd5b813567ffffffffffffffff811115610e2d57600080fd5b610e3984828501610cd2565b949350505050565b60005b83811015610e5c578181015183820152602001610e44565b83811115610e6b576000848401525b50505050565b60008151808452610e89816020860160208601610e41565b601f01601f19169290920160200192915050565b6000604082016040835280855180835260608501915060209250606083820286010183880160005b83811015610ef357605f19888403018552610ee1838351610e71565b94860194925090850190600101610ec5565b50508581038487015286518082529084019250905085830160005b82811015610f2a57815184529284019290840190600101610f0e565b5091979650505050505050565b602081526000610f4a6020830184610e71565b9392505050565b600080600060608486031215610f6657600080fd5b833567ffffffffffffffff811115610f7d57600080fd5b610f8986828701610cd2565b9660208601359650604090950135949350505050565b60e060020a634e487b7102600052603260045260246000fd5b60e060020a634e487b7102600052601160045260246000fd5b600082821015610fe357610fe3610fb8565b500390565b600281046001821680610ffc57607f821691505b602082108114156110205760e060020a634e487b7102600052602260045260246000fd5b50919050565b600060001982141561103a5761103a610fb8565b5060010190565b60008251611053818460208701610e41565b9190910192915050565b60e060020a634e487b7102600052603160045260246000fd5b6000821982111561108957611089610fb8565b50019056fea2646970667358221220835e55ad1c236456bebcb622e044dea1118d069c1eeeb22aec7e3c602cfb5e2f64736f6c634300080a0033",
  "immutableReferences": {},
  "source": "// SPDX-License-Identifier: MIT\r\npragma solidity >=0.4.22 <0.9.0;\r\n\r\npragma experimental ABIEncoderV2;\r\n\r\ncontract DiscoveryContract {\r\n    uint256 public EXPIRY_DURATION;\r\n\r\n    struct User {\r\n        string did;\r\n        uint256 index;\r\n        bool isUser;\r\n        uint256 timestamp;\r\n        uint256 latency;\r\n        string queue;\r\n    }\r\n\r\n    mapping(string => User) private didToUser;\r\n    User[] private users;\r\n    uint256 private userCount = 0;\r\n\r\n    constructor(uint256 expiryDuration) {\r\n        EXPIRY_DURATION = expiryDuration;\r\n    }\r\n\r\n    function setUser(string memory did, uint256 timestamp, uint256 latency) public {\r\n        if (didToUser[did].isUser) {\r\n            uint256 index = didToUser[did].index;\r\n            users[index].timestamp = timestamp;\r\n            users[index].latency = latency;\r\n            return;\r\n        }\r\n        User memory newUser = User(did, userCount, true, timestamp, latency, did);\r\n        users.push(newUser);\r\n        didToUser[did] = newUser;\r\n        userCount = userCount + 1;\r\n    }\r\n\r\n    function lazyRemoveExpiredUsers(uint256 currentTimestamp) public {\r\n        while (userCount > 0 && currentTimestamp - users[0].timestamp > EXPIRY_DURATION) {\r\n            removeUser(users[0].did);\r\n        }\r\n    }\r\n\r\n    function getFirstUserQueue() public view returns (string memory) {\r\n        if (userCount == 0) {\r\n            return \"\";\r\n        }\r\n        return users[0].queue;\r\n    }\r\n\r\n    function getUserCount() public view returns (uint256) {\r\n        return userCount;\r\n    }\r\n\r\n    function getAllDidToTimestamps()\r\n        public\r\n        view\r\n        returns (string[] memory, uint256[] memory)\r\n    {\r\n        uint256[] memory timestamps = new uint256[](userCount);\r\n        string[] memory dids = new string[](userCount);\r\n        for (uint i = 0; i < userCount; i++) {\r\n            timestamps[i] = users[i].timestamp;\r\n            dids[i] = users[i].did;\r\n        }\r\n        return (dids, timestamps);\r\n    }\r\n\r\n    function removeUser(string memory did) public {\r\n        require(didToUser[did].isUser, \"Id does not exist\");\r\n        uint256 indexToRemove = didToUser[did].index;\r\n        User memory lastUser = users[userCount - 1];\r\n        lastUser.index = indexToRemove;\r\n        didToUser[lastUser.did] = lastUser;\r\n        users[indexToRemove] = lastUser;\r\n        userCount = userCount - 1;\r\n        users.pop();\r\n        delete didToUser[did];\r\n    }\r\n\r\n    function removeUsers(string[] memory dids) public {\r\n        for (uint256 i = 0; i < dids.length; i++) {\r\n            removeUser(dids[i]);\r\n        }\r\n    }\r\n}\r\n",
  "sourcePath": "C:\\Users\\jxlim\\repos\\mec_anywhere\\full_node\\contract\\contracts\\DiscoveryContract.sol",
  "compiler": {
    "name": "solc",
    "version": "0.8.10+commit.fc410830.Emscripten.clang"
  },
  "schemaVersion": "3.4.12",
  "updatedAt": "2023-08-07T03:58:19.773Z",
  "networkType": "ethereum",
  "devdoc": {
    "kind": "dev",
    "methods": {},
    "version": 1
  },
  "userdoc": {
    "kind": "user",
    "methods": {},
    "version": 1
  }
}