{
  "contractName": "DiscoveryContract",
  "abi": [
    {
      "inputs": [
        {
          "internalType": "uint256",
          "name": "expiryDuration",
          "type": "uint256"
        }
      ],
      "stateMutability": "nonpayable",
      "type": "constructor"
    },
    {
      "inputs": [],
      "name": "EXPIRY_DURATION",
      "outputs": [
        {
          "internalType": "uint256",
          "name": "",
          "type": "uint256"
        }
      ],
      "stateMutability": "view",
      "type": "function",
      "constant": true
    },
    {
      "inputs": [
        {
          "internalType": "string",
          "name": "did",
          "type": "string"
        },
        {
          "internalType": "string",
          "name": "poDid",
          "type": "string"
        },
        {
          "internalType": "uint256",
          "name": "timestamp",
          "type": "uint256"
        },
        {
          "internalType": "uint256",
          "name": "cpu",
          "type": "uint256"
        },
        {
          "internalType": "uint256",
          "name": "mem",
          "type": "uint256"
        }
      ],
      "name": "setUser",
      "outputs": [],
      "stateMutability": "nonpayable",
      "type": "function"
    },
    {
      "inputs": [
        {
          "internalType": "string",
          "name": "did",
          "type": "string"
        },
        {
          "internalType": "uint256",
          "name": "timestamp",
          "type": "uint256"
        }
      ],
      "name": "updateTimestamp",
      "outputs": [],
      "stateMutability": "nonpayable",
      "type": "function"
    },
    {
      "inputs": [
        {
          "internalType": "uint256",
          "name": "currentTimestamp",
          "type": "uint256"
        }
      ],
      "name": "lazyRemoveExpiredUsers",
      "outputs": [],
      "stateMutability": "nonpayable",
      "type": "function"
    },
    {
      "inputs": [
        {
          "internalType": "string",
          "name": "did",
          "type": "string"
        }
      ],
      "name": "getUser",
      "outputs": [
        {
          "components": [
            {
              "internalType": "string",
              "name": "did",
              "type": "string"
            },
            {
              "internalType": "string",
              "name": "poDid",
              "type": "string"
            },
            {
              "internalType": "uint256",
              "name": "index",
              "type": "uint256"
            },
            {
              "internalType": "bool",
              "name": "isUser",
              "type": "bool"
            },
            {
              "internalType": "uint256",
              "name": "timestamp",
              "type": "uint256"
            },
            {
              "internalType": "uint256",
              "name": "cpu",
              "type": "uint256"
            },
            {
              "internalType": "uint256",
              "name": "mem",
              "type": "uint256"
            },
            {
              "internalType": "string",
              "name": "queue",
              "type": "string"
            }
          ],
          "internalType": "struct DiscoveryContract.User",
          "name": "",
          "type": "tuple"
        }
      ],
      "stateMutability": "view",
      "type": "function",
      "constant": true
    },
    {
      "inputs": [
        {
          "internalType": "uint256",
          "name": "cpu",
          "type": "uint256"
        },
        {
          "internalType": "uint256",
          "name": "mem",
          "type": "uint256"
        }
      ],
      "name": "getAvailableUser",
      "outputs": [
        {
          "components": [
            {
              "internalType": "string",
              "name": "did",
              "type": "string"
            },
            {
              "internalType": "string",
              "name": "poDid",
              "type": "string"
            },
            {
              "internalType": "uint256",
              "name": "index",
              "type": "uint256"
            },
            {
              "internalType": "bool",
              "name": "isUser",
              "type": "bool"
            },
            {
              "internalType": "uint256",
              "name": "timestamp",
              "type": "uint256"
            },
            {
              "internalType": "uint256",
              "name": "cpu",
              "type": "uint256"
            },
            {
              "internalType": "uint256",
              "name": "mem",
              "type": "uint256"
            },
            {
              "internalType": "string",
              "name": "queue",
              "type": "string"
            }
          ],
          "internalType": "struct DiscoveryContract.User",
          "name": "",
          "type": "tuple"
        }
      ],
      "stateMutability": "view",
      "type": "function",
      "constant": true
    },
    {
      "inputs": [],
      "name": "getUserCount",
      "outputs": [
        {
          "internalType": "uint256",
          "name": "",
          "type": "uint256"
        }
      ],
      "stateMutability": "view",
      "type": "function",
      "constant": true
    },
    {
      "inputs": [],
      "name": "getAllDidToTimestamps",
      "outputs": [
        {
          "internalType": "string[]",
          "name": "",
          "type": "string[]"
        },
        {
          "internalType": "uint256[]",
          "name": "",
          "type": "uint256[]"
        }
      ],
      "stateMutability": "view",
      "type": "function",
      "constant": true
    },
    {
      "inputs": [
        {
          "internalType": "string",
          "name": "did",
          "type": "string"
        }
      ],
      "name": "removeUser",
      "outputs": [],
      "stateMutability": "nonpayable",
      "type": "function"
    },
    {
      "inputs": [
        {
          "internalType": "string[]",
          "name": "dids",
          "type": "string[]"
        }
      ],
      "name": "removeUsers",
      "outputs": [],
      "stateMutability": "nonpayable",
      "type": "function"
    },
    {
      "inputs": [
        {
          "internalType": "string",
          "name": "did",
          "type": "string"
        },
        {
          "internalType": "uint256",
          "name": "cpu",
          "type": "uint256"
        },
        {
          "internalType": "uint256",
          "name": "mem",
          "type": "uint256"
        }
      ],
      "name": "addResource",
      "outputs": [],
      "stateMutability": "nonpayable",
      "type": "function"
    },
    {
      "inputs": [
        {
          "internalType": "string",
          "name": "did",
          "type": "string"
        },
        {
          "internalType": "uint256",
          "name": "cpu",
          "type": "uint256"
        },
        {
          "internalType": "uint256",
          "name": "mem",
          "type": "uint256"
        }
      ],
      "name": "subtractResource",
      "outputs": [],
      "stateMutability": "nonpayable",
      "type": "function"
    }
  ],
  "bytecode": "0x6080604052600060035534801561001557600080fd5b5060405162002760380380620027608339810160408190526100369161003e565b600055610057565b60006020828403121561005057600080fd5b5051919050565b6126f980620000676000396000f3fe608060405234801561001057600080fd5b50600436106100d1576000357c010000000000000000000000000000000000000000000000000000000090048063600cee781161008e578063600cee78146101645780636ab9c20814610177578063b509e6b81461018a578063b5cb15f7146101a0578063ca9eb76d146101a8578063f5f9849c146101bb57600080fd5b80630ebc6c94146100d657806331feb671146100eb5780633d3eeac9146101145780634234347a1461012b5780635ce284341461013e5780635e41789414610151575b600080fd5b6100e96100e43660046121ba565b6101ce565b005b6100fe6100f9366004612208565b6105db565b60405161010b91906122a1565b60405180910390f35b61011d60005481565b60405190815260200161010b565b6100e9610139366004612342565b610893565b6100e961014c36600461235b565b610994565b6100e961015f3660046123da565b610f48565b6100e9610172366004612208565b610f8c565b6100e961018536600461249c565b61149a565b61019261187b565b60405161010b9291906124e1565b60035461011d565b6100fe6101b636600461257b565b611a50565b6100e96101c93660046121ba565b611d61565b6001836040516101de919061259d565b9081526040519081900360200190206003015460ff1661021c5760405160e560020a62461bcd028152600401610213906125b9565b60405180910390fd5b600060018460405161022e919061259d565b908152602001604051809103902060405180610100016040529081600082018054610258906125f0565b80601f0160208091040260200160405190810160405280929190818152602001828054610284906125f0565b80156102d15780601f106102a6576101008083540402835291602001916102d1565b820191906000526020600020905b8154815290600101906020018083116102b457829003601f168201915b505050505081526020016001820180546102ea906125f0565b80601f0160208091040260200160405190810160405280929190818152602001828054610316906125f0565b80156103635780601f1061033857610100808354040283529160200191610363565b820191906000526020600020905b81548152906001019060200180831161034657829003601f168201915b505050918352505060028201546020820152600382015460ff16151560408201526004820154606082015260058201546080820152600682015460a082015260078201805460c0909201916103b7906125f0565b80601f01602080910402602001604051908101604052809291908181526020018280546103e3906125f0565b80156104305780601f1061040557610100808354040283529160200191610430565b820191906000526020600020905b81548152906001019060200180831161041357829003601f168201915b5050505050815250509050828160a0015161044b9190612647565b60a082015260c0810151610460908390612647565b60c0820152604081015160028054839290811061047f5761047f61265e565b906000526020600020906008020160008201518160000190805190602001906104a9929190611fea565b5060208281015180516104c29260018501920190611fea565b5060408201516002820155606082015160038201805460ff19169115159190911790556080820151600482015560a0820151600582015560c0820151600682015560e0820151805161051e916007840191602090910190611fea565b5090505080600185604051610533919061259d565b9081526020016040518091039020600082015181600001908051906020019061055d929190611fea565b5060208281015180516105769260018501920190611fea565b5060408201516002820155606082015160038201805460ff19169115159190911790556080820151600482015560a0820151600582015560c0820151600682015560e082015180516105d2916007840191602090910190611fea565b50505050505050565b6105e361206e565b6001826040516105f3919061259d565b9081526040519081900360200190206003015460ff16156108305760018260405161061e919061259d565b908152602001604051809103902060405180610100016040529081600082018054610648906125f0565b80601f0160208091040260200160405190810160405280929190818152602001828054610674906125f0565b80156106c15780601f10610696576101008083540402835291602001916106c1565b820191906000526020600020905b8154815290600101906020018083116106a457829003601f168201915b505050505081526020016001820180546106da906125f0565b80601f0160208091040260200160405190810160405280929190818152602001828054610706906125f0565b80156107535780601f1061072857610100808354040283529160200191610753565b820191906000526020600020905b81548152906001019060200180831161073657829003601f168201915b505050918352505060028201546020820152600382015460ff16151560408201526004820154606082015260058201546080820152600682015460a082015260078201805460c0909201916107a7906125f0565b80601f01602080910402602001604051908101604052809291908181526020018280546107d3906125f0565b80156108205780601f106107f557610100808354040283529160200191610820565b820191906000526020600020905b81548152906001019060200180831161080357829003601f168201915b5050505050815250509050919050565b5050604080516101208101825260006101008201818152825282516020818101855282825280840191909152828401829052606083018290526080830182905260a0830182905260c083018290528351908101909352825260e081019190915290565b60006003541180156108d6575060005460026000815481106108b7576108b761265e565b906000526020600020906008020160040154826108d49190612647565b115b156109915761013960026000815481106108f2576108f261265e565b9060005260206000209060080201600001805461090e906125f0565b80601f016020809104026020016040519081016040528092919081815260200182805461093a906125f0565b80156109875780601f1061095c57610100808354040283529160200191610987565b820191906000526020600020905b81548152906001019060200180831161096a57829003601f168201915b5050505050610f8c565b50565b6001856040516109a4919061259d565b9081526040519081900360200190206003015460ff1615610d755760006001866040516109d1919061259d565b9081526020016040518091039020604051806101000160405290816000820180546109fb906125f0565b80601f0160208091040260200160405190810160405280929190818152602001828054610a27906125f0565b8015610a745780601f10610a4957610100808354040283529160200191610a74565b820191906000526020600020905b815481529060010190602001808311610a5757829003601f168201915b50505050508152602001600182018054610a8d906125f0565b80601f0160208091040260200160405190810160405280929190818152602001828054610ab9906125f0565b8015610b065780601f10610adb57610100808354040283529160200191610b06565b820191906000526020600020905b815481529060010190602001808311610ae957829003601f168201915b505050918352505060028201546020820152600382015460ff16151560408201526004820154606082015260058201546080820152600682015460a082015260078201805460c090920191610b5a906125f0565b80601f0160208091040260200160405190810160405280929190818152602001828054610b86906125f0565b8015610bd35780601f10610ba857610100808354040283529160200191610bd3565b820191906000526020600020905b815481529060010190602001808311610bb657829003601f168201915b50505091909252505050602081018690526080810185905260a0810184905260c0810183905260408101516002805492935083929091908110610c1857610c1861265e565b90600052602060002090600802016000820151816000019080519060200190610c42929190611fea565b506020828101518051610c5b9260018501920190611fea565b5060408201516002820155606082015160038201805460ff19169115159190911790556080820151600482015560a0820151600582015560c0820151600682015560e08201518051610cb7916007840191602090910190611fea565b5090505080600187604051610ccc919061259d565b90815260200160405180910390206000820151816000019080519060200190610cf6929190611fea565b506020828101518051610d0f9260018501920190611fea565b5060408201516002820155606082015160038201805460ff19169115159190911790556080820151600482015560a0820151600582015560c0820151600682015560e08201518051610d6b916007840191602090910190611fea565b5090505050610f41565b60408051610100810182528681526020808201879052600354928201929092526001606082018190526080820186905260a0820185905260c0820184905260e08201889052600280549182018155600052815180519293849360089093027f405787fa12a823e0f2b7631cc41b3ba8828b3321ca811111fa75cd3aa3bb5ace0192610e039284920190611fea565b506020828101518051610e1c9260018501920190611fea565b5060408201516002820155606082015160038201805460ff19169115159190911790556080820151600482015560a0820151600582015560c0820151600682015560e08201518051610e78916007840191602090910190611fea565b50505080600187604051610e8c919061259d565b90815260200160405180910390206000820151816000019080519060200190610eb6929190611fea565b506020828101518051610ecf9260018501920190611fea565b5060408201516002820155606082015160038201805460ff19169115159190911790556080820151600482015560a0820151600582015560c0820151600682015560e08201518051610f2b916007840191602090910190611fea565b5050600354610f3c91506001612677565b600355505b5050505050565b60005b8151811015610f8857610f76828281518110610f6957610f6961265e565b6020026020010151610f8c565b80610f808161268f565b915050610f4b565b5050565b600181604051610f9c919061259d565b9081526040519081900360200190206003015460ff16610fd15760405160e560020a62461bcd028152600401610213906125b9565b6000600182604051610fe3919061259d565b908152602001604051809103902060020154905060006002600160035461100a9190612647565b8154811061101a5761101a61265e565b906000526020600020906008020160405180610100016040529081600082018054611044906125f0565b80601f0160208091040260200160405190810160405280929190818152602001828054611070906125f0565b80156110bd5780601f10611092576101008083540402835291602001916110bd565b820191906000526020600020905b8154815290600101906020018083116110a057829003601f168201915b505050505081526020016001820180546110d6906125f0565b80601f0160208091040260200160405190810160405280929190818152602001828054611102906125f0565b801561114f5780601f106111245761010080835404028352916020019161114f565b820191906000526020600020905b81548152906001019060200180831161113257829003601f168201915b505050918352505060028201546020820152600382015460ff16151560408201526004820154606082015260058201546080820152600682015460a082015260078201805460c0909201916111a3906125f0565b80601f01602080910402602001604051908101604052809291908181526020018280546111cf906125f0565b801561121c5780601f106111f15761010080835404028352916020019161121c565b820191906000526020600020905b8154815290600101906020018083116111ff57829003601f168201915b5050509190925250505060408082018490528151905191925082916001916112439161259d565b9081526020016040518091039020600082015181600001908051906020019061126d929190611fea565b5060208281015180516112869260018501920190611fea565b5060408201516002820155606082015160038201805460ff19169115159190911790556080820151600482015560a0820151600582015560c0820151600682015560e082015180516112e2916007840191602090910190611fea565b5090505080600283815481106112fa576112fa61265e565b90600052602060002090600802016000820151816000019080519060200190611324929190611fea565b50602082810151805161133d9260018501920190611fea565b5060408201516002820155606082015160038201805460ff19169115159190911790556080820151600482015560a0820151600582015560c0820151600682015560e08201518051611399916007840191602090910190611fea565b50506003546113ab9150600190612647565b60035560028054806113bf576113bf6126aa565b600082815260208120600019909201916008830201906113df82826120b5565b6113ed6001830160006120b5565b60006002830181905560038301805460ff191690556004830181905560058301819055600683018190556114259060078401906120b5565b50509055600183604051611439919061259d565b908152604051908190036020019020600061145482826120b5565b6114626001830160006120b5565b60006002830181905560038301805460ff19169055600483018190556005830181905560068301819055610f419060078401906120b5565b6001826040516114aa919061259d565b9081526040519081900360200190206003015460ff166114df5760405160e560020a62461bcd028152600401610213906125b9565b60006001836040516114f1919061259d565b90815260200160405180910390206040518061010001604052908160008201805461151b906125f0565b80601f0160208091040260200160405190810160405280929190818152602001828054611547906125f0565b80156115945780601f1061156957610100808354040283529160200191611594565b820191906000526020600020905b81548152906001019060200180831161157757829003601f168201915b505050505081526020016001820180546115ad906125f0565b80601f01602080910402602001604051908101604052809291908181526020018280546115d9906125f0565b80156116265780601f106115fb57610100808354040283529160200191611626565b820191906000526020600020905b81548152906001019060200180831161160957829003601f168201915b505050918352505060028201546020820152600382015460ff16151560408201526004820154606082015260058201546080820152600682015460a082015260078201805460c09092019161167a906125f0565b80601f01602080910402602001604051908101604052809291908181526020018280546116a6906125f0565b80156116f35780601f106116c8576101008083540402835291602001916116f3565b820191906000526020600020905b8154815290600101906020018083116116d657829003601f168201915b5050505050815250509050818160800181815250508060028260400151815481106117205761172061265e565b9060005260206000209060080201600082015181600001908051906020019061174a929190611fea565b5060208281015180516117639260018501920190611fea565b5060408201516002820155606082015160038201805460ff19169115159190911790556080820151600482015560a0820151600582015560c0820151600682015560e082015180516117bf916007840191602090910190611fea565b50905050806001846040516117d4919061259d565b908152602001604051809103902060008201518160000190805190602001906117fe929190611fea565b5060208281015180516118179260018501920190611fea565b5060408201516002820155606082015160038201805460ff19169115159190911790556080820151600482015560a0820151600582015560c0820151600682015560e08201518051611873916007840191602090910190611fea565b505050505050565b606080600060035467ffffffffffffffff81111561189b5761189b612100565b6040519080825280602002602001820160405280156118c4578160200160208202803683370190505b509050600060035467ffffffffffffffff8111156118e4576118e4612100565b60405190808252806020026020018201604052801561191757816020015b60608152602001906001900390816119025790505b50905060005b600354811015611a47576002818154811061193a5761193a61265e565b90600052602060002090600802016004015483828151811061195e5761195e61265e565b6020026020010181815250506002818154811061197d5761197d61265e565b90600052602060002090600802016000018054611999906125f0565b80601f01602080910402602001604051908101604052809291908181526020018280546119c5906125f0565b8015611a125780601f106119e757610100808354040283529160200191611a12565b820191906000526020600020905b8154815290600101906020018083116119f557829003601f168201915b5050505050828281518110611a2957611a2961265e565b60200260200101819052508080611a3f9061268f565b91505061191d565b50939092509050565b611a5861206e565b60005b600354811015611cfa578360028281548110611a7957611a7961265e565b90600052602060002090600802016005015410158015611abd57508260028281548110611aa857611aa861265e565b90600052602060002090600802016006015410155b15611ce85760028181548110611ad557611ad561265e565b906000526020600020906008020160405180610100016040529081600082018054611aff906125f0565b80601f0160208091040260200160405190810160405280929190818152602001828054611b2b906125f0565b8015611b785780601f10611b4d57610100808354040283529160200191611b78565b820191906000526020600020905b815481529060010190602001808311611b5b57829003601f168201915b50505050508152602001600182018054611b91906125f0565b80601f0160208091040260200160405190810160405280929190818152602001828054611bbd906125f0565b8015611c0a5780601f10611bdf57610100808354040283529160200191611c0a565b820191906000526020600020905b815481529060010190602001808311611bed57829003601f168201915b505050918352505060028201546020820152600382015460ff16151560408201526004820154606082015260058201546080820152600682015460a082015260078201805460c090920191611c5e906125f0565b80601f0160208091040260200160405190810160405280929190818152602001828054611c8a906125f0565b8015611cd75780601f10611cac57610100808354040283529160200191611cd7565b820191906000526020600020905b815481529060010190602001808311611cba57829003601f168201915b505050505081525050915050611d5b565b80611cf28161268f565b915050611a5b565b5050604080516101208101825260006101008201818152825282516020818101855282825280840191909152828401829052606083018290526080830182905260a0830182905260c083018290528351908101909352825260e08101919091525b92915050565b600183604051611d71919061259d565b9081526040519081900360200190206003015460ff16611da65760405160e560020a62461bcd028152600401610213906125b9565b6000600184604051611db8919061259d565b908152602001604051809103902060405180610100016040529081600082018054611de2906125f0565b80601f0160208091040260200160405190810160405280929190818152602001828054611e0e906125f0565b8015611e5b5780601f10611e3057610100808354040283529160200191611e5b565b820191906000526020600020905b815481529060010190602001808311611e3e57829003601f168201915b50505050508152602001600182018054611e74906125f0565b80601f0160208091040260200160405190810160405280929190818152602001828054611ea0906125f0565b8015611eed5780601f10611ec257610100808354040283529160200191611eed565b820191906000526020600020905b815481529060010190602001808311611ed057829003601f168201915b505050918352505060028201546020820152600382015460ff16151560408201526004820154606082015260058201546080820152600682015460a082015260078201805460c090920191611f41906125f0565b80601f0160208091040260200160405190810160405280929190818152602001828054611f6d906125f0565b8015611fba5780601f10611f8f57610100808354040283529160200191611fba565b820191906000526020600020905b815481529060010190602001808311611f9d57829003601f168201915b5050505050815250509050828160a00151611fd59190612677565b60a082015260c0810151610460908390612677565b828054611ff6906125f0565b90600052602060002090601f016020900481019282612018576000855561205e565b82601f1061203157805160ff191683800117855561205e565b8280016001018555821561205e579182015b8281111561205e578251825591602001919060010190612043565b5061206a9291506120eb565b5090565b604051806101000160405280606081526020016060815260200160008152602001600015158152602001600081526020016000815260200160008152602001606081525090565b5080546120c1906125f0565b6000825580601f106120d1575050565b601f01602090049060005260206000209081019061099191905b5b8082111561206a57600081556001016120ec565b60e060020a634e487b7102600052604160045260246000fd5b604051601f8201601f1916810167ffffffffffffffff8111828210171561214257612142612100565b604052919050565b600082601f83011261215b57600080fd5b813567ffffffffffffffff81111561217557612175612100565b612188601f8201601f1916602001612119565b81815284602083860101111561219d57600080fd5b816020850160208301376000918101602001919091529392505050565b6000806000606084860312156121cf57600080fd5b833567ffffffffffffffff8111156121e657600080fd5b6121f28682870161214a565b9660208601359650604090950135949350505050565b60006020828403121561221a57600080fd5b813567ffffffffffffffff81111561223157600080fd5b61223d8482850161214a565b949350505050565b60005b83811015612260578181015183820152602001612248565b8381111561226f576000848401525b50505050565b6000815180845261228d816020860160208601612245565b601f01601f19169290920160200192915050565b60208152600082516101008060208501526122c0610120850183612275565b91506020850151601f19808685030160408701526122de8483612275565b935060408701516060870152606087015191506122ff608087018315159052565b608087015160a087015260a087015160c087015260c087015160e087015260e08701519150808685030183870152506123388382612275565b9695505050505050565b60006020828403121561235457600080fd5b5035919050565b600080600080600060a0868803121561237357600080fd5b853567ffffffffffffffff8082111561238b57600080fd5b61239789838a0161214a565b965060208801359150808211156123ad57600080fd5b506123ba8882890161214a565b959895975050505060408401359360608101359360809091013592509050565b600060208083850312156123ed57600080fd5b823567ffffffffffffffff8082111561240557600080fd5b818501915085601f83011261241957600080fd5b81358181111561242b5761242b612100565b838102612439858201612119565b918252838101850191858101908984111561245357600080fd5b86860192505b8383101561248f578235858111156124715760008081fd5b61247f8b89838a010161214a565b8352509186019190860190612459565b9998505050505050505050565b600080604083850312156124af57600080fd5b823567ffffffffffffffff8111156124c657600080fd5b6124d28582860161214a565b95602094909401359450505050565b6000604082016040835280855180835260608501915060209250606083820286010183880160005b8381101561253757605f19888403018552612525838351612275565b94860194925090850190600101612509565b50508581038487015286518082529084019250905085830160005b8281101561256e57815184529284019290840190600101612552565b5091979650505050505050565b6000806040838503121561258e57600080fd5b50508035926020909101359150565b600082516125af818460208701612245565b9190910192915050565b60208082526011908201527f496420646f6573206e6f74206578697374000000000000000000000000000000604082015260600190565b60028104600182168061260457607f821691505b602082108114156126285760e060020a634e487b7102600052602260045260246000fd5b50919050565b60e060020a634e487b7102600052601160045260246000fd5b6000828210156126595761265961262e565b500390565b60e060020a634e487b7102600052603260045260246000fd5b6000821982111561268a5761268a61262e565b500190565b60006000198214156126a3576126a361262e565b5060010190565b60e060020a634e487b7102600052603160045260246000fdfea26469706673582212200c86a402705bbe4a6c5a67d27db56874fd88d56a0105b0895494b05848f6885b64736f6c634300080a0033",
  "immutableReferences": {},
  "source": "// SPDX-License-Identifier: MIT\r\npragma solidity >=0.4.22 <0.9.0;\r\n\r\npragma experimental ABIEncoderV2;\r\n\r\ncontract DiscoveryContract {\r\n    uint256 public EXPIRY_DURATION;\r\n\r\n    struct User {\r\n        string did;\r\n        string poDid;\r\n        uint256 index;\r\n        bool isUser;\r\n        uint256 timestamp;\r\n\r\n        uint256 cpu;\r\n        uint256 mem;\r\n\r\n        string queue;\r\n    }\r\n\r\n    mapping(string => User) private didToUser;\r\n    User[] private users;\r\n    uint256 private userCount = 0;\r\n\r\n    constructor(uint256 expiryDuration) {\r\n        EXPIRY_DURATION = expiryDuration;\r\n    }\r\n\r\n    function setUser(string memory did, string memory poDid, uint256 timestamp, uint256 cpu, uint256 mem) public {\r\n        if (didToUser[did].isUser) {\r\n            User memory user = didToUser[did];\r\n            user.poDid = poDid;\r\n            user.timestamp = timestamp;\r\n            user.cpu = cpu;\r\n            user.mem = mem;\r\n            users[user.index] = user;\r\n            didToUser[did] = user;\r\n            return;\r\n        }\r\n        User memory newUser = User(did, poDid, userCount, true, timestamp, cpu, mem, did);\r\n        users.push(newUser);\r\n        didToUser[did] = newUser;\r\n        userCount = userCount + 1;\r\n    }\r\n\r\n    function updateTimestamp(string memory did, uint256 timestamp) public {\r\n        require(didToUser[did].isUser, \"Id does not exist\");\r\n        User memory user = didToUser[did];\r\n        user.timestamp = timestamp;\r\n        users[user.index] = user;\r\n        didToUser[did] = user;\r\n    }\r\n\r\n    function lazyRemoveExpiredUsers(uint256 currentTimestamp) public {\r\n        while (userCount > 0 && currentTimestamp - users[0].timestamp > EXPIRY_DURATION) {\r\n            removeUser(users[0].did);\r\n        }\r\n    }\r\n\r\n    function getUser(string memory did) public view returns (User memory) {\r\n        if (didToUser[did].isUser) {\r\n          return didToUser[did];\r\n        }\r\n        return User(\"\", \"\", 0, false, 0, 0, 0, \"\");\r\n    }\r\n\r\n    function getAvailableUser(uint256 cpu, uint256 mem) public view returns (User memory) {\r\n        for (uint256 i = 0; i < userCount; i++) {\r\n            if (users[i].cpu >= cpu && users[i].mem >= mem) {\r\n                return users[i];\r\n            }\r\n        }\r\n        return User(\"\", \"\", 0, false, 0, 0, 0, \"\");\r\n    }\r\n\r\n    function getUserCount() public view returns (uint256) {\r\n        return userCount;\r\n    }\r\n\r\n    function getAllDidToTimestamps()\r\n        public\r\n        view\r\n        returns (string[] memory, uint256[] memory)\r\n    {\r\n        uint256[] memory timestamps = new uint256[](userCount);\r\n        string[] memory dids = new string[](userCount);\r\n        for (uint i = 0; i < userCount; i++) {\r\n            timestamps[i] = users[i].timestamp;\r\n            dids[i] = users[i].did;\r\n        }\r\n        return (dids, timestamps);\r\n    }\r\n\r\n    function removeUser(string memory did) public {\r\n        require(didToUser[did].isUser, \"Id does not exist\");\r\n        uint256 indexToRemove = didToUser[did].index;\r\n        User memory lastUser = users[userCount - 1];\r\n        lastUser.index = indexToRemove;\r\n        didToUser[lastUser.did] = lastUser;\r\n        users[indexToRemove] = lastUser;\r\n        userCount = userCount - 1;\r\n        users.pop();\r\n        delete didToUser[did];\r\n    }\r\n\r\n    function removeUsers(string[] memory dids) public {\r\n        for (uint256 i = 0; i < dids.length; i++) {\r\n            removeUser(dids[i]);\r\n        }\r\n    }\r\n\r\n    function addResource(string memory did, uint256 cpu, uint256 mem) public {\r\n        require(didToUser[did].isUser, \"Id does not exist\");\r\n        User memory user = didToUser[did];\r\n        user.cpu = user.cpu + cpu;\r\n        user.mem = user.mem + mem;\r\n        users[user.index] = user;\r\n        didToUser[did] = user;\r\n    }\r\n\r\n    function subtractResource(string memory did, uint256 cpu, uint256 mem) public {\r\n        require(didToUser[did].isUser, \"Id does not exist\");\r\n        User memory user = didToUser[did];\r\n        user.cpu = user.cpu - cpu;\r\n        user.mem = user.mem - mem;\r\n        users[user.index] = user;\r\n        didToUser[did] = user;\r\n    }\r\n}\r\n",
  "sourcePath": "C:\\Users\\jxlim\\repos\\mec_anywhere\\full_node\\contract\\contracts\\DiscoveryContract.sol",
  "compiler": {
    "name": "solc",
    "version": "0.8.10+commit.fc410830.Emscripten.clang"
  },
  "schemaVersion": "3.4.12",
  "updatedAt": "2023-12-18T02:44:04.440Z",
  "networkType": "ethereum",
  "devdoc": {
    "kind": "dev",
    "methods": {},
    "version": 1
  },
  "userdoc": {
    "kind": "user",
    "methods": {},
    "version": 1
  }
}