{
  "contractName": "DiscoveryContract",
  "abi": [
    {
      "inputs": [
        {
          "internalType": "uint256",
          "name": "expiryDuration",
          "type": "uint256"
        }
      ],
      "stateMutability": "nonpayable",
      "type": "constructor"
    },
    {
      "inputs": [],
      "name": "EXPIRY_DURATION",
      "outputs": [
        {
          "internalType": "uint256",
          "name": "",
          "type": "uint256"
        }
      ],
      "stateMutability": "view",
      "type": "function",
      "constant": true
    },
    {
      "inputs": [
        {
          "internalType": "string",
          "name": "did",
          "type": "string"
        },
        {
          "internalType": "string",
          "name": "poDid",
          "type": "string"
        },
        {
          "internalType": "uint256",
          "name": "timestamp",
          "type": "uint256"
        },
        {
          "internalType": "uint256",
          "name": "latency",
          "type": "uint256"
        }
      ],
      "name": "setUser",
      "outputs": [],
      "stateMutability": "nonpayable",
      "type": "function"
    },
    {
      "inputs": [
        {
          "internalType": "uint256",
          "name": "currentTimestamp",
          "type": "uint256"
        }
      ],
      "name": "lazyRemoveExpiredUsers",
      "outputs": [],
      "stateMutability": "nonpayable",
      "type": "function"
    },
    {
      "inputs": [],
      "name": "getFirstUser",
      "outputs": [
        {
          "components": [
            {
              "internalType": "string",
              "name": "did",
              "type": "string"
            },
            {
              "internalType": "string",
              "name": "poDid",
              "type": "string"
            },
            {
              "internalType": "uint256",
              "name": "index",
              "type": "uint256"
            },
            {
              "internalType": "bool",
              "name": "isUser",
              "type": "bool"
            },
            {
              "internalType": "uint256",
              "name": "timestamp",
              "type": "uint256"
            },
            {
              "internalType": "uint256",
              "name": "latency",
              "type": "uint256"
            },
            {
              "internalType": "string",
              "name": "queue",
              "type": "string"
            }
          ],
          "internalType": "struct DiscoveryContract.User",
          "name": "",
          "type": "tuple"
        }
      ],
      "stateMutability": "view",
      "type": "function",
      "constant": true
    },
    {
      "inputs": [],
      "name": "getUserCount",
      "outputs": [
        {
          "internalType": "uint256",
          "name": "",
          "type": "uint256"
        }
      ],
      "stateMutability": "view",
      "type": "function",
      "constant": true
    },
    {
      "inputs": [],
      "name": "getAllDidToTimestamps",
      "outputs": [
        {
          "internalType": "string[]",
          "name": "",
          "type": "string[]"
        },
        {
          "internalType": "uint256[]",
          "name": "",
          "type": "uint256[]"
        }
      ],
      "stateMutability": "view",
      "type": "function",
      "constant": true
    },
    {
      "inputs": [
        {
          "internalType": "string",
          "name": "did",
          "type": "string"
        }
      ],
      "name": "removeUser",
      "outputs": [],
      "stateMutability": "nonpayable",
      "type": "function"
    },
    {
      "inputs": [
        {
          "internalType": "string[]",
          "name": "dids",
          "type": "string[]"
        }
      ],
      "name": "removeUsers",
      "outputs": [],
      "stateMutability": "nonpayable",
      "type": "function"
    }
  ],
  "bytecode": "0x6080604052600060035534801561001557600080fd5b506040516115043803806115048339810160408190526100349161003c565b600055610055565b60006020828403121561004e57600080fd5b5051919050565b6114a0806100646000396000f3fe608060405234801561001057600080fd5b50600436106100a5576000357c010000000000000000000000000000000000000000000000000000000090048063600cee7811610078578063600cee7814610101578063b509e6b814610114578063b5cb15f71461012a578063b8cec7e81461013257600080fd5b806302bb0582146100aa5780633d3eeac9146100bf5780634234347a146100db5780635e417894146100ee575b600080fd5b6100bd6100b8366004611071565b610147565b005b6100c860005481565b6040519081526020015b60405180910390f35b6100bd6100e93660046110e5565b6103df565b6100bd6100fc3660046110fe565b6104e0565b6100bd61010f3660046111c0565b610524565b61011c610a57565b6040516100d2929190611255565b6003546100c8565b61013a610c2c565b6040516100d291906112ef565b600184604051610157919061137b565b9081526040519081900360200190206003015460ff1615610229576000600185604051610184919061137b565b908152602001604051809103902060020154905083600282815481106101ac576101ac611397565b906000526020600020906007020160010190805190602001906101d0929190610ee8565b5082600282815481106101e5576101e5611397565b906000526020600020906007020160040181905550816002828154811061020e5761020e611397565b906000526020600020906007020160050181905550506103d9565b6040805160e0810182528581526020808201869052600354928201929092526001606082018190526080820185905260a0820184905260c08201879052600280549182018155600052815180519293849360079093027f405787fa12a823e0f2b7631cc41b3ba8828b3321ca811111fa75cd3aa3bb5ace01926102af9284920190610ee8565b5060208281015180516102c89260018501920190610ee8565b5060408201516002820155606082015160038201805460ff19169115159190911790556080820151600482015560a0820151600582015560c0820151805161031a916006840191602090910190610ee8565b5050508060018660405161032e919061137b565b90815260200160405180910390206000820151816000019080519060200190610358929190610ee8565b5060208281015180516103719260018501920190610ee8565b5060408201516002820155606082015160038201805460ff19169115159190911790556080820151600482015560a0820151600582015560c082015180516103c3916006840191602090910190610ee8565b50506003546103d4915060016113c9565b600355505b50505050565b60006003541180156104225750600054600260008154811061040357610403611397565b9060005260206000209060070201600401548261042091906113e1565b115b156104dd576100e9600260008154811061043e5761043e611397565b9060005260206000209060070201600001805461045a906113f8565b80601f0160208091040260200160405190810160405280929190818152602001828054610486906113f8565b80156104d35780601f106104a8576101008083540402835291602001916104d3565b820191906000526020600020905b8154815290600101906020018083116104b657829003601f168201915b5050505050610524565b50565b60005b81518110156105205761050e82828151811061050157610501611397565b6020026020010151610524565b8061051881611436565b9150506104e3565b5050565b600181604051610534919061137b565b9081526040519081900360200190206003015460ff166105b4576040517f08c379a000000000000000000000000000000000000000000000000000000000815260206004820152601160248201527f496420646f6573206e6f74206578697374000000000000000000000000000000604482015260640160405180910390fd5b60006001826040516105c6919061137b565b90815260200160405180910390206002015490506000600260016003546105ed91906113e1565b815481106105fd576105fd611397565b90600052602060002090600702016040518060e0016040529081600082018054610626906113f8565b80601f0160208091040260200160405190810160405280929190818152602001828054610652906113f8565b801561069f5780601f106106745761010080835404028352916020019161069f565b820191906000526020600020905b81548152906001019060200180831161068257829003601f168201915b505050505081526020016001820180546106b8906113f8565b80601f01602080910402602001604051908101604052809291908181526020018280546106e4906113f8565b80156107315780601f1061070657610100808354040283529160200191610731565b820191906000526020600020905b81548152906001019060200180831161071457829003601f168201915b505050918352505060028201546020820152600382015460ff1615156040820152600482015460608201526005820154608082015260068201805460a09092019161077b906113f8565b80601f01602080910402602001604051908101604052809291908181526020018280546107a7906113f8565b80156107f45780601f106107c9576101008083540402835291602001916107f4565b820191906000526020600020905b8154815290600101906020018083116107d757829003601f168201915b50505091909252505050604080820184905281519051919250829160019161081b9161137b565b90815260200160405180910390206000820151816000019080519060200190610845929190610ee8565b50602082810151805161085e9260018501920190610ee8565b5060408201516002820155606082015160038201805460ff19169115159190911790556080820151600482015560a0820151600582015560c082015180516108b0916006840191602090910190610ee8565b5090505080600283815481106108c8576108c8611397565b906000526020600020906007020160008201518160000190805190602001906108f2929190610ee8565b50602082810151805161090b9260018501920190610ee8565b5060408201516002820155606082015160038201805460ff19169115159190911790556080820151600482015560a0820151600582015560c0820151805161095d916006840191602090910190610ee8565b505060035461096f91506001906113e1565b600355600280548061098357610983611451565b600082815260208120600019909201916007830201906109a38282610f6c565b6109b1600183016000610f6c565b60006002830181905560038301805460ff1916905560048301819055600583018190556109e2906006840190610f6c565b505090556001836040516109f6919061137b565b9081526040519081900360200190206000610a118282610f6c565b610a1f600183016000610f6c565b60006002830181905560038301805460ff191690556004830181905560058301819055610a50906006840190610f6c565b5050505050565b606080600060035467ffffffffffffffff811115610a7757610a77610fb7565b604051908082528060200260200182016040528015610aa0578160200160208202803683370190505b509050600060035467ffffffffffffffff811115610ac057610ac0610fb7565b604051908082528060200260200182016040528015610af357816020015b6060815260200190600190039081610ade5790505b50905060005b600354811015610c235760028181548110610b1657610b16611397565b906000526020600020906007020160040154838281518110610b3a57610b3a611397565b60200260200101818152505060028181548110610b5957610b59611397565b90600052602060002090600702016000018054610b75906113f8565b80601f0160208091040260200160405190810160405280929190818152602001828054610ba1906113f8565b8015610bee5780601f10610bc357610100808354040283529160200191610bee565b820191906000526020600020905b815481529060010190602001808311610bd157829003601f168201915b5050505050828281518110610c0557610c05611397565b60200260200101819052508080610c1b90611436565b915050610af9565b50939092509050565b610c6e6040518060e001604052806060815260200160608152602001600081526020016000151581526020016000815260200160008152602001606081525090565b600354610ccf57506040805161010081018252600060e08201818152825282516020818101855282825280840191909152828401829052606083018290526080830182905260a083018290528351908101909352825260c081019190915290565b6002600081548110610ce357610ce3611397565b90600052602060002090600702016040518060e0016040529081600082018054610d0c906113f8565b80601f0160208091040260200160405190810160405280929190818152602001828054610d38906113f8565b8015610d855780601f10610d5a57610100808354040283529160200191610d85565b820191906000526020600020905b815481529060010190602001808311610d6857829003601f168201915b50505050508152602001600182018054610d9e906113f8565b80601f0160208091040260200160405190810160405280929190818152602001828054610dca906113f8565b8015610e175780601f10610dec57610100808354040283529160200191610e17565b820191906000526020600020905b815481529060010190602001808311610dfa57829003601f168201915b505050918352505060028201546020820152600382015460ff1615156040820152600482015460608201526005820154608082015260068201805460a090920191610e61906113f8565b80601f0160208091040260200160405190810160405280929190818152602001828054610e8d906113f8565b8015610eda5780601f10610eaf57610100808354040283529160200191610eda565b820191906000526020600020905b815481529060010190602001808311610ebd57829003601f168201915b505050505081525050905090565b828054610ef4906113f8565b90600052602060002090601f016020900481019282610f165760008555610f5c565b82601f10610f2f57805160ff1916838001178555610f5c565b82800160010185558215610f5c579182015b82811115610f5c578251825591602001919060010190610f41565b50610f68929150610fa2565b5090565b508054610f78906113f8565b6000825580601f10610f88575050565b601f0160209004906000526020600020908101906104dd91905b5b80821115610f685760008155600101610fa3565b60e060020a634e487b7102600052604160045260246000fd5b604051601f8201601f1916810167ffffffffffffffff81118282101715610ff957610ff9610fb7565b604052919050565b600082601f83011261101257600080fd5b813567ffffffffffffffff81111561102c5761102c610fb7565b61103f601f8201601f1916602001610fd0565b81815284602083860101111561105457600080fd5b816020850160208301376000918101602001919091529392505050565b6000806000806080858703121561108757600080fd5b843567ffffffffffffffff8082111561109f57600080fd5b6110ab88838901611001565b955060208701359150808211156110c157600080fd5b506110ce87828801611001565b949794965050505060408301359260600135919050565b6000602082840312156110f757600080fd5b5035919050565b6000602080838503121561111157600080fd5b823567ffffffffffffffff8082111561112957600080fd5b818501915085601f83011261113d57600080fd5b81358181111561114f5761114f610fb7565b83810261115d858201610fd0565b918252838101850191858101908984111561117757600080fd5b86860192505b838310156111b3578235858111156111955760008081fd5b6111a38b89838a0101611001565b835250918601919086019061117d565b9998505050505050505050565b6000602082840312156111d257600080fd5b813567ffffffffffffffff8111156111e957600080fd5b6111f584828501611001565b949350505050565b60005b83811015611218578181015183820152602001611200565b838111156103d95750506000910152565b600081518084526112418160208601602086016111fd565b601f01601f19169290920160200192915050565b6000604082016040835280855180835260608501915060209250606083820286010183880160005b838110156112ab57605f19888403018552611299838351611229565b9486019492509085019060010161127d565b50508581038487015286518082529084019250905085830160005b828110156112e2578151845292840192908401906001016112c6565b5091979650505050505050565b602081526000825160e0602084015261130c610100840182611229565b90506020840151601f198085840301604086015261132a8383611229565b925060408601516060860152606086015115156080860152608086015160a086015260a086015160c086015260c08601519150808584030160e0860152506113728282611229565b95945050505050565b6000825161138d8184602087016111fd565b9190910192915050565b60e060020a634e487b7102600052603260045260246000fd5b60e060020a634e487b7102600052601160045260246000fd5b600082198211156113dc576113dc6113b0565b500190565b6000828210156113f3576113f36113b0565b500390565b60028104600182168061140c57607f821691505b602082108114156114305760e060020a634e487b7102600052602260045260246000fd5b50919050565b600060001982141561144a5761144a6113b0565b5060010190565b60e060020a634e487b7102600052603160045260246000fdfea26469706673582212200d0a273665232714dd51fab5d629038f594da8265c1970a84246c44ec88e755d64736f6c634300080a0033",
  "immutableReferences": {},
  "source": "// SPDX-License-Identifier: MIT\r\npragma solidity >=0.4.22 <0.9.0;\r\n\r\npragma experimental ABIEncoderV2;\r\n\r\ncontract DiscoveryContract {\r\n    uint256 public EXPIRY_DURATION;\r\n\r\n    struct User {\r\n        string did;\r\n        string poDid;\r\n        uint256 index;\r\n        bool isUser;\r\n        uint256 timestamp;\r\n        uint256 latency;\r\n        string queue;\r\n    }\r\n\r\n    mapping(string => User) private didToUser;\r\n    User[] private users;\r\n    uint256 private userCount = 0;\r\n\r\n    constructor(uint256 expiryDuration) {\r\n        EXPIRY_DURATION = expiryDuration;\r\n    }\r\n\r\n    function setUser(string memory did, string memory poDid, uint256 timestamp, uint256 latency) public {\r\n        if (didToUser[did].isUser) {\r\n            uint256 index = didToUser[did].index;\r\n            users[index].poDid = poDid;\r\n            users[index].timestamp = timestamp;\r\n            users[index].latency = latency;\r\n            return;\r\n        }\r\n        User memory newUser = User(did, poDid, userCount, true, timestamp, latency, did);\r\n        users.push(newUser);\r\n        didToUser[did] = newUser;\r\n        userCount = userCount + 1;\r\n    }\r\n\r\n    function lazyRemoveExpiredUsers(uint256 currentTimestamp) public {\r\n        while (userCount > 0 && currentTimestamp - users[0].timestamp > EXPIRY_DURATION) {\r\n            removeUser(users[0].did);\r\n        }\r\n    }\r\n\r\n    function getFirstUser() public view returns (User memory) {\r\n        if (userCount == 0) {\r\n            return User(\"\", \"\", 0, false, 0, 0, \"\");\r\n        }\r\n        return users[0];\r\n    }\r\n\r\n    function getUserCount() public view returns (uint256) {\r\n        return userCount;\r\n    }\r\n\r\n    function getAllDidToTimestamps()\r\n        public\r\n        view\r\n        returns (string[] memory, uint256[] memory)\r\n    {\r\n        uint256[] memory timestamps = new uint256[](userCount);\r\n        string[] memory dids = new string[](userCount);\r\n        for (uint i = 0; i < userCount; i++) {\r\n            timestamps[i] = users[i].timestamp;\r\n            dids[i] = users[i].did;\r\n        }\r\n        return (dids, timestamps);\r\n    }\r\n\r\n    function removeUser(string memory did) public {\r\n        require(didToUser[did].isUser, \"Id does not exist\");\r\n        uint256 indexToRemove = didToUser[did].index;\r\n        User memory lastUser = users[userCount - 1];\r\n        lastUser.index = indexToRemove;\r\n        didToUser[lastUser.did] = lastUser;\r\n        users[indexToRemove] = lastUser;\r\n        userCount = userCount - 1;\r\n        users.pop();\r\n        delete didToUser[did];\r\n    }\r\n\r\n    function removeUsers(string[] memory dids) public {\r\n        for (uint256 i = 0; i < dids.length; i++) {\r\n            removeUser(dids[i]);\r\n        }\r\n    }\r\n}\r\n",
  "sourcePath": "C:\\Users\\jxlim\\repos\\mec_anywhere\\full_node\\contract\\contracts\\DiscoveryContract.sol",
  "compiler": {
    "name": "solc",
    "version": "0.8.10+commit.fc410830.Emscripten.clang"
  },
  "schemaVersion": "3.4.12",
  "updatedAt": "2023-10-27T08:36:10.845Z",
  "networkType": "ethereum",
  "devdoc": {
    "kind": "dev",
    "methods": {},
    "version": 1
  },
  "userdoc": {
    "kind": "user",
    "methods": {},
    "version": 1
  }
}