{
  "contractName": "DiscoveryContract",
  "abi": [
    {
      "inputs": [
        {
          "internalType": "uint256",
          "name": "expiryDuration",
          "type": "uint256"
        }
      ],
      "stateMutability": "nonpayable",
      "type": "constructor"
    },
    {
      "inputs": [],
      "name": "EXPIRY_DURATION",
      "outputs": [
        {
          "internalType": "uint256",
          "name": "",
          "type": "uint256"
        }
      ],
      "stateMutability": "view",
      "type": "function",
      "constant": true
    },
    {
      "inputs": [
        {
          "internalType": "string",
          "name": "did",
          "type": "string"
        },
        {
          "internalType": "string",
          "name": "poDid",
          "type": "string"
        },
        {
          "internalType": "uint256",
          "name": "timestamp",
          "type": "uint256"
        },
        {
          "internalType": "uint256",
          "name": "latency",
          "type": "uint256"
        }
      ],
      "name": "setUser",
      "outputs": [],
      "stateMutability": "nonpayable",
      "type": "function"
    },
    {
      "inputs": [
        {
          "internalType": "uint256",
          "name": "currentTimestamp",
          "type": "uint256"
        }
      ],
      "name": "lazyRemoveExpiredUsers",
      "outputs": [],
      "stateMutability": "nonpayable",
      "type": "function"
    },
    {
      "inputs": [
        {
          "internalType": "string",
          "name": "did",
          "type": "string"
        }
      ],
      "name": "getUser",
      "outputs": [
        {
          "components": [
            {
              "internalType": "string",
              "name": "did",
              "type": "string"
            },
            {
              "internalType": "string",
              "name": "poDid",
              "type": "string"
            },
            {
              "internalType": "uint256",
              "name": "index",
              "type": "uint256"
            },
            {
              "internalType": "bool",
              "name": "isUser",
              "type": "bool"
            },
            {
              "internalType": "uint256",
              "name": "timestamp",
              "type": "uint256"
            },
            {
              "internalType": "uint256",
              "name": "latency",
              "type": "uint256"
            },
            {
              "internalType": "string",
              "name": "queue",
              "type": "string"
            }
          ],
          "internalType": "struct DiscoveryContract.User",
          "name": "",
          "type": "tuple"
        }
      ],
      "stateMutability": "view",
      "type": "function",
      "constant": true
    },
    {
      "inputs": [],
      "name": "getFirstUser",
      "outputs": [
        {
          "components": [
            {
              "internalType": "string",
              "name": "did",
              "type": "string"
            },
            {
              "internalType": "string",
              "name": "poDid",
              "type": "string"
            },
            {
              "internalType": "uint256",
              "name": "index",
              "type": "uint256"
            },
            {
              "internalType": "bool",
              "name": "isUser",
              "type": "bool"
            },
            {
              "internalType": "uint256",
              "name": "timestamp",
              "type": "uint256"
            },
            {
              "internalType": "uint256",
              "name": "latency",
              "type": "uint256"
            },
            {
              "internalType": "string",
              "name": "queue",
              "type": "string"
            }
          ],
          "internalType": "struct DiscoveryContract.User",
          "name": "",
          "type": "tuple"
        }
      ],
      "stateMutability": "view",
      "type": "function",
      "constant": true
    },
    {
      "inputs": [],
      "name": "getUserCount",
      "outputs": [
        {
          "internalType": "uint256",
          "name": "",
          "type": "uint256"
        }
      ],
      "stateMutability": "view",
      "type": "function",
      "constant": true
    },
    {
      "inputs": [],
      "name": "getAllDidToTimestamps",
      "outputs": [
        {
          "internalType": "string[]",
          "name": "",
          "type": "string[]"
        },
        {
          "internalType": "uint256[]",
          "name": "",
          "type": "uint256[]"
        }
      ],
      "stateMutability": "view",
      "type": "function",
      "constant": true
    },
    {
      "inputs": [
        {
          "internalType": "string",
          "name": "did",
          "type": "string"
        }
      ],
      "name": "removeUser",
      "outputs": [],
      "stateMutability": "nonpayable",
      "type": "function"
    },
    {
      "inputs": [
        {
          "internalType": "string[]",
          "name": "dids",
          "type": "string[]"
        }
      ],
      "name": "removeUsers",
      "outputs": [],
      "stateMutability": "nonpayable",
      "type": "function"
    }
  ],
  "bytecode": "0x6080604052600060035534801561001557600080fd5b506040516118053803806118058339810160408190526100349161003c565b600055610055565b60006020828403121561004e57600080fd5b5051919050565b6117a1806100646000396000f3fe608060405234801561001057600080fd5b50600436106100b0576000357c0100000000000000000000000000000000000000000000000000000000900480635e417894116100835780635e4178941461011d578063600cee7814610130578063b509e6b814610143578063b5cb15f714610159578063b8cec7e81461016157600080fd5b806302bb0582146100b557806331feb671146100ca5780633d3eeac9146100f35780634234347a1461010a575b600080fd5b6100c86100c3366004611372565b610169565b005b6100dd6100d83660046113e6565b610401565b6040516100ea919061147b565b60405180910390f35b6100fc60005481565b6040519081526020016100ea565b6100c8610118366004611507565b6106e0565b6100c861012b366004611520565b6107e1565b6100c861013e3660046113e6565b610825565b61014b610d58565b6040516100ea9291906115e2565b6003546100fc565b6100dd610f2d565b600184604051610179919061167c565b9081526040519081900360200190206003015460ff161561024b5760006001856040516101a6919061167c565b908152602001604051809103902060020154905083600282815481106101ce576101ce611698565b906000526020600020906007020160010190805190602001906101f29291906111e9565b50826002828154811061020757610207611698565b906000526020600020906007020160040181905550816002828154811061023057610230611698565b906000526020600020906007020160050181905550506103fb565b6040805160e0810182528581526020808201869052600354928201929092526001606082018190526080820185905260a0820184905260c08201879052600280549182018155600052815180519293849360079093027f405787fa12a823e0f2b7631cc41b3ba8828b3321ca811111fa75cd3aa3bb5ace01926102d192849201906111e9565b5060208281015180516102ea92600185019201906111e9565b5060408201516002820155606082015160038201805460ff19169115159190911790556080820151600482015560a0820151600582015560c0820151805161033c9160068401916020909101906111e9565b50505080600186604051610350919061167c565b9081526020016040518091039020600082015181600001908051906020019061037a9291906111e9565b50602082810151805161039392600185019201906111e9565b5060408201516002820155606082015160038201805460ff19169115159190911790556080820151600482015560a0820151600582015560c082015180516103e59160068401916020909101906111e9565b50506003546103f6915060016116ca565b600355505b50505050565b6104436040518060e001604052806060815260200160608152602001600081526020016000151581526020016000815260200160008152602001606081525090565b600182604051610453919061167c565b9081526040519081900360200190206003015460ff16156106855760018260405161047e919061167c565b90815260200160405180910390206040518060e00160405290816000820180546104a7906116e2565b80601f01602080910402602001604051908101604052809291908181526020018280546104d3906116e2565b80156105205780601f106104f557610100808354040283529160200191610520565b820191906000526020600020905b81548152906001019060200180831161050357829003601f168201915b50505050508152602001600182018054610539906116e2565b80601f0160208091040260200160405190810160405280929190818152602001828054610565906116e2565b80156105b25780601f10610587576101008083540402835291602001916105b2565b820191906000526020600020905b81548152906001019060200180831161059557829003601f168201915b505050918352505060028201546020820152600382015460ff1615156040820152600482015460608201526005820154608082015260068201805460a0909201916105fc906116e2565b80601f0160208091040260200160405190810160405280929190818152602001828054610628906116e2565b80156106755780601f1061064a57610100808354040283529160200191610675565b820191906000526020600020905b81548152906001019060200180831161065857829003601f168201915b5050505050815250509050919050565b50506040805161010081018252600060e08201818152825282516020818101855282825280840191909152828401829052606083018290526080830182905260a083018290528351908101909352825260c081019190915290565b60006003541180156107235750600054600260008154811061070457610704611698565b906000526020600020906007020160040154826107219190611720565b115b156107de57610118600260008154811061073f5761073f611698565b9060005260206000209060070201600001805461075b906116e2565b80601f0160208091040260200160405190810160405280929190818152602001828054610787906116e2565b80156107d45780601f106107a9576101008083540402835291602001916107d4565b820191906000526020600020905b8154815290600101906020018083116107b757829003601f168201915b5050505050610825565b50565b60005b81518110156108215761080f82828151811061080257610802611698565b6020026020010151610825565b8061081981611737565b9150506107e4565b5050565b600181604051610835919061167c565b9081526040519081900360200190206003015460ff166108b5576040517f08c379a000000000000000000000000000000000000000000000000000000000815260206004820152601160248201527f496420646f6573206e6f74206578697374000000000000000000000000000000604482015260640160405180910390fd5b60006001826040516108c7919061167c565b90815260200160405180910390206002015490506000600260016003546108ee9190611720565b815481106108fe576108fe611698565b90600052602060002090600702016040518060e0016040529081600082018054610927906116e2565b80601f0160208091040260200160405190810160405280929190818152602001828054610953906116e2565b80156109a05780601f10610975576101008083540402835291602001916109a0565b820191906000526020600020905b81548152906001019060200180831161098357829003601f168201915b505050505081526020016001820180546109b9906116e2565b80601f01602080910402602001604051908101604052809291908181526020018280546109e5906116e2565b8015610a325780601f10610a0757610100808354040283529160200191610a32565b820191906000526020600020905b815481529060010190602001808311610a1557829003601f168201915b505050918352505060028201546020820152600382015460ff1615156040820152600482015460608201526005820154608082015260068201805460a090920191610a7c906116e2565b80601f0160208091040260200160405190810160405280929190818152602001828054610aa8906116e2565b8015610af55780601f10610aca57610100808354040283529160200191610af5565b820191906000526020600020905b815481529060010190602001808311610ad857829003601f168201915b505050919092525050506040808201849052815190519192508291600191610b1c9161167c565b90815260200160405180910390206000820151816000019080519060200190610b469291906111e9565b506020828101518051610b5f92600185019201906111e9565b5060408201516002820155606082015160038201805460ff19169115159190911790556080820151600482015560a0820151600582015560c08201518051610bb19160068401916020909101906111e9565b509050508060028381548110610bc957610bc9611698565b90600052602060002090600702016000820151816000019080519060200190610bf39291906111e9565b506020828101518051610c0c92600185019201906111e9565b5060408201516002820155606082015160038201805460ff19169115159190911790556080820151600482015560a0820151600582015560c08201518051610c5e9160068401916020909101906111e9565b5050600354610c709150600190611720565b6003556002805480610c8457610c84611752565b60008281526020812060001990920191600783020190610ca4828261126d565b610cb260018301600061126d565b60006002830181905560038301805460ff191690556004830181905560058301819055610ce390600684019061126d565b50509055600183604051610cf7919061167c565b9081526040519081900360200190206000610d12828261126d565b610d2060018301600061126d565b60006002830181905560038301805460ff191690556004830181905560058301819055610d5190600684019061126d565b5050505050565b606080600060035467ffffffffffffffff811115610d7857610d786112b8565b604051908082528060200260200182016040528015610da1578160200160208202803683370190505b509050600060035467ffffffffffffffff811115610dc157610dc16112b8565b604051908082528060200260200182016040528015610df457816020015b6060815260200190600190039081610ddf5790505b50905060005b600354811015610f245760028181548110610e1757610e17611698565b906000526020600020906007020160040154838281518110610e3b57610e3b611698565b60200260200101818152505060028181548110610e5a57610e5a611698565b90600052602060002090600702016000018054610e76906116e2565b80601f0160208091040260200160405190810160405280929190818152602001828054610ea2906116e2565b8015610eef5780601f10610ec457610100808354040283529160200191610eef565b820191906000526020600020905b815481529060010190602001808311610ed257829003601f168201915b5050505050828281518110610f0657610f06611698565b60200260200101819052508080610f1c90611737565b915050610dfa565b50939092509050565b610f6f6040518060e001604052806060815260200160608152602001600081526020016000151581526020016000815260200160008152602001606081525090565b600354610fd057506040805161010081018252600060e08201818152825282516020818101855282825280840191909152828401829052606083018290526080830182905260a083018290528351908101909352825260c081019190915290565b6002600081548110610fe457610fe4611698565b90600052602060002090600702016040518060e001604052908160008201805461100d906116e2565b80601f0160208091040260200160405190810160405280929190818152602001828054611039906116e2565b80156110865780601f1061105b57610100808354040283529160200191611086565b820191906000526020600020905b81548152906001019060200180831161106957829003601f168201915b5050505050815260200160018201805461109f906116e2565b80601f01602080910402602001604051908101604052809291908181526020018280546110cb906116e2565b80156111185780601f106110ed57610100808354040283529160200191611118565b820191906000526020600020905b8154815290600101906020018083116110fb57829003601f168201915b505050918352505060028201546020820152600382015460ff1615156040820152600482015460608201526005820154608082015260068201805460a090920191611162906116e2565b80601f016020809104026020016040519081016040528092919081815260200182805461118e906116e2565b80156111db5780601f106111b0576101008083540402835291602001916111db565b820191906000526020600020905b8154815290600101906020018083116111be57829003601f168201915b505050505081525050905090565b8280546111f5906116e2565b90600052602060002090601f016020900481019282611217576000855561125d565b82601f1061123057805160ff191683800117855561125d565b8280016001018555821561125d579182015b8281111561125d578251825591602001919060010190611242565b506112699291506112a3565b5090565b508054611279906116e2565b6000825580601f10611289575050565b601f0160209004906000526020600020908101906107de91905b5b8082111561126957600081556001016112a4565b60e060020a634e487b7102600052604160045260246000fd5b604051601f8201601f1916810167ffffffffffffffff811182821017156112fa576112fa6112b8565b604052919050565b600082601f83011261131357600080fd5b813567ffffffffffffffff81111561132d5761132d6112b8565b611340601f8201601f19166020016112d1565b81815284602083860101111561135557600080fd5b816020850160208301376000918101602001919091529392505050565b6000806000806080858703121561138857600080fd5b843567ffffffffffffffff808211156113a057600080fd5b6113ac88838901611302565b955060208701359150808211156113c257600080fd5b506113cf87828801611302565b949794965050505060408301359260600135919050565b6000602082840312156113f857600080fd5b813567ffffffffffffffff81111561140f57600080fd5b61141b84828501611302565b949350505050565b60005b8381101561143e578181015183820152602001611426565b838111156103fb5750506000910152565b60008151808452611467816020860160208601611423565b601f01601f19169290920160200192915050565b602081526000825160e0602084015261149861010084018261144f565b90506020840151601f19808584030160408601526114b6838361144f565b925060408601516060860152606086015115156080860152608086015160a086015260a086015160c086015260c08601519150808584030160e0860152506114fe828261144f565b95945050505050565b60006020828403121561151957600080fd5b5035919050565b6000602080838503121561153357600080fd5b823567ffffffffffffffff8082111561154b57600080fd5b818501915085601f83011261155f57600080fd5b813581811115611571576115716112b8565b83810261157f8582016112d1565b918252838101850191858101908984111561159957600080fd5b86860192505b838310156115d5578235858111156115b75760008081fd5b6115c58b89838a0101611302565b835250918601919086019061159f565b9998505050505050505050565b6000604082016040835280855180835260608501915060209250606083820286010183880160005b8381101561163857605f1988840301855261162683835161144f565b9486019492509085019060010161160a565b50508581038487015286518082529084019250905085830160005b8281101561166f57815184529284019290840190600101611653565b5091979650505050505050565b6000825161168e818460208701611423565b9190910192915050565b60e060020a634e487b7102600052603260045260246000fd5b60e060020a634e487b7102600052601160045260246000fd5b600082198211156116dd576116dd6116b1565b500190565b6002810460018216806116f657607f821691505b6020821081141561171a5760e060020a634e487b7102600052602260045260246000fd5b50919050565b600082821015611732576117326116b1565b500390565b600060001982141561174b5761174b6116b1565b5060010190565b60e060020a634e487b7102600052603160045260246000fdfea26469706673582212209a8298d5b34ae454bd9d834abc16a3b1f5fdef65516b9b2a7149c1a08162a33964736f6c634300080a0033",
  "immutableReferences": {},
  "source": "// SPDX-License-Identifier: MIT\r\npragma solidity >=0.4.22 <0.9.0;\r\n\r\npragma experimental ABIEncoderV2;\r\n\r\ncontract DiscoveryContract {\r\n    uint256 public EXPIRY_DURATION;\r\n\r\n    struct User {\r\n        string did;\r\n        string poDid;\r\n        uint256 index;\r\n        bool isUser;\r\n        uint256 timestamp;\r\n        uint256 latency;\r\n        string queue;\r\n    }\r\n\r\n    mapping(string => User) private didToUser;\r\n    User[] private users;\r\n    uint256 private userCount = 0;\r\n\r\n    constructor(uint256 expiryDuration) {\r\n        EXPIRY_DURATION = expiryDuration;\r\n    }\r\n\r\n    function setUser(string memory did, string memory poDid, uint256 timestamp, uint256 latency) public {\r\n        if (didToUser[did].isUser) {\r\n            uint256 index = didToUser[did].index;\r\n            users[index].poDid = poDid;\r\n            users[index].timestamp = timestamp;\r\n            users[index].latency = latency;\r\n            return;\r\n        }\r\n        User memory newUser = User(did, poDid, userCount, true, timestamp, latency, did);\r\n        users.push(newUser);\r\n        didToUser[did] = newUser;\r\n        userCount = userCount + 1;\r\n    }\r\n\r\n    function lazyRemoveExpiredUsers(uint256 currentTimestamp) public {\r\n        while (userCount > 0 && currentTimestamp - users[0].timestamp > EXPIRY_DURATION) {\r\n            removeUser(users[0].did);\r\n        }\r\n    }\r\n\r\n    function getUser(string memory did) public view returns (User memory) {\r\n        if (didToUser[did].isUser) {\r\n          return didToUser[did];\r\n        }\r\n        return User(\"\", \"\", 0, false, 0, 0, \"\");\r\n    }\r\n\r\n    function getFirstUser() public view returns (User memory) {\r\n        if (userCount == 0) {\r\n            return User(\"\", \"\", 0, false, 0, 0, \"\");\r\n        }\r\n        return users[0];\r\n    }\r\n\r\n    function getUserCount() public view returns (uint256) {\r\n        return userCount;\r\n    }\r\n\r\n    function getAllDidToTimestamps()\r\n        public\r\n        view\r\n        returns (string[] memory, uint256[] memory)\r\n    {\r\n        uint256[] memory timestamps = new uint256[](userCount);\r\n        string[] memory dids = new string[](userCount);\r\n        for (uint i = 0; i < userCount; i++) {\r\n            timestamps[i] = users[i].timestamp;\r\n            dids[i] = users[i].did;\r\n        }\r\n        return (dids, timestamps);\r\n    }\r\n\r\n    function removeUser(string memory did) public {\r\n        require(didToUser[did].isUser, \"Id does not exist\");\r\n        uint256 indexToRemove = didToUser[did].index;\r\n        User memory lastUser = users[userCount - 1];\r\n        lastUser.index = indexToRemove;\r\n        didToUser[lastUser.did] = lastUser;\r\n        users[indexToRemove] = lastUser;\r\n        userCount = userCount - 1;\r\n        users.pop();\r\n        delete didToUser[did];\r\n    }\r\n\r\n    function removeUsers(string[] memory dids) public {\r\n        for (uint256 i = 0; i < dids.length; i++) {\r\n            removeUser(dids[i]);\r\n        }\r\n    }\r\n}\r\n",
  "sourcePath": "C:\\Users\\jxlim\\repos\\mec_anywhere\\full_node\\contract\\contracts\\DiscoveryContract.sol",
  "compiler": {
    "name": "solc",
    "version": "0.8.10+commit.fc410830.Emscripten.clang"
  },
  "schemaVersion": "3.4.12",
  "updatedAt": "2023-11-01T08:15:03.285Z",
  "networkType": "ethereum",
  "devdoc": {
    "kind": "dev",
    "methods": {},
    "version": 1
  },
  "userdoc": {
    "kind": "user",
    "methods": {},
    "version": 1
  }
}