{
  "contractName": "MecaHostContract",
  "abi": [
    {
      "inputs": [
        {
          "internalType": "uint256",
          "name": "hostRegisterFee",
          "type": "uint256"
        },
        {
          "internalType": "uint256",
          "name": "hostInitialStake",
          "type": "uint256"
        },
        {
          "internalType": "uint256",
          "name": "failedTaskPenalty",
          "type": "uint256"
        },
        {
          "internalType": "uint256",
          "name": "taskRegisterFee",
          "type": "uint256"
        }
      ],
      "stateMutability": "nonpayable",
      "type": "constructor"
    },
    {
      "stateMutability": "payable",
      "type": "fallback"
    },
    {
      "inputs": [],
      "name": "FAILED_TASK_PENALTY",
      "outputs": [
        {
          "internalType": "uint256",
          "name": "",
          "type": "uint256"
        }
      ],
      "stateMutability": "view",
      "type": "function"
    },
    {
      "inputs": [],
      "name": "HOST_INITIAL_STAKE",
      "outputs": [
        {
          "internalType": "uint256",
          "name": "",
          "type": "uint256"
        }
      ],
      "stateMutability": "view",
      "type": "function"
    },
    {
      "inputs": [],
      "name": "HOST_REGISTER_FEE",
      "outputs": [
        {
          "internalType": "uint256",
          "name": "",
          "type": "uint256"
        }
      ],
      "stateMutability": "view",
      "type": "function"
    },
    {
      "inputs": [],
      "name": "TASK_REGISTER_FEE",
      "outputs": [
        {
          "internalType": "uint256",
          "name": "",
          "type": "uint256"
        }
      ],
      "stateMutability": "view",
      "type": "function"
    },
    {
      "inputs": [],
      "name": "addStake",
      "outputs": [],
      "stateMutability": "payable",
      "type": "function"
    },
    {
      "inputs": [
        {
          "internalType": "bytes32",
          "name": "ipfsSha256",
          "type": "bytes32"
        },
        {
          "internalType": "uint256",
          "name": "blockTimeout",
          "type": "uint256"
        },
        {
          "internalType": "uint256",
          "name": "fee",
          "type": "uint256"
        }
      ],
      "name": "addTask",
      "outputs": [],
      "stateMutability": "payable",
      "type": "function"
    },
    {
      "inputs": [],
      "name": "clear",
      "outputs": [],
      "stateMutability": "nonpayable",
      "type": "function"
    },
    {
      "inputs": [],
      "name": "deleteHost",
      "outputs": [],
      "stateMutability": "nonpayable",
      "type": "function"
    },
    {
      "inputs": [
        {
          "internalType": "bytes32",
          "name": "ipfsSha256",
          "type": "bytes32"
        }
      ],
      "name": "deleteTask",
      "outputs": [],
      "stateMutability": "nonpayable",
      "type": "function"
    },
    {
      "inputs": [
        {
          "internalType": "address",
          "name": "hostAddress",
          "type": "address"
        }
      ],
      "name": "getHostBlockTimeoutLimit",
      "outputs": [
        {
          "internalType": "uint256",
          "name": "",
          "type": "uint256"
        }
      ],
      "stateMutability": "view",
      "type": "function"
    },
    {
      "inputs": [
        {
          "internalType": "address",
          "name": "hostAddress",
          "type": "address"
        }
      ],
      "name": "getHostPublicKey",
      "outputs": [
        {
          "internalType": "bytes32[2]",
          "name": "",
          "type": "bytes32[2]"
        }
      ],
      "stateMutability": "view",
      "type": "function"
    },
    {
      "inputs": [
        {
          "internalType": "address",
          "name": "hostAddress",
          "type": "address"
        }
      ],
      "name": "getHostStake",
      "outputs": [
        {
          "internalType": "uint256",
          "name": "",
          "type": "uint256"
        }
      ],
      "stateMutability": "view",
      "type": "function"
    },
    {
      "inputs": [],
      "name": "getHosts",
      "outputs": [
        {
          "components": [
            {
              "internalType": "address payable",
              "name": "owner",
              "type": "address"
            },
            {
              "internalType": "bytes32[2]",
              "name": "eccPublicKey",
              "type": "bytes32[2]"
            },
            {
              "internalType": "uint256",
              "name": "blockTimeoutLimit",
              "type": "uint256"
            },
            {
              "internalType": "uint256",
              "name": "stake",
              "type": "uint256"
            }
          ],
          "internalType": "struct MecaHostAbstractContract.Host[]",
          "name": "",
          "type": "tuple[]"
        }
      ],
      "stateMutability": "view",
      "type": "function"
    },
    {
      "inputs": [
        {
          "internalType": "address",
          "name": "hostAddress",
          "type": "address"
        },
        {
          "internalType": "bytes32",
          "name": "ipfsSha256",
          "type": "bytes32"
        }
      ],
      "name": "getTaskBlockTimeout",
      "outputs": [
        {
          "internalType": "uint256",
          "name": "",
          "type": "uint256"
        }
      ],
      "stateMutability": "view",
      "type": "function"
    },
    {
      "inputs": [
        {
          "internalType": "address",
          "name": "hostAddress",
          "type": "address"
        },
        {
          "internalType": "bytes32",
          "name": "ipfsSha256",
          "type": "bytes32"
        }
      ],
      "name": "getTaskFee",
      "outputs": [
        {
          "internalType": "uint256",
          "name": "",
          "type": "uint256"
        }
      ],
      "stateMutability": "view",
      "type": "function"
    },
    {
      "inputs": [
        {
          "internalType": "uint256",
          "name": "",
          "type": "uint256"
        }
      ],
      "name": "hosts",
      "outputs": [
        {
          "internalType": "address payable",
          "name": "owner",
          "type": "address"
        },
        {
          "internalType": "uint256",
          "name": "blockTimeoutLimit",
          "type": "uint256"
        },
        {
          "internalType": "uint256",
          "name": "stake",
          "type": "uint256"
        }
      ],
      "stateMutability": "view",
      "type": "function"
    },
    {
      "inputs": [
        {
          "internalType": "address",
          "name": "",
          "type": "address"
        }
      ],
      "name": "hostsIndex",
      "outputs": [
        {
          "internalType": "uint32",
          "name": "",
          "type": "uint32"
        }
      ],
      "stateMutability": "view",
      "type": "function"
    },
    {
      "inputs": [],
      "name": "owner",
      "outputs": [
        {
          "internalType": "address payable",
          "name": "",
          "type": "address"
        }
      ],
      "stateMutability": "view",
      "type": "function"
    },
    {
      "inputs": [
        {
          "internalType": "address",
          "name": "hostAddress",
          "type": "address"
        },
        {
          "internalType": "address",
          "name": "userAddress",
          "type": "address"
        }
      ],
      "name": "penaltyForFailedTask",
      "outputs": [],
      "stateMutability": "nonpayable",
      "type": "function"
    },
    {
      "inputs": [
        {
          "internalType": "bytes32[2]",
          "name": "publicKey",
          "type": "bytes32[2]"
        },
        {
          "internalType": "uint256",
          "name": "blockTimeoutLimit",
          "type": "uint256"
        }
      ],
      "name": "registerAsHost",
      "outputs": [],
      "stateMutability": "payable",
      "type": "function"
    },
    {
      "inputs": [],
      "name": "schedulerContractAddress",
      "outputs": [
        {
          "internalType": "address",
          "name": "",
          "type": "address"
        }
      ],
      "stateMutability": "view",
      "type": "function"
    },
    {
      "inputs": [
        {
          "internalType": "address",
          "name": "newSchedulerContractAddress",
          "type": "address"
        }
      ],
      "name": "setSchedulerContractAddress",
      "outputs": [],
      "stateMutability": "nonpayable",
      "type": "function"
    },
    {
      "inputs": [
        {
          "internalType": "uint256",
          "name": "newBlockTimeoutLimit",
          "type": "uint256"
        }
      ],
      "name": "updateBlockTimeoutLimit",
      "outputs": [],
      "stateMutability": "nonpayable",
      "type": "function"
    },
    {
      "inputs": [
        {
          "internalType": "bytes32[2]",
          "name": "newPublicKey",
          "type": "bytes32[2]"
        }
      ],
      "name": "updatePublicKey",
      "outputs": [],
      "stateMutability": "nonpayable",
      "type": "function"
    },
    {
      "inputs": [
        {
          "internalType": "bytes32",
          "name": "ipfsSha256",
          "type": "bytes32"
        },
        {
          "internalType": "uint256",
          "name": "newBlockTimeout",
          "type": "uint256"
        }
      ],
      "name": "updateTaskBlockTimeout",
      "outputs": [],
      "stateMutability": "nonpayable",
      "type": "function"
    },
    {
      "inputs": [
        {
          "internalType": "bytes32",
          "name": "ipfsSha256",
          "type": "bytes32"
        },
        {
          "internalType": "uint256",
          "name": "newFee",
          "type": "uint256"
        }
      ],
      "name": "updateTaskFee",
      "outputs": [],
      "stateMutability": "nonpayable",
      "type": "function"
    },
    {
      "inputs": [
        {
          "internalType": "uint256",
          "name": "amount",
          "type": "uint256"
        }
      ],
      "name": "widthdrawStake",
      "outputs": [],
      "stateMutability": "nonpayable",
      "type": "function"
    },
    {
      "stateMutability": "payable",
      "type": "receive"
    }
  ],
  "bytecode": "0x610100346100cf57601f61116138819003918201601f19168301916001600160401b038311848410176100d4578084926080946040528339810103126100cf57805190602081015190606060408201519101519160018060a01b0319933285600054161760005560805260c05260e05260a0526001541660015560405161107690816100eb8239608051816102a0015260a0518181816101e1015281816104190152610d34015260c051818181610365015281816109480152610b9e015260e0518181816103e2015261088f0152f35b600080fd5b634e487b7160e01b600052604160045260246000fdfe608060409080825260049182361015610026575b505050361561002157600080fd5b600080fd5b600092833560e01c92836304beddcf14610d1d57508263052b12d214610b8457826320a1cc7b14610b5b57826326638d8714610afc5782633735b3c614610aac578263391d0b751461096b5782633a2dd2ce1461093057826352efea6e1461090857826357e1282e1461084657826358f644981461081a5782635a627dbc146107d65782635cea4b5f146105f9578263603d0299146105ab5782637c74e2ec1461058a5782638da5cb5b14610562578263906362301461052b5782639e89c6f3146104fa5782639f6e52ce146104d7578263a13f89f914610405578263a91a2182146103ca578263b0ea53401461038b578263b23e7a72146102c3578263b6b58dca14610288578263db88497c1461025f578263e24edcab1461022b578263e64f15a2146101aa57505063e9393c8614610161578080610013565b346101a75760203660031901126101a75761017a610d6d565b81546001600160a01b0391906101939083163314610db8565b1660018060a01b0319600154161760015580f35b80fd5b90915034610227576020366003190112610227573383526002602052818320903583526020528160018282208281550155818080807f000000000000000000000000000000000000000000000000000000000000000081811561021e575b3390f115610214575080f35b51903d90823e3d90fd5b506108fc610208565b8280fd5b83823461025b57602036600319011261025b578060209161025261024d610d6d565b610f3f565b01519051908152f35b5080fd5b83823461025b578160031936011261025b5760015490516001600160a01b039091168152602090f35b83823461025b578160031936011261025b57602090517f00000000000000000000000000000000000000000000000000000000000000008152f35b90915034610227576020366003190112610227578035908160606102e633610f3f565b015110158061034c575b15610318575082808083610305829533610e76565b81811561021e573390f115610214575080f35b606490602084519162461bcd60e51b8352820152600e60248201526d125b9d985b1a5908185b5bdd5b9d60921b6044820152fd5b5061036382606061035c33610f3f565b0151610e3d565b7f000000000000000000000000000000000000000000000000000000000000000011156102f0565b83823461025b57602036600319011261025b5760209163ffffffff9082906001600160a01b036103b9610d6d565b168152600385522054169051908152f35b83823461025b578160031936011261025b57602090517f00000000000000000000000000000000000000000000000000000000000000008152f35b9091506060366003190112610227578035907f00000000000000000000000000000000000000000000000000000000000000003403610498575081519161044b83610e22565b6024358352602083019060443582523385526002602052808520838652602052808520546104945760019233865260026020528186209086526020528420925183555191015580f35b8480fd5b606490602084519162461bcd60e51b83528201526019602482015278135a5b9a5b5d5b481d185cdac8199959481c995c5d5a5c9959603a1b6044820152fd5b83823461025b57602036600319011261025b57602090606061025261024d610d6d565b83823461025b578060031936011261025b5760209061052361051a610d6d565b60243590610f8b565b519051908152f35b83903461025b57602036600319011261025b57600361055961055461054f33610fde565b610e60565b610d83565b50913591015580f35b83823461025b578160031936011261025b57905490516001600160a01b039091168152602090f35b83823461025b578060031936011261025b576020908161025261051a610d6d565b9150346102275736600319011261025b573660441161025b576105d361055461054f33610fde565b5090825b600281106105e3578380f35b60019060208335930192828286010155016105d7565b909150346102275782600319360112610227578161061633610f3f565b015161079f5761062533610fde565b908061063361055484610e60565b500154815490926000199182810190811161078c5761065190610d83565b5061065e61055483610e60565b91909161077a578085918303610734575b50505061067e61055482610e60565b5060018060a01b039054168652600360205284862063ffffffff8019921682825416179055338652848620908154169055815480156107215701906106c282610d83565b61070f57908186809493556003810160018083015b828110610703578689818080808d8c8c83818e828f5501555581811561021e573390f115610214575080f35b958655889581016106d7565b634e487b7160e01b8652858252602486fd5b634e487b7160e01b865260318352602486fd5b805483546001600160a01b0319166001600160a01b039190911617835581906107636001808301908601610e98565b60038101546003850155015491015538838161066f565b634e487b7160e01b8852878552602488fd5b634e487b7160e01b875260118452602487fd5b6020606492519162461bcd60e51b83528201526012602482015271486f73742063616e20676574207461736b7360701b6044820152fd5b83908160031936011261025b57806107f361055461054f33610fde565b500180549134830180931161080757505580f35b634e487b7160e01b845260119052602483fd5b83823461025b57600161082c36610d57565b929033855260026020528185209085526020528320015580f35b90915034610227578160031936011261022757610861610d6d565b906024356001600160a01b038181169291839003610904576001541633036108d057508380809381936108b57f00000000000000000000000000000000000000000000000000000000000000008093610e76565b8282156108c7575bf115610214575080f35b506108fc6108bd565b606490602085519162461bcd60e51b8352820152600e60248201526d5363686564756c6572206f6e6c7960901b6044820152fd5b8580fd5b83346101a757806003193601126101a75761092d60018060a01b038254163314610db8565b80f35b83823461025b578160031936011261025b57602090517f00000000000000000000000000000000000000000000000000000000000000008152f35b83823461025b578160031936011261025b578254906001600160401b0390818311610a995780519260059281841b603f01601f1916850190811185821017610a8657829596949392528083526020918284018095885283882088915b848310610a5e5750505050508351938185019282865251809352808501939580915b8483106109f65786860387f35b909192939484885160018060a01b038151168352818101518284019086915b60028310610a485750505083810151606080850191909152015160808301529097019660a00194939260010191906109e9565b8151815289946001909301929182019101610a15565b8386600192610a72859d9c999a9b9d610ed0565b8152019201920191909896959497986109c7565b634e487b7160e01b865260418752602486fd5b634e487b7160e01b845260418552602484fd5b9150346102275760203660031901126102275781359282548410156101a75750610ad7606093610d83565b509060018060a01b038254169260038301549201549181519384526020840152820152f35b5082346101a75760208060031936011261025b579081610b31610b1d610d6d565b858051610b2981610e22565b369037610f3f565b01518351929091835b60028210610b46578585f35b82806001928651815201940191019092610b3a565b83823461025b57610b6b36610d57565b9190338452600260205281842090845260205282205580f35b8382606036600319011261025b57604490368211610227577f00000000000000000000000000000000000000000000000000000000000000003410610ce257805193610bcf85610df1565b338552815192610bde84610e22565b81845b828210610cd257505060209182870194855283870191358252606087019634885260018060a01b03928382511688526003855263ffffffff9384878a205416610cce57835490600160401b821015610cbb57610c436001928381018755610d83565b949094610ca9575184546001600160a01b031916911690811784559751895b60028110610c9657505050600395969798839151878401555191015554169385525282209063ffffffff1982541617905580f35b8151858201840155908701908201610c62565b634e487b7160e01b8b528a865260248bfd5b634e487b7160e01b8a526041855260248afd5b8880fd5b8135815260209182019101610be1565b75135a5b9a5b5d5b481cdd185ad9481c995c5d5a5c995960521b60649260208693519362461bcd60e51b855284015260166024840152820152fd5b84903461025b578160031936011261025b576020907f00000000000000000000000000000000000000000000000000000000000000008152f35b6040906003190112610021576004359060243590565b600435906001600160a01b038216820361002157565b600454811015610da25760046000526005602060002091020190600090565b634e487b7160e01b600052603260045260246000fd5b15610dbf57565b60405162461bcd60e51b815260206004820152600a6024820152694f776e6572206f6e6c7960b01b6044820152606490fd5b608081019081106001600160401b03821117610e0c57604052565b634e487b7160e01b600052604160045260246000fd5b604081019081106001600160401b03821117610e0c57604052565b91908203918211610e4a57565b634e487b7160e01b600052601160045260246000fd5b63ffffffff9081166000190191908211610e4a57565b6004610e8a61055461054f610e9494610fde565b5001918254610e3d565b9055565b90808214610ecc57908154906000915b60028310610eb65750505050565b6001809194019283549481840155019192610ea8565b5050565b90604051610edd81610df1565b82546001600160a01b031681526040519092839160018083016000835b60028210610f2b575050505060609181610f15600493610e22565b6020850152600381015460408501520154910152565b825481529183019190830190602001610efa565b610f8261055461054f610f889360006060604051610f5c81610df1565b828152604051610f6b81610e22565b604036823760208201528260408201520152610fde565b50610ed0565b90565b6040916020918351610f9c81610e22565b600080825293018390526001600160a01b0316825260026020908152838320918352522060405190600190610fd083610e22565b805483520154602082015290565b6001600160a01b031660009081526003602052604090205463ffffffff1680156110055790565b60405162461bcd60e51b8152602060048201526013602482015272121bdcdd08191bd95cc81b9bdd08195e1a5cdd606a1b6044820152606490fdfea26469706673582212207aa4c431db9add6aa7cd303a5df72ec469fc7cecb831fa01c8c785d6604d7e2a64736f6c63430008110033",
  "immutableReferences": {
    "7": [
      {
        "length": 32,
        "start": 672
      }
    ],
    "10": [
      {
        "length": 32,
        "start": 481
      },
      {
        "length": 32,
        "start": 1049
      },
      {
        "length": 32,
        "start": 3380
      }
    ],
    "13": [
      {
        "length": 32,
        "start": 869
      },
      {
        "length": 32,
        "start": 2376
      },
      {
        "length": 32,
        "start": 2974
      }
    ],
    "16": [
      {
        "length": 32,
        "start": 994
      },
      {
        "length": 32,
        "start": 2191
      }
    ]
  },
  "source": "// SPDX-License-Identifier: MIT \r\n/*\r\n\r\nName: MecaHostContract\r\nDescription: An on-chain Host contract for MECA ecosystem\r\nAuthor: Ciocirlan Stefan-Dan (sdcioc)\r\nDate: Feb 2024\r\n\r\nMIT License\r\n\r\n*/\r\n\r\npragma solidity ^0.8.17;\r\n\r\nimport \"./HostAbstract.sol\";\r\n\r\ncontract MecaHostContract is MecaHostAbstractContract {\r\n    // host -> task_ipfsSha256 -> task_fees\r\n    mapping(address => mapping(bytes32 => HostTask)) hostTasks;\r\n\r\n    // We have a list with all the hosts and a mapping to check if a host exists\r\n    // and what is the position in the list of a host (if it exists is index + 1, if not is 0)\r\n    mapping(address => uint32) public hostsIndex;\r\n    Host[] public hosts;\r\n\r\n    // custom modifiers\r\n\r\n    // constructor\r\n\r\n    constructor(\r\n        uint256 hostRegisterFee,\r\n        uint256 hostInitialStake,\r\n        uint256 failedTaskPenalty,\r\n        uint256 taskRegisterFee\r\n    )\r\n        MecaHostAbstractContract(\r\n            hostRegisterFee,\r\n            hostInitialStake,\r\n            failedTaskPenalty,\r\n            taskRegisterFee\r\n        )\r\n    {\r\n    }\r\n\r\n    // External functions\r\n\r\n    // External functions that are view\r\n    \r\n    // External functions that are pure\r\n\r\n    // Public functions\r\n\r\n    // Internal functions\r\n\r\n    function _clear() internal override {\r\n    }\r\n\r\n    function _addHost(\r\n        Host memory host\r\n    ) internal override {\r\n        if (hostsIndex[host.owner] != 0) {\r\n            revert();\r\n        }\r\n        hosts.push(host);\r\n        hostsIndex[host.owner] = uint32(hosts.length);\r\n    }\r\n\r\n    function _addStake(\r\n        address hostAddress,\r\n        uint256 stake\r\n    ) internal override {\r\n        uint32 index = _getHostIndex(hostAddress);\r\n        hosts[index - 1].stake += stake;\r\n    }\r\n\r\n    function _removeStake(\r\n        address hostAddress,\r\n        uint256 stake\r\n    ) internal override {\r\n        uint32 index = _getHostIndex(hostAddress);\r\n        hosts[index - 1].stake -= stake;\r\n    }\r\n\r\n    function _updateBlockTimeoutLimit(\r\n        address hostAddress,\r\n        uint256 newBlockTimeoutLimit\r\n    ) internal override {\r\n        uint32 index = _getHostIndex(hostAddress);\r\n        hosts[index - 1].blockTimeoutLimit = newBlockTimeoutLimit;\r\n    }\r\n\r\n    function _updatePublicKey(\r\n        address hostAddress,\r\n        bytes32[2] calldata newPublicKey\r\n    ) internal override {\r\n        uint32 index = _getHostIndex(hostAddress);\r\n        hosts[index - 1].eccPublicKey = newPublicKey;\r\n    }\r\n\r\n    function _deleteHost(\r\n        address hostAddress\r\n    ) internal override  returns (uint256) {\r\n        uint32 index = _getHostIndex(hostAddress);\r\n        uint256 toPay = hosts[index - 1].stake;\r\n        hosts[index - 1] = hosts[hosts.length - 1];\r\n        hostsIndex[hosts[index - 1].owner] = index;\r\n        hostsIndex[hostAddress] = 0;\r\n        hosts.pop();\r\n        return toPay;\r\n    }\r\n\r\n    function _addTask(\r\n        address hostAddress,\r\n        bytes32 ipfsSha256,\r\n        HostTask memory task\r\n    ) internal override {\r\n        if (hostTasks[hostAddress][ipfsSha256].blockTimeout != 0) {\r\n            revert();\r\n        }\r\n        hostTasks[hostAddress][ipfsSha256] = task;\r\n    }\r\n\r\n    function _updateTaskBlockTimeout(\r\n        address hostAddress,\r\n        bytes32 ipfsSha256,\r\n        uint256 newBlockTimeout\r\n    ) internal override {\r\n        hostTasks[hostAddress][ipfsSha256].blockTimeout = newBlockTimeout;\r\n    }\r\n\r\n    function _updateTaskFee(\r\n        address hostAddress,\r\n        bytes32 ipfsSha256,\r\n        uint256 newFee\r\n    ) internal override {\r\n        hostTasks[hostAddress][ipfsSha256].fee = newFee;\r\n    }\r\n\r\n    function _deleteTask(\r\n        address hostAddress,\r\n        bytes32 ipfsSha256\r\n    ) internal override {\r\n        delete hostTasks[hostAddress][ipfsSha256];\r\n    }\r\n\r\n    // Internal functions that are view\r\n\r\n    function _getHost(\r\n        address hostAddress\r\n    )\r\n        internal\r\n        view\r\n        override\r\n        returns (Host memory)\r\n    {\r\n        uint32 index = _getHostIndex(hostAddress);\r\n        return hosts[index - 1];\r\n    }\r\n\r\n    function _getHosts(\r\n    )\r\n        internal\r\n        view\r\n        override\r\n        returns (Host[] memory)\r\n    {\r\n        return hosts;\r\n    }\r\n\r\n    function _getTask(\r\n        address hostAddress,\r\n        bytes32 ipfsSha256\r\n    )\r\n        internal\r\n        view\r\n        override\r\n        returns (HostTask memory)\r\n    {\r\n        return hostTasks[hostAddress][ipfsSha256];\r\n    }\r\n\r\n    // Internal functions that are pure\r\n\r\n    // Private functions\r\n\r\n    function _getHostIndex(\r\n        address hostAddress\r\n    ) private view returns (uint32) {\r\n        uint32 index = hostsIndex[hostAddress];\r\n        require(index != 0, \"Host does not exist\");\r\n        return index;\r\n    }\r\n\r\n}",
  "sourcePath": "C:\\Users\\jxlim\\repos\\meca_contracts\\src\\contracts\\HostContract.sol",
  "compiler": {
    "name": "solc",
    "version": "0.8.17+commit.8df45f5f.Emscripten.clang"
  },
  "schemaVersion": "3.4.12",
  "updatedAt": "2024-02-26T02:39:08.402Z",
  "devdoc": {
    "kind": "dev",
    "methods": {
      "addStake()": {
        "details": "This function is used to add stake to the host"
      },
      "addTask(bytes32,uint256,uint256)": {
        "params": {
          "blockTimeout": "The block timeout of the task",
          "fee": "The fee of the task",
          "ipfsSha256": "The IPFS hash of the task"
        }
      },
      "clear()": {
        "details": "This function is used to clear the contract"
      },
      "deleteTask(bytes32)": {
        "params": {
          "ipfsSha256": "The IPFS hash of the task"
        }
      },
      "getHostBlockTimeoutLimit(address)": {
        "params": {
          "hostAddress": "The address of the host"
        },
        "returns": {
          "_0": "uint256 The block timeout limit of the host"
        }
      },
      "getHostPublicKey(address)": {
        "params": {
          "hostAddress": "The address of the host"
        },
        "returns": {
          "_0": "bytes32[2] The public key of the host"
        }
      },
      "getHostStake(address)": {
        "params": {
          "hostAddress": "The address of the host"
        },
        "returns": {
          "_0": "uint256 The stake of the host"
        }
      },
      "getHosts()": {
        "returns": {
          "_0": "Host[] The hosts"
        }
      },
      "getTaskBlockTimeout(address,bytes32)": {
        "params": {
          "hostAddress": "The address of the host",
          "ipfsSha256": "The IPFS hash of the task"
        },
        "returns": {
          "_0": "uint256 The block timeout of the task"
        }
      },
      "getTaskFee(address,bytes32)": {
        "params": {
          "hostAddress": "The address of the host",
          "ipfsSha256": "The IPFS hash of the task"
        },
        "returns": {
          "_0": "uint256 The fee of the task"
        }
      },
      "penaltyForFailedTask(address,address)": {
        "details": "This function is used to penalize the host for a failed task and send the penalty to the user",
        "params": {
          "hostAddress": "The address of the host",
          "userAddress": "The address of the user"
        }
      },
      "registerAsHost(bytes32[2],uint256)": {
        "params": {
          "blockTimeoutLimit": "The block timeout limit of the host",
          "publicKey": "The ecc public key of the host"
        }
      },
      "setSchedulerContractAddress(address)": {
        "params": {
          "newSchedulerContractAddress": "The new scheduler contract address"
        }
      },
      "updateBlockTimeoutLimit(uint256)": {
        "params": {
          "newBlockTimeoutLimit": "The new block timeout limit"
        }
      },
      "updatePublicKey(bytes32[2])": {
        "params": {
          "newPublicKey": "The new ecc public key"
        }
      },
      "updateTaskBlockTimeout(bytes32,uint256)": {
        "params": {
          "ipfsSha256": "The IPFS hash of the task",
          "newBlockTimeout": "The new block timeout of the task"
        }
      },
      "updateTaskFee(bytes32,uint256)": {
        "params": {
          "ipfsSha256": "The IPFS hash of the task",
          "newFee": "The new fee of the task"
        }
      },
      "widthdrawStake(uint256)": {
        "params": {
          "amount": "The amount to widthdraw"
        }
      }
    },
    "version": 1
  },
  "userdoc": {
    "kind": "user",
    "methods": {
      "FAILED_TASK_PENALTY()": {
        "notice": "The failed task fee"
      },
      "HOST_INITIAL_STAKE()": {
        "notice": "The initial stake for a host"
      },
      "HOST_REGISTER_FEE()": {
        "notice": "The register host fee"
      },
      "TASK_REGISTER_FEE()": {
        "notice": "The task register fee"
      },
      "addStake()": {
        "notice": "The addStake function"
      },
      "addTask(bytes32,uint256,uint256)": {
        "notice": "Add a task to the host"
      },
      "clear()": {
        "notice": "The clear function"
      },
      "deleteHost()": {
        "notice": "The deleteHost function"
      },
      "deleteTask(bytes32)": {
        "notice": "The deleteTask function"
      },
      "getHostBlockTimeoutLimit(address)": {
        "notice": "The get the host block timeout limit"
      },
      "getHostPublicKey(address)": {
        "notice": "The get the host public key"
      },
      "getHostStake(address)": {
        "notice": "The get the host stake"
      },
      "getHosts()": {
        "notice": "The get the hosts"
      },
      "getTaskBlockTimeout(address,bytes32)": {
        "notice": "The get the task block timeout"
      },
      "getTaskFee(address,bytes32)": {
        "notice": "The get the task fee"
      },
      "owner()": {
        "notice": "The owner of the contract"
      },
      "penaltyForFailedTask(address,address)": {
        "notice": "penalty for failed task"
      },
      "registerAsHost(bytes32[2],uint256)": {
        "notice": "The registerAsHost function"
      },
      "schedulerContractAddress()": {
        "notice": "The scheduler contract address"
      },
      "setSchedulerContractAddress(address)": {
        "notice": "The setSchedulerContractAddress function"
      },
      "updateBlockTimeoutLimit(uint256)": {
        "notice": "The updateBlockTimeoutLimit function"
      },
      "updatePublicKey(bytes32[2])": {
        "notice": "The updatePublicKey function"
      },
      "updateTaskBlockTimeout(bytes32,uint256)": {
        "notice": "The updateTaskBlockTimeout function"
      },
      "updateTaskFee(bytes32,uint256)": {
        "notice": "The update task fee function"
      },
      "widthdrawStake(uint256)": {
        "notice": "The widthdrawStake function"
      }
    },
    "version": 1
  }
}