{
  "contractName": "MecaSchedulerContract",
  "abi": [
    {
      "inputs": [
        {
          "internalType": "uint256",
          "name": "schedulerFee",
          "type": "uint256"
        }
      ],
      "stateMutability": "nonpayable",
      "type": "constructor"
    },
    {
      "stateMutability": "payable",
      "type": "fallback"
    },
    {
      "inputs": [],
      "name": "SCHEDULER_FEE",
      "outputs": [
        {
          "internalType": "uint256",
          "name": "",
          "type": "uint256"
        }
      ],
      "stateMutability": "view",
      "type": "function"
    },
    {
      "inputs": [],
      "name": "clear",
      "outputs": [],
      "stateMutability": "nonpayable",
      "type": "function"
    },
    {
      "inputs": [
        {
          "internalType": "bytes32",
          "name": "taskId",
          "type": "bytes32"
        }
      ],
      "name": "finishTask",
      "outputs": [],
      "stateMutability": "nonpayable",
      "type": "function"
    },
    {
      "inputs": [],
      "name": "getHostContract",
      "outputs": [
        {
          "internalType": "address",
          "name": "",
          "type": "address"
        }
      ],
      "stateMutability": "view",
      "type": "function"
    },
    {
      "inputs": [],
      "name": "getTaskContract",
      "outputs": [
        {
          "internalType": "address",
          "name": "",
          "type": "address"
        }
      ],
      "stateMutability": "view",
      "type": "function"
    },
    {
      "inputs": [],
      "name": "getTowerContract",
      "outputs": [
        {
          "internalType": "address",
          "name": "",
          "type": "address"
        }
      ],
      "stateMutability": "view",
      "type": "function"
    },
    {
      "inputs": [
        {
          "internalType": "address",
          "name": "",
          "type": "address"
        }
      ],
      "name": "hostsEndBlock",
      "outputs": [
        {
          "internalType": "uint256",
          "name": "",
          "type": "uint256"
        }
      ],
      "stateMutability": "view",
      "type": "function"
    },
    {
      "inputs": [],
      "name": "owner",
      "outputs": [
        {
          "internalType": "address payable",
          "name": "",
          "type": "address"
        }
      ],
      "stateMutability": "view",
      "type": "function"
    },
    {
      "inputs": [
        {
          "internalType": "bytes32",
          "name": "",
          "type": "bytes32"
        }
      ],
      "name": "runningTasks",
      "outputs": [
        {
          "internalType": "bytes32",
          "name": "ipfsSha256",
          "type": "bytes32"
        },
        {
          "internalType": "bytes32",
          "name": "inputHash",
          "type": "bytes32"
        },
        {
          "internalType": "uint256",
          "name": "size",
          "type": "uint256"
        },
        {
          "internalType": "address",
          "name": "towerAddress",
          "type": "address"
        },
        {
          "internalType": "address",
          "name": "hostAddress",
          "type": "address"
        },
        {
          "internalType": "address",
          "name": "owner",
          "type": "address"
        },
        {
          "internalType": "uint256",
          "name": "startBlock",
          "type": "uint256"
        },
        {
          "internalType": "uint256",
          "name": "blockTimeout",
          "type": "uint256"
        },
        {
          "components": [
            {
              "internalType": "uint256",
              "name": "tower",
              "type": "uint256"
            },
            {
              "internalType": "uint256",
              "name": "host",
              "type": "uint256"
            },
            {
              "internalType": "uint256",
              "name": "scheduler",
              "type": "uint256"
            },
            {
              "internalType": "uint256",
              "name": "task",
              "type": "uint256"
            },
            {
              "internalType": "uint256",
              "name": "insurance",
              "type": "uint256"
            }
          ],
          "internalType": "struct MecaSchedulerAbstractContract.RunningTaskFee",
          "name": "fee",
          "type": "tuple"
        }
      ],
      "stateMutability": "view",
      "type": "function"
    },
    {
      "inputs": [],
      "name": "schedulerFlag",
      "outputs": [
        {
          "internalType": "bool",
          "name": "",
          "type": "bool"
        }
      ],
      "stateMutability": "view",
      "type": "function"
    },
    {
      "inputs": [],
      "name": "schedulerNonce",
      "outputs": [
        {
          "internalType": "uint256",
          "name": "",
          "type": "uint256"
        }
      ],
      "stateMutability": "view",
      "type": "function"
    },
    {
      "inputs": [
        {
          "internalType": "address",
          "name": "towerAddress",
          "type": "address"
        },
        {
          "internalType": "address",
          "name": "hostAddress",
          "type": "address"
        },
        {
          "internalType": "bytes32",
          "name": "ipfsSha256",
          "type": "bytes32"
        },
        {
          "internalType": "bytes32",
          "name": "inputHash",
          "type": "bytes32"
        }
      ],
      "name": "sendTask",
      "outputs": [],
      "stateMutability": "payable",
      "type": "function"
    },
    {
      "inputs": [
        {
          "internalType": "address",
          "name": "newHostContract",
          "type": "address"
        }
      ],
      "name": "setHostContract",
      "outputs": [],
      "stateMutability": "nonpayable",
      "type": "function"
    },
    {
      "inputs": [
        {
          "internalType": "bool",
          "name": "newSchedulerFlag",
          "type": "bool"
        }
      ],
      "name": "setSchedulerFlag",
      "outputs": [],
      "stateMutability": "nonpayable",
      "type": "function"
    },
    {
      "inputs": [
        {
          "internalType": "address",
          "name": "newTaskContract",
          "type": "address"
        }
      ],
      "name": "setTaskContract",
      "outputs": [],
      "stateMutability": "nonpayable",
      "type": "function"
    },
    {
      "inputs": [
        {
          "internalType": "address",
          "name": "newTowerContract",
          "type": "address"
        }
      ],
      "name": "setTowerContract",
      "outputs": [],
      "stateMutability": "nonpayable",
      "type": "function"
    },
    {
      "inputs": [
        {
          "internalType": "address",
          "name": "",
          "type": "address"
        }
      ],
      "name": "towersSize",
      "outputs": [
        {
          "internalType": "uint256",
          "name": "",
          "type": "uint256"
        }
      ],
      "stateMutability": "view",
      "type": "function"
    },
    {
      "stateMutability": "payable",
      "type": "receive"
    },
    {
      "inputs": [
        {
          "internalType": "address",
          "name": "hostAddress",
          "type": "address"
        }
      ],
      "name": "getHostFirstAvailableBlock",
      "outputs": [
        {
          "internalType": "uint256",
          "name": "",
          "type": "uint256"
        }
      ],
      "stateMutability": "view",
      "type": "function"
    },
    {
      "inputs": [
        {
          "internalType": "address",
          "name": "towerAddress",
          "type": "address"
        }
      ],
      "name": "getTowerCurrentSize",
      "outputs": [
        {
          "internalType": "uint256",
          "name": "",
          "type": "uint256"
        }
      ],
      "stateMutability": "view",
      "type": "function"
    }
  ],
  "bytecode": "0x60a0346100a157601f61112438819003918201601f19168301916001600160401b038311848410176100a6578084926020946040528339810103126100a1575160018060a01b031990328260005416176000556080528060015416600155806002541660025560035416600355600060045560ff196005541660055560405161106790816100bd823960805181818161062c015281816109050152610a860152f35b600080fd5b634e487b7160e01b600052604160045260246000fdfe6080806040526004361015610020575b50361561001b57600080fd5b600080fd5b60003560e01c90816277285b14610ec9575080630182d79e14610e8f5780630efda04f14610e66578063191a1fa514610e435780631b1fb71b1461076b5780632e926915146107315780634b95fb06146106e857806352efea6e146106c057806357de12a81461067a57806366041a731461064f5780636735f2d614610614578063781d102a146102ed5780638c57c521146102a45780638da5cb5b1461027b578063a074f11e14610252578063abc1e7eb1461018d578063b5c0ca5a14610164578063b64d963d1461011b5763dce83940146100fd573861000f565b3461001b57600036600319011261001b576020600454604051908152f35b3461001b57602036600319011261001b57610134610eff565b6000546001600160a01b03919061014e9083163314610fa9565b1660018060a01b03196003541617600355600080f35b3461001b57600036600319011261001b576001546040516001600160a01b039091168152602090f35b3461001b57602036600319011261001b5760043560005260066020526101a060406000206080815491600181015490600281015460018060a01b0380600384015416908060048501541690600585015416916006850154936101f6600860078801549701610f6d565b96604051998a5260208a0152604089015260608801528587015260a086015260c085015260e084015280516101008401526020810151610120840152604081015161014084015260608101516101608401520151610180820152f35b3461001b57600036600319011261001b576002546040516001600160a01b039091168152602090f35b3461001b57600036600319011261001b576000546040516001600160a01b039091168152602090f35b3461001b57602036600319011261001b576102bd610eff565b6000546001600160a01b0391906102d79083163314610fa9565b1660018060a01b03196002541617600255600080f35b3461001b5760208060031936011261001b5760043560405161030e81610f30565b60008152600083820152600060408201526000606082015260006080820152600060a0820152600060c0820152600060e082015260405161034e81610f15565b600081526000848201526000604082015260006060820152600060808201526101008092015281600052600683526040600020906040519161038f83610f30565b805483526001810154858401526002810154604084015260018060a01b03938460038301541660608501908152858060048501541693608087019485526103fa6008836005840154169260a08a01938452600681015460c08b0152600781015460e08b015201610f6d565b958701958652511633036105c45781600052600687526002604060002001549186600360406000200154166000526007885260406000209283549081039081116105ae578760009493859493859493859455835260068b5282600c6040822082815582600182015582600282015582600382015582600482015582600582015582600682015582600782015582600882015582600982015582600a82015582600b82015501555116865151908282156105a5575bf1156105415760008080868194511688865101519082821561059c575bf115610541576000808080608085510151818115610593575b3390f11561054157838360025416925160246040518095819363f5108acf60e01b835260048301525afa91821561054157600092610557575b50600093508392839260608493510151918391831561054d575b1690f11561054157005b6040513d6000823e3d90fd5b6108fc9250610537565b8092508491943d831161058c575b61056f8183610f4c565b8101031261001b575191818316830361001b57600092908361051d565b503d610565565b506108fc6104e4565b506108fc6104cb565b506108fc6104ae565b634e487b7160e01b600052601160045260246000fd5b60405162461bcd60e51b815260048101889052602260248201527f4f6e6c7920746865206f776e65722063616e2066696e69736820746865207461604482015261736b60f01b6064820152608490fd5b3461001b57600036600319011261001b5760206040517f00000000000000000000000000000000000000000000000000000000000000008152f35b3461001b57602036600319011261001b57602061067261066d610eff565b61100a565b604051908152f35b3461001b57602036600319011261001b5760043580151580910361001b576106ad60018060a01b03600054163314610fa9565b60ff801960055416911617600555600080f35b3461001b57600036600319011261001b576106e660018060a01b03600054163314610fa9565b005b3461001b57602036600319011261001b57610701610eff565b6000546001600160a01b03919061071b9083163314610fa9565b1660018060a01b03196001541617600155600080f35b3461001b57602036600319011261001b576001600160a01b03610752610eff565b1660005260086020526020604060002054604051908152f35b608036600319011261001b5761077f610eff565b6024356001600160a01b038116900361001b5760ff6005541615610e0757600254604051636802756f60e11b8152604435600482015291906001600160a01b0316602083602481845afa92831561054157600093610dd2575b5091602060249360405194858092638b90363b60e01b825260443560048301525afa92831561054157600093610d9e575b50600154604051639e89c6f360e01b81526001600160a01b0390911691906020818061083d60443560243560048401610fe2565b0381865afa90811561054157600091610d6c575b50600354604051636daed56f60e11b81526001600160a01b03868116600483015260248201889052604482018490529095911690602086606481855afa95861561054157600096610d38575b50604051631f1d38bb60e21b815290602082806108c260443560243560048401610fe2565b0381895afa91821561054157600092610d04575b50600a6108ec886108e78589610ffd565b610ffd565b049561092a876108e76109038b6108e7888c610ffd565b7f000000000000000000000000000000000000000000000000000000000000000090610ffd565b3403610cd157604051630917c3e560e31b81526001600160a01b038316600482015293602090859060249082905afa93841561054157600094610c9c575b5060405163e24edcab60e01b8152602480356001600160a01b03166004830152909491602091869182905afa93841561054157600094610c68575b506109af60243561100a565b936109c46109bd8787610ffd565b9143610ffd565b10610c195760018060a01b03821660005260076020526109e989604060002054610ffd565b11610bd8576004546040516001600160601b0319606084811b82166020840152602435901b16603482015260443560488201526064356068820152608880820183905281529096909560c087018088116001600160401b0390911117610bc25760c0870160405286516020880120936001890189116105ae57600c99600160809a01600455610a7a60c08a01610f15565b60c089015260e08801527f000000000000000000000000000000000000000000000000000000000000000061010088015261012087015261014086015260405197610ac489610f30565b604435895260643560208a015260408901908152606089019160018060a01b031682528689019060018060a01b0360243516825260a08a019333855260c08b0195865260e08b0196875260c06101008c01980188526000526006602052602060406000209a80518c55015160018b01555160028a0155600389019160018060a01b039051169160018060a01b03199283825416179055600489019060018060a01b0390511682825416179055600588019160018060a01b03905116908254161790555160068601555160078501555180516008850155602081015160098501556040810151600a8501556060810151600b8501550151910155600080f35b634e487b7160e01b600052604160045260246000fd5b60405162461bcd60e51b8152602060048201526019602482015278151bddd95c881cda5e99481b1a5b5a5d08195e18d959591959603a1b6044820152606490fd5b60405162461bcd60e51b815260206004820152602160248201527f486f737420626c6f636b2074696d656f7574206c696d697420657863656564656044820152601960fa1b6064820152608490fd5b9093506020813d602011610c94575b81610c8460209383610f4c565b8101031261001b575192896109a3565b3d9150610c77565b93506020843d602011610cc9575b81610cb760209383610f4c565b8101031261001b579251926020610968565b3d9150610caa565b60405162461bcd60e51b815260206004820152600b60248201526a57726f6e672066756e647360a81b6044820152606490fd5b9091506020813d602011610d30575b81610d2060209383610f4c565b8101031261001b575190886108d6565b3d9150610d13565b9095506020813d602011610d64575b81610d5460209383610f4c565b8101031261001b5751948761089d565b3d9150610d47565b90506020813d602011610d96575b81610d8760209383610f4c565b8101031261001b575185610851565b3d9150610d7a565b9092506020813d602011610dca575b81610dba60209383610f4c565b8101031261001b57519183610809565b3d9150610dad565b92506020833d602011610dff575b81610ded60209383610f4c565b8101031261001b5791519160206107d8565b3d9150610de0565b60405162461bcd60e51b81526020600482015260146024820152735363686564756c6572206e6f742061637469766560601b6044820152606490fd5b3461001b57600036600319011261001b57602060ff600554166040519015158152f35b3461001b57600036600319011261001b576003546040516001600160a01b039091168152602090f35b3461001b57602036600319011261001b576001600160a01b03610eb0610eff565b1660005260076020526020604060002054604051908152f35b3461001b57602036600319011261001b576020906001600160a01b03610eed610eff565b16600052600782526040600020548152f35b600435906001600160a01b038216820361001b57565b60a081019081106001600160401b03821117610bc257604052565b61012081019081106001600160401b03821117610bc257604052565b90601f801991011681019081106001600160401b03821117610bc257604052565b90604051610f7a81610f15565b608060048294805484526001810154602085015260028101546040850152600381015460608501520154910152565b15610fb057565b60405162461bcd60e51b815260206004820152600a6024820152694f776e6572206f6e6c7960b01b6044820152606490fd5b6001600160a01b039091168152602081019190915260400190565b919082018092116105ae57565b6001600160a01b031660009081526008602052604090205443811061102c5790565b50439056fea2646970667358221220615d865d1d32362793d0622add9eb7e7beb9d679b1886db90bfe59d99068aa7b64736f6c63430008110033",
  "immutableReferences": {
    "1188": [
      {
        "length": 32,
        "start": 1580
      },
      {
        "length": 32,
        "start": 2309
      },
      {
        "length": 32,
        "start": 2694
      }
    ]
  },
  "source": "// SPDX-License-Identifier: MIT \r\n/*\r\n\r\nName: MecaSchedulerContract\r\nDescription: An on-chain Scheduler contract for MECA ecosystem\r\nAuthor: Ciocirlan Stefan-Dan (sdcioc)\r\nDate: Feb 2024\r\n\r\nMIT License\r\n\r\n*/\r\n\r\npragma solidity ^0.8.17;\r\n\r\nimport \"./SchedulerAbstract.sol\";\r\n\r\ncontract MecaSchedulerContract is MecaSchedulerAbstractContract\r\n{\r\n    /// The running tasks map of taskId to running task\r\n    mapping(bytes32 => RunningTask) public runningTasks;\r\n    /// The Tower size map of towerAddress to size\r\n    mapping(address => uint256) public towersSize;\r\n    /// The end block of the hosts map of hostAddress to endBlock\r\n    mapping(address => uint256) public hostsEndBlock;\r\n\r\n    // custom modifiers\r\n\r\n    // constructor\r\n    constructor(\r\n        uint256 schedulerFee\r\n    ) MecaSchedulerAbstractContract(schedulerFee)\r\n    {\r\n    }\r\n\r\n    // External functions\r\n\r\n    // External functions that are view\r\n    \r\n    // External functions that are pure\r\n\r\n    // Public functions\r\n\r\n    function getHostFirstAvailableBlock(\r\n        address hostAddress\r\n    ) public view override returns (uint256)\r\n    {\r\n        uint256 hostFirstAvailableBlock = hostsEndBlock[hostAddress];\r\n        if (hostFirstAvailableBlock < block.number) {\r\n            hostFirstAvailableBlock = block.number;\r\n        }\r\n        return hostFirstAvailableBlock;\r\n    }\r\n\r\n    function getTowerCurrentSize(\r\n        address towerAddress\r\n    ) public view override returns (uint256)\r\n    {\r\n        return towersSize[towerAddress];\r\n    }\r\n\r\n    // Internal functions\r\n\r\n    function _clear() internal override\r\n    {\r\n    }\r\n\r\n    function _addRunningTask(\r\n        bytes32 taskId,\r\n        RunningTask memory runningTask\r\n    ) internal override\r\n    {\r\n        runningTasks[taskId] = runningTask;\r\n    }\r\n\r\n    function _deleteRunningTask(\r\n        bytes32 taskId\r\n    ) internal override\r\n    {\r\n        towersSize[runningTasks[taskId].towerAddress] -= runningTasks[taskId].size;\r\n        delete runningTasks[taskId];\r\n    }\r\n\r\n    // Internal functions that are view\r\n\r\n    function _getRunningTask(\r\n        bytes32 taskId\r\n    ) internal view override returns (RunningTask memory)\r\n    {\r\n        return runningTasks[taskId];\r\n    }\r\n\r\n    // Private functions\r\n\r\n}",
  "sourcePath": "C:\\Users\\jxlim\\repos\\meca_contracts\\src\\contracts\\SchedulerContract.sol",
  "compiler": {
    "name": "solc",
    "version": "0.8.17+commit.8df45f5f.Emscripten.clang"
  },
  "schemaVersion": "3.4.12",
  "updatedAt": "2024-02-26T02:39:08.443Z",
  "devdoc": {
    "kind": "dev",
    "methods": {
      "clear()": {
        "details": "This function is used to clear the contract"
      },
      "finishTask(bytes32)": {
        "params": {
          "taskId": "The ID of the task"
        }
      },
      "getHostFirstAvailableBlock(address)": {
        "params": {
          "hostAddress": "The address of the host"
        },
        "returns": {
          "_0": "uint256 The first available block"
        }
      },
      "getTowerCurrentSize(address)": {
        "params": {
          "towerAddress": "The address of the tower"
        },
        "returns": {
          "_0": "uint256 The current size of the tower"
        }
      },
      "sendTask(address,address,bytes32,bytes32)": {
        "params": {
          "hostAddress": "The address of the host",
          "inputHash": "The hash of the input",
          "ipfsSha256": "The IPFS hash of the task",
          "towerAddress": "The address of the tower"
        }
      },
      "setHostContract(address)": {
        "params": {
          "newHostContract": "The new host contract"
        }
      },
      "setSchedulerFlag(bool)": {
        "params": {
          "newSchedulerFlag": "The new scheduler flag"
        }
      },
      "setTaskContract(address)": {
        "params": {
          "newTaskContract": "The new task contract"
        }
      },
      "setTowerContract(address)": {
        "params": {
          "newTowerContract": "The new tower contract"
        }
      }
    },
    "version": 1
  },
  "userdoc": {
    "kind": "user",
    "methods": {
      "SCHEDULER_FEE()": {
        "notice": "The scheduler fee"
      },
      "clear()": {
        "notice": "The clear function"
      },
      "finishTask(bytes32)": {
        "notice": "Finish a task"
      },
      "getHostContract()": {
        "notice": "Get the host contract"
      },
      "getHostFirstAvailableBlock(address)": {
        "notice": "Get the host first available block"
      },
      "getTaskContract()": {
        "notice": "Get the task contract"
      },
      "getTowerContract()": {
        "notice": "Get the tower contract"
      },
      "getTowerCurrentSize(address)": {
        "notice": "Get the tower current size"
      },
      "hostsEndBlock(address)": {
        "notice": "The end block of the hosts map of hostAddress to endBlock"
      },
      "owner()": {
        "notice": "The owner of the contract"
      },
      "runningTasks(bytes32)": {
        "notice": "The running tasks map of taskId to running task"
      },
      "schedulerFlag()": {
        "notice": "The scheduler flag"
      },
      "schedulerNonce()": {
        "notice": "The scheduler nonce"
      },
      "sendTask(address,address,bytes32,bytes32)": {
        "notice": "Send a task to the scheduler"
      },
      "setHostContract(address)": {
        "notice": "The setHostContract function"
      },
      "setSchedulerFlag(bool)": {
        "notice": "The setSchedulerFlag function"
      },
      "setTaskContract(address)": {
        "notice": "The setTaskContract function"
      },
      "setTowerContract(address)": {
        "notice": "The setTowerContract function"
      },
      "towersSize(address)": {
        "notice": "The Tower size map of towerAddress to size"
      }
    },
    "version": 1
  }
}