{
  "contractName": "MecaDaoContract",
  "abi": [
    {
      "inputs": [],
      "stateMutability": "nonpayable",
      "type": "constructor"
    },
    {
      "stateMutability": "payable",
      "type": "fallback"
    },
    {
      "inputs": [],
      "name": "owner",
      "outputs": [
        {
          "internalType": "address payable",
          "name": "",
          "type": "address"
        }
      ],
      "stateMutability": "view",
      "type": "function"
    },
    {
      "stateMutability": "payable",
      "type": "receive"
    },
    {
      "inputs": [],
      "name": "clear",
      "outputs": [],
      "stateMutability": "nonpayable",
      "type": "function"
    },
    {
      "inputs": [
        {
          "internalType": "address",
          "name": "newSchedulerContract",
          "type": "address"
        }
      ],
      "name": "setSchedulerContract",
      "outputs": [],
      "stateMutability": "nonpayable",
      "type": "function"
    },
    {
      "inputs": [],
      "name": "getSchedulerContract",
      "outputs": [
        {
          "internalType": "address",
          "name": "",
          "type": "address"
        }
      ],
      "stateMutability": "view",
      "type": "function"
    }
  ],
  "bytecode": "0x6080806040523461002f5760018060a01b0319338160005416176000556001541660015561025990816100358239f35b600080fdfe6040608081526004361015610020575b50361561001b57600080fd5b600080fd5b600090813560e01c8063521473b01461019657806352efea6e146100ab57806363f609711461008357638da5cb5b14610059575061000f565b3461007f578160031936011261007f57905490516001600160a01b039091168152602090f35b5080fd5b503461007f578160031936011261007f5760015490516001600160a01b039091168152602090f35b503461007f578160031936011261007f578180808060018060a01b038154166100d58133146101ea565b600180546001600160a01b031916905547905af13d156101915767ffffffffffffffff3d81811161017d57835191601f8201601f19908116603f011683019081118382101761016957845281528360203d92013e5b15610133575080f35b5162461bcd60e51b815260206004820152601060248201526f2a3930b739b332b9103330b4b632b21760811b6044820152606490fd5b634e487b7160e01b86526041600452602486fd5b634e487b7160e01b85526041600452602485fd5b61012a565b82346101e75760203660031901126101e7576004356001600160a01b03818116918290036101e3576101cc9083541633146101ea565b600180546001600160a01b03191691909117905580f35b8280fd5b80fd5b156101f157565b60405162461bcd60e51b815260206004820152600a6024820152694f776e6572206f6e6c7960b01b6044820152606490fdfea264697066735822122076e8434a7d227dfb7d01e40a49239517d697099d73ad0e0f448e7e28455d46a464736f6c63430008110033",
  "immutableReferences": {},
  "source": "// SPDX-License-Identifier: MIT \r\n/*\r\n\r\nName: MecaDaoContract\r\nDescription: An on-chain DAO contract for MECA ecosystem\r\nAuthor: Ciocirlan Stefan-Dan (sdcioc)\r\nDate: Feb 2024\r\n\r\nMIT License\r\n\r\n*/\r\n\r\npragma solidity ^0.8.17;\r\n\r\n\r\nimport \"./SchedulerAbstract.sol\";\r\n\r\ncontract MecaDaoContract\r\n{\r\n    /// The owner of the contract\r\n\taddress payable public owner;\r\n    /// The scheduler contract\r\n    MecaSchedulerAbstractContract schedulerContract;\r\n\r\n    // custom modifiers\r\n    /**\r\n    * @notice The onlyOwner modifier\r\n    */\r\n    modifier onlyOwner() {\r\n        require(msg.sender == owner, \"Owner only\");\r\n        _;\r\n    }\r\n\r\n    // constructor\r\n    constructor() {\r\n        owner = payable(msg.sender);\r\n        schedulerContract = MecaSchedulerAbstractContract(payable(address(0)));\r\n    }\r\n\r\n    // receive function\r\n\r\n    /**\r\n    * @notice The receive function\r\n    */\r\n    receive() external payable {\r\n        revert();\r\n    }\r\n\r\n    // fallback function\r\n\r\n    /**\r\n    * @notice The fallback function\r\n    */\r\n    fallback() external payable {\r\n        revert();\r\n    }\r\n\r\n    // External functions\r\n\r\n    /**\r\n    * @notice The clear function\r\n    */\r\n    function clear() external onlyOwner {\r\n        schedulerContract = MecaSchedulerAbstractContract(\r\n            payable(address(0))\r\n        );\r\n        (bool success, ) = owner.call{value: address(this).balance}(\"\");\r\n        require(success, \"Transfer failed.\");\r\n    }\r\n\r\n    /**\r\n    * @notice The setSchedulerContract function\r\n    * @param newSchedulerContract The new scheduler contract\r\n    */\r\n    function setSchedulerContract(\r\n        address newSchedulerContract\r\n    ) external onlyOwner {\r\n        schedulerContract = MecaSchedulerAbstractContract(\r\n            payable(newSchedulerContract)\r\n        );\r\n    }\r\n\r\n    // External functions that are view\r\n\r\n    /**\r\n    * @notice The getSchedulerContract function\r\n    * @return address The scheduler contract adddress\r\n    */\r\n    function getSchedulerContract() external view returns (address) {\r\n        return address(schedulerContract);\r\n    }\r\n    \r\n    // External functions that are pure\r\n\r\n    // Public functions\r\n\r\n    // Internal functions\r\n\r\n    // Internal functions that are view\r\n\r\n    // Private functions\r\n\r\n\r\n\r\n}\r\n",
  "sourcePath": "C:\\Users\\jxlim\\repos\\meca_contracts\\src\\contracts\\MecaContract.sol",
  "compiler": {
    "name": "solc",
    "version": "0.8.17+commit.8df45f5f.Emscripten.clang"
  },
  "schemaVersion": "3.4.12",
  "updatedAt": "2024-02-29T01:53:24.825Z",
  "devdoc": {
    "kind": "dev",
    "methods": {
      "getSchedulerContract()": {
        "returns": {
          "_0": "address The scheduler contract adddress"
        }
      },
      "setSchedulerContract(address)": {
        "params": {
          "newSchedulerContract": "The new scheduler contract"
        }
      }
    },
    "version": 1
  },
  "userdoc": {
    "kind": "user",
    "methods": {
      "clear()": {
        "notice": "The clear function"
      },
      "getSchedulerContract()": {
        "notice": "The getSchedulerContract function"
      },
      "owner()": {
        "notice": "The owner of the contract"
      },
      "setSchedulerContract(address)": {
        "notice": "The setSchedulerContract function"
      }
    },
    "version": 1
  }
}