{
  "contractName": "MecaSchedulerContract",
  "abi": [
    {
      "inputs": [
        {
          "internalType": "uint256",
          "name": "schedulerFee",
          "type": "uint256"
        }
      ],
      "stateMutability": "nonpayable",
      "type": "constructor"
    },
    {
      "anonymous": false,
      "inputs": [
        {
          "indexed": false,
          "internalType": "bytes32",
          "name": "taskId",
          "type": "bytes32"
        },
        {
          "indexed": false,
          "internalType": "address",
          "name": "sender",
          "type": "address"
        }
      ],
      "name": "TaskSent",
      "type": "event"
    },
    {
      "stateMutability": "payable",
      "type": "fallback",
      "payable": true
    },
    {
      "inputs": [],
      "name": "SCHEDULER_FEE",
      "outputs": [
        {
          "internalType": "uint256",
          "name": "",
          "type": "uint256"
        }
      ],
      "stateMutability": "view",
      "type": "function",
      "constant": true
    },
    {
      "inputs": [],
      "name": "clear",
      "outputs": [],
      "stateMutability": "nonpayable",
      "type": "function"
    },
    {
      "inputs": [
        {
          "internalType": "bytes32",
          "name": "taskId",
          "type": "bytes32"
        }
      ],
      "name": "finishTask",
      "outputs": [],
      "stateMutability": "nonpayable",
      "type": "function"
    },
    {
      "inputs": [],
      "name": "getHostContract",
      "outputs": [
        {
          "internalType": "address",
          "name": "",
          "type": "address"
        }
      ],
      "stateMutability": "view",
      "type": "function",
      "constant": true
    },
    {
      "inputs": [
        {
          "internalType": "bytes32",
          "name": "taskId",
          "type": "bytes32"
        }
      ],
      "name": "getRunningTask",
      "outputs": [
        {
          "components": [
            {
              "internalType": "bytes32",
              "name": "ipfsSha256",
              "type": "bytes32"
            },
            {
              "internalType": "bytes32",
              "name": "inputHash",
              "type": "bytes32"
            },
            {
              "internalType": "uint256",
              "name": "size",
              "type": "uint256"
            },
            {
              "internalType": "address",
              "name": "towerAddress",
              "type": "address"
            },
            {
              "internalType": "address",
              "name": "hostAddress",
              "type": "address"
            },
            {
              "internalType": "address",
              "name": "owner",
              "type": "address"
            },
            {
              "internalType": "uint256",
              "name": "startBlock",
              "type": "uint256"
            },
            {
              "internalType": "uint256",
              "name": "blockTimeout",
              "type": "uint256"
            },
            {
              "components": [
                {
                  "internalType": "uint256",
                  "name": "tower",
                  "type": "uint256"
                },
                {
                  "internalType": "uint256",
                  "name": "host",
                  "type": "uint256"
                },
                {
                  "internalType": "uint256",
                  "name": "scheduler",
                  "type": "uint256"
                },
                {
                  "internalType": "uint256",
                  "name": "task",
                  "type": "uint256"
                },
                {
                  "internalType": "uint256",
                  "name": "insurance",
                  "type": "uint256"
                }
              ],
              "internalType": "struct MecaSchedulerAbstractContract.RunningTaskFee",
              "name": "fee",
              "type": "tuple"
            }
          ],
          "internalType": "struct MecaSchedulerAbstractContract.RunningTask",
          "name": "",
          "type": "tuple"
        }
      ],
      "stateMutability": "view",
      "type": "function",
      "constant": true
    },
    {
      "inputs": [],
      "name": "getTaskContract",
      "outputs": [
        {
          "internalType": "address",
          "name": "",
          "type": "address"
        }
      ],
      "stateMutability": "view",
      "type": "function",
      "constant": true
    },
    {
      "inputs": [],
      "name": "getTowerContract",
      "outputs": [
        {
          "internalType": "address",
          "name": "",
          "type": "address"
        }
      ],
      "stateMutability": "view",
      "type": "function",
      "constant": true
    },
    {
      "inputs": [
        {
          "internalType": "address",
          "name": "",
          "type": "address"
        }
      ],
      "name": "hostsEndBlock",
      "outputs": [
        {
          "internalType": "uint256",
          "name": "",
          "type": "uint256"
        }
      ],
      "stateMutability": "view",
      "type": "function",
      "constant": true
    },
    {
      "inputs": [],
      "name": "owner",
      "outputs": [
        {
          "internalType": "address payable",
          "name": "",
          "type": "address"
        }
      ],
      "stateMutability": "view",
      "type": "function",
      "constant": true
    },
    {
      "inputs": [
        {
          "internalType": "bytes32",
          "name": "",
          "type": "bytes32"
        }
      ],
      "name": "runningTasks",
      "outputs": [
        {
          "internalType": "bytes32",
          "name": "ipfsSha256",
          "type": "bytes32"
        },
        {
          "internalType": "bytes32",
          "name": "inputHash",
          "type": "bytes32"
        },
        {
          "internalType": "uint256",
          "name": "size",
          "type": "uint256"
        },
        {
          "internalType": "address",
          "name": "towerAddress",
          "type": "address"
        },
        {
          "internalType": "address",
          "name": "hostAddress",
          "type": "address"
        },
        {
          "internalType": "address",
          "name": "owner",
          "type": "address"
        },
        {
          "internalType": "uint256",
          "name": "startBlock",
          "type": "uint256"
        },
        {
          "internalType": "uint256",
          "name": "blockTimeout",
          "type": "uint256"
        },
        {
          "components": [
            {
              "internalType": "uint256",
              "name": "tower",
              "type": "uint256"
            },
            {
              "internalType": "uint256",
              "name": "host",
              "type": "uint256"
            },
            {
              "internalType": "uint256",
              "name": "scheduler",
              "type": "uint256"
            },
            {
              "internalType": "uint256",
              "name": "task",
              "type": "uint256"
            },
            {
              "internalType": "uint256",
              "name": "insurance",
              "type": "uint256"
            }
          ],
          "internalType": "struct MecaSchedulerAbstractContract.RunningTaskFee",
          "name": "fee",
          "type": "tuple"
        }
      ],
      "stateMutability": "view",
      "type": "function",
      "constant": true
    },
    {
      "inputs": [],
      "name": "schedulerFlag",
      "outputs": [
        {
          "internalType": "bool",
          "name": "",
          "type": "bool"
        }
      ],
      "stateMutability": "view",
      "type": "function",
      "constant": true
    },
    {
      "inputs": [],
      "name": "schedulerNonce",
      "outputs": [
        {
          "internalType": "uint256",
          "name": "",
          "type": "uint256"
        }
      ],
      "stateMutability": "view",
      "type": "function",
      "constant": true
    },
    {
      "inputs": [
        {
          "internalType": "address",
          "name": "towerAddress",
          "type": "address"
        },
        {
          "internalType": "address",
          "name": "hostAddress",
          "type": "address"
        },
        {
          "internalType": "bytes32",
          "name": "ipfsSha256",
          "type": "bytes32"
        },
        {
          "internalType": "bytes32",
          "name": "inputHash",
          "type": "bytes32"
        }
      ],
      "name": "sendTask",
      "outputs": [],
      "stateMutability": "payable",
      "type": "function",
      "payable": true
    },
    {
      "inputs": [
        {
          "internalType": "address",
          "name": "newHostContract",
          "type": "address"
        }
      ],
      "name": "setHostContract",
      "outputs": [],
      "stateMutability": "nonpayable",
      "type": "function"
    },
    {
      "inputs": [
        {
          "internalType": "bool",
          "name": "newSchedulerFlag",
          "type": "bool"
        }
      ],
      "name": "setSchedulerFlag",
      "outputs": [],
      "stateMutability": "nonpayable",
      "type": "function"
    },
    {
      "inputs": [
        {
          "internalType": "address",
          "name": "newTaskContract",
          "type": "address"
        }
      ],
      "name": "setTaskContract",
      "outputs": [],
      "stateMutability": "nonpayable",
      "type": "function"
    },
    {
      "inputs": [
        {
          "internalType": "address",
          "name": "newTowerContract",
          "type": "address"
        }
      ],
      "name": "setTowerContract",
      "outputs": [],
      "stateMutability": "nonpayable",
      "type": "function"
    },
    {
      "inputs": [
        {
          "internalType": "address",
          "name": "",
          "type": "address"
        }
      ],
      "name": "towersSize",
      "outputs": [
        {
          "internalType": "uint256",
          "name": "",
          "type": "uint256"
        }
      ],
      "stateMutability": "view",
      "type": "function",
      "constant": true
    },
    {
      "stateMutability": "payable",
      "type": "receive",
      "payable": true
    },
    {
      "inputs": [
        {
          "internalType": "address",
          "name": "hostAddress",
          "type": "address"
        }
      ],
      "name": "getHostFirstAvailableBlock",
      "outputs": [
        {
          "internalType": "uint256",
          "name": "",
          "type": "uint256"
        }
      ],
      "stateMutability": "view",
      "type": "function",
      "constant": true
    },
    {
      "inputs": [
        {
          "internalType": "address",
          "name": "towerAddress",
          "type": "address"
        }
      ],
      "name": "getTowerCurrentSize",
      "outputs": [
        {
          "internalType": "uint256",
          "name": "",
          "type": "uint256"
        }
      ],
      "stateMutability": "view",
      "type": "function",
      "constant": true
    }
  ],
  "bytecode": "0x60a0346100a157601f61125938819003918201601f19168301916001600160401b038311848410176100a6578084926020946040528339810103126100a1575160018060a01b031990328260005416176000556080528060015416600155806002541660025560035416600355600060045560ff196005541660055560405161119c90816100bd82396080518181816105c8015281816108ab01526108f10152f35b600080fd5b634e487b7160e01b600052604160045260246000fdfe6080806040526004361015610020575b50361561001b57600080fd5b600080fd5b60003560e01c90816277285b14610ecb575080630182d79e14610e915780630efda04f14610e68578063191a1fa514610e455780631b1fb71b146107075780632e926915146106cd5780634b95fb061461068457806352efea6e1461065c57806357de12a81461061657806366041a73146105eb5780636735f2d6146105b0578063781d102a146103695780638c57c521146103205780638da5cb5b146102f7578063a074f11e146102ce578063abc1e7eb1461022f578063b5c0ca5a14610206578063b64d963d146101bd578063dce839401461019f5763f1caea5a14610108573861000f565b3461001b57602036600319011261001b57610121611064565b506101a06101306004356110d7565b61019d6040519180518352602081015160208401526040810151604084015260018060a01b0380606083015116606085015280608083015116608085015260a08201511660a084015260c081015160c084015260e081015160e08401526101008091015190830190610fab565bf35b3461001b57600036600319011261001b576020600454604051908152f35b3461001b57602036600319011261001b576101d6610f01565b6000546001600160a01b0391906101f09083163314610fd8565b1660018060a01b03196003541617600355600080f35b3461001b57600036600319011261001b576001546040516001600160a01b039091168152602090f35b3461001b57602036600319011261001b5760043560005260066020526101a0604060002061019d815491600181015490600281015460018060a01b038060038401541690806004850154169060058501541691600685015493610299600860078801549701610f6f565b96604051998a5260208a015260408901526060880152608087015260a086015260c085015260e0840152610100830190610fab565b3461001b57600036600319011261001b576002546040516001600160a01b039091168152602090f35b3461001b57600036600319011261001b576000546040516001600160a01b039091168152602090f35b3461001b57602036600319011261001b57610339610f01565b6000546001600160a01b0391906103539083163314610fd8565b1660018060a01b03196002541617600255600080f35b3461001b5760208060031936011261001b57600435610387816110d7565b60a08101516001600160a01b039290831633036105605780600052600684526002604060002001548360036040600020015416600052600785526040600020805491820391821161054a5755600052600683526000600c6040822082815582600182015582600282015582600382015582600482015582600582015582600682015582600782015582600882015582600982015582600a82015582600b820155015581606082015116600080808061010086019485515190828215610541575bf1156104dd57600080808086608087015116888651015190828215610538575bf1156104dd57600080808060808551015181811561052f575b3390f1156104dd57838360025416925160246040518095819363f5108acf60e01b835260048301525afa9182156104dd576000926104f3575b5060009350839283926060849351015191839183156104e9575b1690f1156104dd57005b6040513d6000823e3d90fd5b6108fc92506104d3565b8092508491943d8311610528575b61050b8183610f4e565b8101031261001b575191818316830361001b5760009290836104b9565b503d610501565b506108fc610480565b506108fc610467565b506108fc610447565b634e487b7160e01b600052601160045260246000fd5b60405162461bcd60e51b815260048101859052602260248201527f4f6e6c7920746865206f776e65722063616e2066696e69736820746865207461604482015261736b60f01b6064820152608490fd5b3461001b57600036600319011261001b5760206040517f00000000000000000000000000000000000000000000000000000000000000008152f35b3461001b57602036600319011261001b57602061060e610609610f01565b6110b0565b604051908152f35b3461001b57602036600319011261001b5760043580151580910361001b5761064960018060a01b03600054163314610fd8565b60ff801960055416911617600555600080f35b3461001b57600036600319011261001b5761068260018060a01b03600054163314610fd8565b005b3461001b57602036600319011261001b5761069d610f01565b6000546001600160a01b0391906106b79083163314610fd8565b1660018060a01b03196001541617600155600080f35b3461001b57602036600319011261001b576001600160a01b036106ee610f01565b1660005260086020526020604060002054604051908152f35b608036600319011261001b5761071b610f01565b6024356001600160a01b038116900361001b5760ff6005541615610e0957600254604051638b90363b60e01b815260443560048201526001600160a01b0390911691602082602481865afa9182156104dd57600092610dd5575b50600154604051639e89c6f360e01b8152916001600160a01b0390911690602083806107a960443560243560048401611011565b0381855afa9283156104dd57600093610d9e575b5060206024956107cb611039565b50604051636802756f60e11b8152604435600482015296879182905afa9485156104dd57600095610d6a575b50600354604051636daed56f60e11b81526001600160a01b038381166004830152602482018790526044820186905290939116602084606481845afa9384156104dd57600094610d36575b50604051631f1d38bb60e21b8152906020828061086760443560243560048401611011565b0381865afa9182156104dd57600092610d02575b50816108d08961089b6108a98961089b600a6108a08361089b8a8961102c565b61102c565b0496879561102c565b7f00000000000000000000000000000000000000000000000000000000000000009061102c565b3403610ccf57602498602093604051976108e989610f17565b8852848801527f000000000000000000000000000000000000000000000000000000000000000060408801526060870152608086015260405197888092630917c3e560e31b825260018060a01b03871660048301525afa9586156104dd57600096610c9a575b5060405163e24edcab60e01b8152602480356001600160a01b03166004830152909691602091889182905afa9586156104dd57600096610c66575b506109966024356110b0565b956109ab6109a4868961102c565b914361102c565b10610c175760018060a01b03821660005260076020526109d08560406000205461102c565b11610bd657600454604051926020840160018060601b0319808560601b16825260243560601b16603486015260443560488601526064356068860152826088860152608885528460c08101106001600160401b0360c087011117610bc05760c08501604052845190209460018301831161054a577fcfe6437cbca63a8c29f041708629c403575f4d257f1e9d25d95aa07cbd9400b497604097600c95600160809601600455610a8160c08901610f32565b60443560c089015260e08801916064358352610100890190815261012089019160018060a01b0316825261014089019060018060a01b036024351682526101608a01933385526101808b019586526101a08b019687526101c08b019788528b600052600660205260c08d6000209b01518b555160018b01555160028a0155600389019160018060a01b039051169160018060a01b03199283825416179055600489019060018060a01b0390511682825416179055600588019160018060a01b039051169082541617905551600686015551600785015551805160088501556020810151600985015585810151600a8501556060810151600b8501550151910155600282600020015460018060a01b036003846000200154166000526007602052610bb08360002091825461102c565b90558151908152336020820152a1005b634e487b7160e01b600052604160045260246000fd5b60405162461bcd60e51b8152602060048201526019602482015278151bddd95c881cda5e99481b1a5b5a5d08195e18d959591959603a1b6044820152606490fd5b60405162461bcd60e51b815260206004820152602160248201527f486f737420626c6f636b2074696d656f7574206c696d697420657863656564656044820152601960fa1b6064820152608490fd5b9095506020813d602011610c92575b81610c8260209383610f4e565b8101031261001b5751948661098a565b3d9150610c75565b95506020863d602011610cc7575b81610cb560209383610f4e565b8101031261001b57945194602061094f565b3d9150610ca8565b60405162461bcd60e51b815260206004820152600b60248201526a57726f6e672066756e647360a81b6044820152606490fd5b9091506020813d602011610d2e575b81610d1e60209383610f4e565b8101031261001b5751908861087b565b3d9150610d11565b9093506020813d602011610d62575b81610d5260209383610f4e565b8101031261001b57519287610842565b3d9150610d45565b9094506020813d602011610d96575b81610d8660209383610f4e565b8101031261001b575193856107f7565b3d9150610d79565b9492506020853d602011610dcd575b81610dba60209383610f4e565b8101031261001b579351919360206107bd565b3d9150610dad565b9091506020813d602011610e01575b81610df160209383610f4e565b8101031261001b57519083610775565b3d9150610de4565b60405162461bcd60e51b81526020600482015260146024820152735363686564756c6572206e6f742061637469766560601b6044820152606490fd5b3461001b57600036600319011261001b57602060ff600554166040519015158152f35b3461001b57600036600319011261001b576003546040516001600160a01b039091168152602090f35b3461001b57602036600319011261001b576001600160a01b03610eb2610f01565b1660005260076020526020604060002054604051908152f35b3461001b57602036600319011261001b576020906001600160a01b03610eef610f01565b16600052600782526040600020548152f35b600435906001600160a01b038216820361001b57565b60a081019081106001600160401b03821117610bc057604052565b61012081019081106001600160401b03821117610bc057604052565b90601f801991011681019081106001600160401b03821117610bc057604052565b90604051610f7c81610f17565b608060048294805484526001810154602085015260028101546040850152600381015460608501520154910152565b60808091805184526020810151602085015260408101516040850152606081015160608501520151910152565b15610fdf57565b60405162461bcd60e51b815260206004820152600a6024820152694f776e6572206f6e6c7960b01b6044820152606490fd5b6001600160a01b039091168152602081019190915260400190565b9190820180921161054a57565b6040519061104682610f17565b60006080838281528260208201528260408201528260608201520152565b6040519061107182610f32565b8160008082528060208301528060408301528060608301528060808301528060a08301528060c083015260e08201526101006110ab611039565b910152565b6001600160a01b03166000908152600860205260409020544381106110d25790565b504390565b6110df611064565b506000526006602052604060002061115d6008604051926110ff84610f32565b80548452600181015460208501526002810154604085015260038101546001600160a01b03908116606086015260048201548116608086015260058201541660a0850152600681015460c0850152600781015460e085015201610f6f565b6101008201529056fea2646970667358221220a91cfee7596788ef73ba61cef157caab77bfee73eb6ae9362e2e8351dc47791464736f6c63430008110033",
  "immutableReferences": {
    "1281": [
      {
        "length": 32,
        "start": 1480
      },
      {
        "length": 32,
        "start": 2219
      },
      {
        "length": 32,
        "start": 2289
      }
    ]
  },
  "source": "// SPDX-License-Identifier: MIT \r\n/*\r\n\r\nName: MecaSchedulerContract\r\nDescription: An on-chain Scheduler contract for MECA ecosystem\r\nAuthor: Ciocirlan Stefan-Dan (sdcioc)\r\nDate: Feb 2024\r\n\r\nMIT License\r\n\r\n*/\r\n\r\npragma solidity ^0.8.17;\r\n\r\nimport \"./SchedulerAbstract.sol\";\r\n\r\ncontract MecaSchedulerContract is MecaSchedulerAbstractContract\r\n{\r\n    /// The running tasks map of taskId to running task\r\n    mapping(bytes32 => RunningTask) public runningTasks;\r\n    /// The Tower size map of towerAddress to size\r\n    mapping(address => uint256) public towersSize;\r\n    /// The end block of the hosts map of hostAddress to endBlock\r\n    mapping(address => uint256) public hostsEndBlock;\r\n\r\n    // custom modifiers\r\n\r\n    // constructor\r\n    constructor(\r\n        uint256 schedulerFee\r\n    ) MecaSchedulerAbstractContract(schedulerFee)\r\n    {\r\n    }\r\n\r\n    // External functions\r\n\r\n    // External functions that are view\r\n    \r\n    // External functions that are pure\r\n\r\n    // Public functions\r\n\r\n    function getHostFirstAvailableBlock(\r\n        address hostAddress\r\n    ) public view override returns (uint256)\r\n    {\r\n        uint256 hostFirstAvailableBlock = hostsEndBlock[hostAddress];\r\n        if (hostFirstAvailableBlock < block.number) {\r\n            hostFirstAvailableBlock = block.number;\r\n        }\r\n        return hostFirstAvailableBlock;\r\n    }\r\n\r\n    function getTowerCurrentSize(\r\n        address towerAddress\r\n    ) public view override returns (uint256)\r\n    {\r\n        return towersSize[towerAddress];\r\n    }\r\n\r\n    // Internal functions\r\n\r\n    function _clear() internal override\r\n    {\r\n    }\r\n\r\n    function _addRunningTask(\r\n        bytes32 taskId,\r\n        RunningTask memory runningTask\r\n    ) internal override\r\n    {\r\n        runningTasks[taskId] = runningTask;\r\n        towersSize[runningTasks[taskId].towerAddress] += runningTasks[taskId].size;\r\n    }\r\n\r\n    function _deleteRunningTask(\r\n        bytes32 taskId\r\n    ) internal override\r\n    {\r\n        towersSize[runningTasks[taskId].towerAddress] -= runningTasks[taskId].size;\r\n        delete runningTasks[taskId];\r\n    }\r\n\r\n    // Internal functions that are view\r\n\r\n    function _getRunningTask(\r\n        bytes32 taskId\r\n    ) internal view override returns (RunningTask memory)\r\n    {\r\n        return runningTasks[taskId];\r\n    }\r\n\r\n    // Private functions\r\n\r\n}",
  "sourcePath": "C:\\Users\\jxlim\\repos\\meca_contracts\\src\\contracts\\SchedulerContract.sol",
  "compiler": {
    "name": "solc",
    "version": "0.8.17+commit.8df45f5f.Emscripten.clang"
  },
  "schemaVersion": "3.4.12",
  "updatedAt": "2024-02-29T01:53:47.033Z",
  "networkType": "ethereum",
  "devdoc": {
    "kind": "dev",
    "methods": {
      "clear()": {
        "details": "This function is used to clear the contract"
      },
      "finishTask(bytes32)": {
        "params": {
          "taskId": "The ID of the task"
        }
      },
      "getHostFirstAvailableBlock(address)": {
        "params": {
          "hostAddress": "The address of the host"
        },
        "returns": {
          "_0": "uint256 The first available block"
        }
      },
      "getRunningTask(bytes32)": {
        "params": {
          "taskId": "The ID of the task"
        },
        "returns": {
          "_0": "RunningTask The running task"
        }
      },
      "getTowerCurrentSize(address)": {
        "params": {
          "towerAddress": "The address of the tower"
        },
        "returns": {
          "_0": "uint256 The current size of the tower"
        }
      },
      "sendTask(address,address,bytes32,bytes32)": {
        "params": {
          "hostAddress": "The address of the host",
          "inputHash": "The hash of the input",
          "ipfsSha256": "The IPFS hash of the task",
          "towerAddress": "The address of the tower"
        }
      },
      "setHostContract(address)": {
        "params": {
          "newHostContract": "The new host contract"
        }
      },
      "setSchedulerFlag(bool)": {
        "params": {
          "newSchedulerFlag": "The new scheduler flag"
        }
      },
      "setTaskContract(address)": {
        "params": {
          "newTaskContract": "The new task contract"
        }
      },
      "setTowerContract(address)": {
        "params": {
          "newTowerContract": "The new tower contract"
        }
      }
    },
    "version": 1
  },
  "userdoc": {
    "kind": "user",
    "methods": {
      "SCHEDULER_FEE()": {
        "notice": "The scheduler fee"
      },
      "clear()": {
        "notice": "The clear function"
      },
      "finishTask(bytes32)": {
        "notice": "Finish a task"
      },
      "getHostContract()": {
        "notice": "Get the host contract"
      },
      "getHostFirstAvailableBlock(address)": {
        "notice": "Get the host first available block"
      },
      "getRunningTask(bytes32)": {
        "notice": "Get the running task"
      },
      "getTaskContract()": {
        "notice": "Get the task contract"
      },
      "getTowerContract()": {
        "notice": "Get the tower contract"
      },
      "getTowerCurrentSize(address)": {
        "notice": "Get the tower current size"
      },
      "hostsEndBlock(address)": {
        "notice": "The end block of the hosts map of hostAddress to endBlock"
      },
      "owner()": {
        "notice": "The owner of the contract"
      },
      "runningTasks(bytes32)": {
        "notice": "The running tasks map of taskId to running task"
      },
      "schedulerFlag()": {
        "notice": "The scheduler flag"
      },
      "schedulerNonce()": {
        "notice": "The scheduler nonce"
      },
      "sendTask(address,address,bytes32,bytes32)": {
        "notice": "Send a task to the scheduler"
      },
      "setHostContract(address)": {
        "notice": "The setHostContract function"
      },
      "setSchedulerFlag(bool)": {
        "notice": "The setSchedulerFlag function"
      },
      "setTaskContract(address)": {
        "notice": "The setTaskContract function"
      },
      "setTowerContract(address)": {
        "notice": "The setTowerContract function"
      },
      "towersSize(address)": {
        "notice": "The Tower size map of towerAddress to size"
      }
    },
    "version": 1
  }
}