{
  "contractName": "MecaHostContract",
  "abi": [
    {
      "inputs": [
        {
          "internalType": "uint256",
          "name": "hostRegisterFee",
          "type": "uint256"
        },
        {
          "internalType": "uint256",
          "name": "hostInitialStake",
          "type": "uint256"
        },
        {
          "internalType": "uint256",
          "name": "failedTaskPenalty",
          "type": "uint256"
        },
        {
          "internalType": "uint256",
          "name": "taskRegisterFee",
          "type": "uint256"
        }
      ],
      "stateMutability": "nonpayable",
      "type": "constructor"
    },
    {
      "stateMutability": "payable",
      "type": "fallback",
      "payable": true
    },
    {
      "inputs": [],
      "name": "FAILED_TASK_PENALTY",
      "outputs": [
        {
          "internalType": "uint256",
          "name": "",
          "type": "uint256"
        }
      ],
      "stateMutability": "view",
      "type": "function",
      "constant": true
    },
    {
      "inputs": [],
      "name": "HOST_INITIAL_STAKE",
      "outputs": [
        {
          "internalType": "uint256",
          "name": "",
          "type": "uint256"
        }
      ],
      "stateMutability": "view",
      "type": "function",
      "constant": true
    },
    {
      "inputs": [],
      "name": "HOST_REGISTER_FEE",
      "outputs": [
        {
          "internalType": "uint256",
          "name": "",
          "type": "uint256"
        }
      ],
      "stateMutability": "view",
      "type": "function",
      "constant": true
    },
    {
      "inputs": [],
      "name": "TASK_REGISTER_FEE",
      "outputs": [
        {
          "internalType": "uint256",
          "name": "",
          "type": "uint256"
        }
      ],
      "stateMutability": "view",
      "type": "function",
      "constant": true
    },
    {
      "inputs": [],
      "name": "addStake",
      "outputs": [],
      "stateMutability": "payable",
      "type": "function",
      "payable": true
    },
    {
      "inputs": [
        {
          "internalType": "bytes32",
          "name": "ipfsSha256",
          "type": "bytes32"
        },
        {
          "internalType": "uint256",
          "name": "blockTimeout",
          "type": "uint256"
        },
        {
          "internalType": "uint256",
          "name": "fee",
          "type": "uint256"
        }
      ],
      "name": "addTask",
      "outputs": [],
      "stateMutability": "payable",
      "type": "function",
      "payable": true
    },
    {
      "inputs": [],
      "name": "clear",
      "outputs": [],
      "stateMutability": "nonpayable",
      "type": "function"
    },
    {
      "inputs": [],
      "name": "deleteHost",
      "outputs": [],
      "stateMutability": "nonpayable",
      "type": "function"
    },
    {
      "inputs": [
        {
          "internalType": "bytes32",
          "name": "ipfsSha256",
          "type": "bytes32"
        }
      ],
      "name": "deleteTask",
      "outputs": [],
      "stateMutability": "nonpayable",
      "type": "function"
    },
    {
      "inputs": [
        {
          "internalType": "address",
          "name": "hostAddress",
          "type": "address"
        }
      ],
      "name": "getHostBlockTimeoutLimit",
      "outputs": [
        {
          "internalType": "uint256",
          "name": "",
          "type": "uint256"
        }
      ],
      "stateMutability": "view",
      "type": "function",
      "constant": true
    },
    {
      "inputs": [
        {
          "internalType": "address",
          "name": "hostAddress",
          "type": "address"
        }
      ],
      "name": "getHostPublicKey",
      "outputs": [
        {
          "internalType": "bytes32[2]",
          "name": "",
          "type": "bytes32[2]"
        }
      ],
      "stateMutability": "view",
      "type": "function",
      "constant": true
    },
    {
      "inputs": [
        {
          "internalType": "address",
          "name": "hostAddress",
          "type": "address"
        }
      ],
      "name": "getHostStake",
      "outputs": [
        {
          "internalType": "uint256",
          "name": "",
          "type": "uint256"
        }
      ],
      "stateMutability": "view",
      "type": "function",
      "constant": true
    },
    {
      "inputs": [],
      "name": "getHosts",
      "outputs": [
        {
          "components": [
            {
              "internalType": "address payable",
              "name": "owner",
              "type": "address"
            },
            {
              "internalType": "bytes32[2]",
              "name": "eccPublicKey",
              "type": "bytes32[2]"
            },
            {
              "internalType": "uint256",
              "name": "blockTimeoutLimit",
              "type": "uint256"
            },
            {
              "internalType": "uint256",
              "name": "stake",
              "type": "uint256"
            }
          ],
          "internalType": "struct MecaHostAbstractContract.Host[]",
          "name": "",
          "type": "tuple[]"
        }
      ],
      "stateMutability": "view",
      "type": "function",
      "constant": true
    },
    {
      "inputs": [
        {
          "internalType": "address",
          "name": "hostAddress",
          "type": "address"
        },
        {
          "internalType": "bytes32",
          "name": "ipfsSha256",
          "type": "bytes32"
        }
      ],
      "name": "getTaskBlockTimeout",
      "outputs": [
        {
          "internalType": "uint256",
          "name": "",
          "type": "uint256"
        }
      ],
      "stateMutability": "view",
      "type": "function",
      "constant": true
    },
    {
      "inputs": [
        {
          "internalType": "address",
          "name": "hostAddress",
          "type": "address"
        },
        {
          "internalType": "bytes32",
          "name": "ipfsSha256",
          "type": "bytes32"
        }
      ],
      "name": "getTaskFee",
      "outputs": [
        {
          "internalType": "uint256",
          "name": "",
          "type": "uint256"
        }
      ],
      "stateMutability": "view",
      "type": "function",
      "constant": true
    },
    {
      "inputs": [
        {
          "internalType": "uint256",
          "name": "",
          "type": "uint256"
        }
      ],
      "name": "hosts",
      "outputs": [
        {
          "internalType": "address payable",
          "name": "owner",
          "type": "address"
        },
        {
          "internalType": "uint256",
          "name": "blockTimeoutLimit",
          "type": "uint256"
        },
        {
          "internalType": "uint256",
          "name": "stake",
          "type": "uint256"
        }
      ],
      "stateMutability": "view",
      "type": "function",
      "constant": true
    },
    {
      "inputs": [
        {
          "internalType": "address",
          "name": "",
          "type": "address"
        }
      ],
      "name": "hostsIndex",
      "outputs": [
        {
          "internalType": "uint32",
          "name": "",
          "type": "uint32"
        }
      ],
      "stateMutability": "view",
      "type": "function",
      "constant": true
    },
    {
      "inputs": [],
      "name": "owner",
      "outputs": [
        {
          "internalType": "address payable",
          "name": "",
          "type": "address"
        }
      ],
      "stateMutability": "view",
      "type": "function",
      "constant": true
    },
    {
      "inputs": [
        {
          "internalType": "address",
          "name": "hostAddress",
          "type": "address"
        },
        {
          "internalType": "address",
          "name": "userAddress",
          "type": "address"
        }
      ],
      "name": "penaltyForFailedTask",
      "outputs": [],
      "stateMutability": "nonpayable",
      "type": "function"
    },
    {
      "inputs": [
        {
          "internalType": "bytes32[2]",
          "name": "publicKey",
          "type": "bytes32[2]"
        },
        {
          "internalType": "uint256",
          "name": "blockTimeoutLimit",
          "type": "uint256"
        }
      ],
      "name": "registerAsHost",
      "outputs": [],
      "stateMutability": "payable",
      "type": "function",
      "payable": true
    },
    {
      "inputs": [],
      "name": "schedulerContractAddress",
      "outputs": [
        {
          "internalType": "address",
          "name": "",
          "type": "address"
        }
      ],
      "stateMutability": "view",
      "type": "function",
      "constant": true
    },
    {
      "inputs": [
        {
          "internalType": "address",
          "name": "newSchedulerContractAddress",
          "type": "address"
        }
      ],
      "name": "setSchedulerContractAddress",
      "outputs": [],
      "stateMutability": "nonpayable",
      "type": "function"
    },
    {
      "inputs": [
        {
          "internalType": "uint256",
          "name": "newBlockTimeoutLimit",
          "type": "uint256"
        }
      ],
      "name": "updateBlockTimeoutLimit",
      "outputs": [],
      "stateMutability": "nonpayable",
      "type": "function"
    },
    {
      "inputs": [
        {
          "internalType": "bytes32[2]",
          "name": "newPublicKey",
          "type": "bytes32[2]"
        }
      ],
      "name": "updatePublicKey",
      "outputs": [],
      "stateMutability": "nonpayable",
      "type": "function"
    },
    {
      "inputs": [
        {
          "internalType": "bytes32",
          "name": "ipfsSha256",
          "type": "bytes32"
        },
        {
          "internalType": "uint256",
          "name": "newBlockTimeout",
          "type": "uint256"
        }
      ],
      "name": "updateTaskBlockTimeout",
      "outputs": [],
      "stateMutability": "nonpayable",
      "type": "function"
    },
    {
      "inputs": [
        {
          "internalType": "bytes32",
          "name": "ipfsSha256",
          "type": "bytes32"
        },
        {
          "internalType": "uint256",
          "name": "newFee",
          "type": "uint256"
        }
      ],
      "name": "updateTaskFee",
      "outputs": [],
      "stateMutability": "nonpayable",
      "type": "function"
    },
    {
      "inputs": [
        {
          "internalType": "uint256",
          "name": "amount",
          "type": "uint256"
        }
      ],
      "name": "widthdrawStake",
      "outputs": [],
      "stateMutability": "nonpayable",
      "type": "function"
    },
    {
      "stateMutability": "payable",
      "type": "receive",
      "payable": true
    }
  ],
  "bytecode": "0x610100346100cf57601f6112ca38819003918201601f19168301916001600160401b038311848410176100d4578084926080946040528339810103126100cf57805190602081015190606060408201519101519160018060a01b0319933285600054161760005560805260c05260e05260a052600154166001556040516111df90816100eb8239608051816102cf015260a0518181816102100152818161044b0152610e16015260c051818181610394015281816109f30152610c80015260e051818181610411015261093a0152f35b600080fd5b634e487b7160e01b600052604160045260246000fdfe608060409080825260049182361015610026575b505050361561002157600080fd5b600080fd5b600092833560e01c92836304beddcf14610dff57508263052b12d214610c6657826320a1cc7b14610c0657826326638d8714610ba75782633735b3c614610b57578263391d0b7514610a165782633a2dd2ce146109db57826352efea6e146109b357826357e1282e146108f157826358f644981461089a5782635a627dbc146108565782635cea4b5f14610679578263603d02991461062b5782637c74e2ec1461060a5782638da5cb5b146105e257826390636230146105ab5782639e89c6f31461057a5782639f6e52ce14610557578263a13f89f914610434578263a91a2182146103f9578263b0ea5340146103ba578263b23e7a72146102f2578263b6b58dca146102b7578263db88497c1461028e578263e24edcab1461025a578263e64f15a2146101aa57505063e9393c8614610161578080610013565b346101a75760203660031901126101a75761017a610e4f565b81546001600160a01b0391906101939083163314610e9a565b1660018060a01b0319600154161760015580f35b80fd5b9091503461025657602036600319011261025657356101d46101cc82336110f4565b511515610f8c565b338352600260205281832081845260205281832054156102565733835260026020528183209083526020528160018282208281550155818080807f000000000000000000000000000000000000000000000000000000000000000081811561024d575b3390f115610243575080f35b51903d90823e3d90fd5b506108fc610237565b8280fd5b83823461028a57602036600319011261028a578060209161028161027c610e4f565b6110a8565b01519051908152f35b5080fd5b83823461028a578160031936011261028a5760015490516001600160a01b039091168152602090f35b83823461028a578160031936011261028a57602090517f00000000000000000000000000000000000000000000000000000000000000008152f35b9091503461025657602036600319011261025657803590816060610315336110a8565b015110158061037b575b15610347575082808083610334829533610fdf565b81811561024d573390f115610243575080f35b606490602084519162461bcd60e51b8352820152600e60248201526d125b9d985b1a5908185b5bdd5b9d60921b6044820152fd5b5061039282606061038b336110a8565b0151610f1f565b7f0000000000000000000000000000000000000000000000000000000000000000111561031f565b83823461028a57602036600319011261028a5760209163ffffffff9082906001600160a01b036103e8610e4f565b168152600385522054169051908152f35b83823461028a578160031936011261028a57602090517f00000000000000000000000000000000000000000000000000000000000000008152f35b9150606036600319011261025657813590602435927f000000000000000000000000000000000000000000000000000000000000000034036105195761047b841515610f42565b61048583336110f4565b516104e1575080519261049784610f04565b8352602083019060443582523385526002602052808520838652602052808520546104dd5760019233865260026020528186209086526020528420925183555191015580f35b8480fd5b6020606492519162461bcd60e51b835282015260136024820152725461736b20616c72656164792065786973747360681b6044820152fd5b6020606492519162461bcd60e51b83528201526019602482015278135a5b9a5b5d5b481d185cdac8199959481c995c5d5a5c9959603a1b6044820152fd5b83823461028a57602036600319011261028a57602090606061028161027c610e4f565b83823461028a578060031936011261028a576020906105a361059a610e4f565b602435906110f4565b519051908152f35b83903461028a57602036600319011261028a5760036105d96105d46105cf33611147565b610fc9565b610e65565b50913591015580f35b83823461028a578160031936011261028a57905490516001600160a01b039091168152602090f35b83823461028a578060031936011261028a576020908161028161059a610e4f565b9150346102565736600319011261028a573660441161028a576106536105d46105cf33611147565b5090825b60028110610663578380f35b6001906020833593019282828601015501610657565b9091503461025657826003193601126102565781610696336110a8565b015161081f576106a533611147565b90806106b36105d484610fc9565b500154815490926000199182810190811161080c576106d190610e65565b506106de6105d483610fc9565b9190916107fa5780859183036107b4575b5050506106fe6105d482610fc9565b5060018060a01b039054168652600360205284862063ffffffff8019921682825416179055338652848620908154169055815480156107a157019061074282610e65565b61078f57908186809493556003810160018083015b828110610783578689818080808d8c8c83818e828f5501555581811561024d573390f115610243575080f35b95865588958101610757565b634e487b7160e01b8652858252602486fd5b634e487b7160e01b865260318352602486fd5b805483546001600160a01b0319166001600160a01b039190911617835581906107e36001808301908601611001565b6003810154600385015501549101553883816106ef565b634e487b7160e01b8852878552602488fd5b634e487b7160e01b875260118452602487fd5b6020606492519162461bcd60e51b83528201526012602482015271486f73742063616e20676574207461736b7360701b6044820152fd5b83908160031936011261028a57806108736105d46105cf33611147565b500180549134830180931161088757505580f35b634e487b7160e01b845260119052602483fd5b83823461028a576108aa36610e39565b916108b86101cc83336110f4565b338452600260205280842082855260205280842054156108ed5760019133855260026020528185209085526020528320015580f35b8380fd5b9091503461025657816003193601126102565761090c610e4f565b906024356001600160a01b0381811692918390036109af5760015416330361097b57508380809381936109607f00000000000000000000000000000000000000000000000000000000000000008093610fdf565b828215610972575bf115610243575080f35b506108fc610968565b606490602085519162461bcd60e51b8352820152600e60248201526d5363686564756c6572206f6e6c7960901b6044820152fd5b8580fd5b83346101a757806003193601126101a7576109d860018060a01b038254163314610e9a565b80f35b83823461028a578160031936011261028a57602090517f00000000000000000000000000000000000000000000000000000000000000008152f35b83823461028a578160031936011261028a578254906001600160401b0390818311610b445780519260059281841b603f01601f1916850190811185821017610b3157829596949392528083526020918284018095885283882088915b848310610b095750505050508351938185019282865251809352808501939580915b848310610aa15786860387f35b909192939484885160018060a01b038151168352818101518284019086915b60028310610af35750505083810151606080850191909152015160808301529097019660a0019493926001019190610a94565b8151815289946001909301929182019101610ac0565b8386600192610b1d859d9c999a9b9d611039565b815201920192019190989695949798610a72565b634e487b7160e01b865260418752602486fd5b634e487b7160e01b845260418552602484fd5b9150346102565760203660031901126102565781359282548410156101a75750610b82606093610e65565b509060018060a01b038254169260038301549201549181519384526020840152820152f35b5082346101a75760208060031936011261028a579081610bdc610bc8610e4f565b858051610bd481610f04565b3690376110a8565b01518351929091835b60028210610bf1578585f35b82806001928651815201940191019092610be5565b83823461028a57610c1636610e39565b9190610c256101cc82336110f4565b8215610c318115610f42565b338552600260205282852082865260205282852054156104dd576108ed57338452600260205281842090845260205282205580f35b8382606036600319011261028a57604490368211610256577f00000000000000000000000000000000000000000000000000000000000000003410610dc457805193610cb185610ed3565b338552815192610cc084610f04565b81845b828210610db457505060209182870194855283870191358252606087019634885260018060a01b03928382511688526003855263ffffffff9384878a205416610db057835490600160401b821015610d9d57610d256001928381018755610e65565b949094610d8b575184546001600160a01b031916911690811784559751895b60028110610d7857505050600395969798839151878401555191015554169385525282209063ffffffff1982541617905580f35b8151858201840155908701908201610d44565b634e487b7160e01b8b528a865260248bfd5b634e487b7160e01b8a526041855260248afd5b8880fd5b8135815260209182019101610cc3565b75135a5b9a5b5d5b481cdd185ad9481c995c5d5a5c995960521b60649260208693519362461bcd60e51b855284015260166024840152820152fd5b84903461028a578160031936011261028a576020907f00000000000000000000000000000000000000000000000000000000000000008152f35b6040906003190112610021576004359060243590565b600435906001600160a01b038216820361002157565b600454811015610e845760046000526005602060002091020190600090565b634e487b7160e01b600052603260045260246000fd5b15610ea157565b60405162461bcd60e51b815260206004820152600a6024820152694f776e6572206f6e6c7960b01b6044820152606490fd5b608081019081106001600160401b03821117610eee57604052565b634e487b7160e01b600052604160045260246000fd5b604081019081106001600160401b03821117610eee57604052565b91908203918211610f2c57565b634e487b7160e01b600052601160045260246000fd5b15610f4957565b60405162461bcd60e51b815260206004820152601b60248201527a125b9d985b1a5908189b1bd8dac81d1a5b595bdd5d081b1a5b5a5d602a1b6044820152606490fd5b15610f9357565b60405162461bcd60e51b815260206004820152600e60248201526d15185cdac81b9bdd08199bdd5b9960921b6044820152606490fd5b63ffffffff9081166000190191908211610f2c57565b6004610ff36105d46105cf610ffd94611147565b5001918254610f1f565b9055565b9080821461103557908154906000915b6002831061101f5750505050565b6001809194019283549481840155019192611011565b5050565b9060405161104681610ed3565b82546001600160a01b031681526040519092839160018083016000835b6002821061109457505050506060918161107e600493610f04565b6020850152600381015460408501520154910152565b825481529183019190830190602001611063565b6110eb6105d46105cf6110f193600060606040516110c581610ed3565b8281526040516110d481610f04565b604036823760208201528260408201520152611147565b50611039565b90565b604091602091835161110581610f04565b600080825293018390526001600160a01b031682526002602090815283832091835252206040519060019061113983610f04565b805483520154602082015290565b6001600160a01b031660009081526003602052604090205463ffffffff16801561116e5790565b60405162461bcd60e51b8152602060048201526013602482015272121bdcdd08191bd95cc81b9bdd08195e1a5cdd606a1b6044820152606490fdfea2646970667358221220ef5613cb515cda4f2a2eae4c103cc89cb1da40f188c459620c15a557517e4a0864736f6c63430008110033",
  "immutableReferences": {
    "7": [
      {
        "length": 32,
        "start": 719
      }
    ],
    "10": [
      {
        "length": 32,
        "start": 528
      },
      {
        "length": 32,
        "start": 1099
      },
      {
        "length": 32,
        "start": 3606
      }
    ],
    "13": [
      {
        "length": 32,
        "start": 916
      },
      {
        "length": 32,
        "start": 2547
      },
      {
        "length": 32,
        "start": 3200
      }
    ],
    "16": [
      {
        "length": 32,
        "start": 1041
      },
      {
        "length": 32,
        "start": 2362
      }
    ]
  },
  "source": "// SPDX-License-Identifier: MIT \r\n/*\r\n\r\nName: MecaHostContract\r\nDescription: An on-chain Host contract for MECA ecosystem\r\nAuthor: Ciocirlan Stefan-Dan (sdcioc)\r\nDate: Feb 2024\r\n\r\nMIT License\r\n\r\n*/\r\n\r\npragma solidity ^0.8.17;\r\n\r\nimport \"./HostAbstract.sol\";\r\n\r\ncontract MecaHostContract is MecaHostAbstractContract {\r\n    // host -> task_ipfsSha256 -> task_fees\r\n    mapping(address => mapping(bytes32 => HostTask)) hostTasks;\r\n\r\n    // We have a list with all the hosts and a mapping to check if a host exists\r\n    // and what is the position in the list of a host (if it exists is index + 1, if not is 0)\r\n    mapping(address => uint32) public hostsIndex;\r\n    Host[] public hosts;\r\n\r\n    // custom modifiers\r\n\r\n    // constructor\r\n\r\n    constructor(\r\n        uint256 hostRegisterFee,\r\n        uint256 hostInitialStake,\r\n        uint256 failedTaskPenalty,\r\n        uint256 taskRegisterFee\r\n    )\r\n        MecaHostAbstractContract(\r\n            hostRegisterFee,\r\n            hostInitialStake,\r\n            failedTaskPenalty,\r\n            taskRegisterFee\r\n        )\r\n    {\r\n    }\r\n\r\n    // External functions\r\n\r\n    // External functions that are view\r\n    \r\n    // External functions that are pure\r\n\r\n    // Public functions\r\n\r\n    // Internal functions\r\n\r\n    function _clear() internal override {\r\n    }\r\n\r\n    function _addHost(\r\n        Host memory host\r\n    ) internal override {\r\n        if (hostsIndex[host.owner] != 0) {\r\n            revert();\r\n        }\r\n        hosts.push(host);\r\n        hostsIndex[host.owner] = uint32(hosts.length);\r\n    }\r\n\r\n    function _addStake(\r\n        address hostAddress,\r\n        uint256 stake\r\n    ) internal override {\r\n        uint32 index = _getHostIndex(hostAddress);\r\n        hosts[index - 1].stake += stake;\r\n    }\r\n\r\n    function _removeStake(\r\n        address hostAddress,\r\n        uint256 stake\r\n    ) internal override {\r\n        uint32 index = _getHostIndex(hostAddress);\r\n        hosts[index - 1].stake -= stake;\r\n    }\r\n\r\n    function _updateBlockTimeoutLimit(\r\n        address hostAddress,\r\n        uint256 newBlockTimeoutLimit\r\n    ) internal override {\r\n        uint32 index = _getHostIndex(hostAddress);\r\n        hosts[index - 1].blockTimeoutLimit = newBlockTimeoutLimit;\r\n    }\r\n\r\n    function _updatePublicKey(\r\n        address hostAddress,\r\n        bytes32[2] calldata newPublicKey\r\n    ) internal override {\r\n        uint32 index = _getHostIndex(hostAddress);\r\n        hosts[index - 1].eccPublicKey = newPublicKey;\r\n    }\r\n\r\n    function _deleteHost(\r\n        address hostAddress\r\n    ) internal override  returns (uint256) {\r\n        uint32 index = _getHostIndex(hostAddress);\r\n        uint256 toPay = hosts[index - 1].stake;\r\n        hosts[index - 1] = hosts[hosts.length - 1];\r\n        hostsIndex[hosts[index - 1].owner] = index;\r\n        hostsIndex[hostAddress] = 0;\r\n        hosts.pop();\r\n        return toPay;\r\n    }\r\n\r\n    function _addTask(\r\n        address hostAddress,\r\n        bytes32 ipfsSha256,\r\n        HostTask memory task\r\n    ) internal override {\r\n        if (hostTasks[hostAddress][ipfsSha256].blockTimeout != 0) {\r\n            revert();\r\n        }\r\n        hostTasks[hostAddress][ipfsSha256] = task;\r\n    }\r\n\r\n    function _updateTaskBlockTimeout(\r\n        address hostAddress,\r\n        bytes32 ipfsSha256,\r\n        uint256 newBlockTimeout\r\n    ) internal override {\r\n        require(hostTasks[hostAddress][ipfsSha256].blockTimeout != 0);\r\n        require(newBlockTimeout != 0);\r\n        hostTasks[hostAddress][ipfsSha256].blockTimeout = newBlockTimeout;\r\n    }\r\n\r\n    function _updateTaskFee(\r\n        address hostAddress,\r\n        bytes32 ipfsSha256,\r\n        uint256 newFee\r\n    ) internal override {\r\n        require(hostTasks[hostAddress][ipfsSha256].blockTimeout != 0);\r\n        hostTasks[hostAddress][ipfsSha256].fee = newFee;\r\n    }\r\n\r\n    function _deleteTask(\r\n        address hostAddress,\r\n        bytes32 ipfsSha256\r\n    ) internal override {\r\n        require(hostTasks[hostAddress][ipfsSha256].blockTimeout != 0);\r\n        delete hostTasks[hostAddress][ipfsSha256];\r\n    }\r\n\r\n    // Internal functions that are view\r\n\r\n    function _getHost(\r\n        address hostAddress\r\n    )\r\n        internal\r\n        view\r\n        override\r\n        returns (Host memory)\r\n    {\r\n        uint32 index = _getHostIndex(hostAddress);\r\n        return hosts[index - 1];\r\n    }\r\n\r\n    function _getHosts(\r\n    )\r\n        internal\r\n        view\r\n        override\r\n        returns (Host[] memory)\r\n    {\r\n        return hosts;\r\n    }\r\n\r\n    function _getTask(\r\n        address hostAddress,\r\n        bytes32 ipfsSha256\r\n    )\r\n        internal\r\n        view\r\n        override\r\n        returns (HostTask memory)\r\n    {\r\n        return hostTasks[hostAddress][ipfsSha256];\r\n    }\r\n\r\n    // Internal functions that are pure\r\n\r\n    // Private functions\r\n\r\n    function _getHostIndex(\r\n        address hostAddress\r\n    ) private view returns (uint32) {\r\n        uint32 index = hostsIndex[hostAddress];\r\n        require(index != 0, \"Host does not exist\");\r\n        return index;\r\n    }\r\n\r\n}",
  "sourcePath": "C:\\Users\\jxlim\\repos\\meca_contracts\\src\\contracts\\HostContract.sol",
  "compiler": {
    "name": "solc",
    "version": "0.8.17+commit.8df45f5f.Emscripten.clang"
  },
  "schemaVersion": "3.4.12",
  "updatedAt": "2024-02-29T01:53:46.996Z",
  "networkType": "ethereum",
  "devdoc": {
    "kind": "dev",
    "methods": {
      "addStake()": {
        "details": "This function is used to add stake to the host"
      },
      "addTask(bytes32,uint256,uint256)": {
        "params": {
          "blockTimeout": "The block timeout of the task",
          "fee": "The fee of the task",
          "ipfsSha256": "The IPFS hash of the task"
        }
      },
      "clear()": {
        "details": "This function is used to clear the contract"
      },
      "deleteTask(bytes32)": {
        "params": {
          "ipfsSha256": "The IPFS hash of the task"
        }
      },
      "getHostBlockTimeoutLimit(address)": {
        "params": {
          "hostAddress": "The address of the host"
        },
        "returns": {
          "_0": "uint256 The block timeout limit of the host"
        }
      },
      "getHostPublicKey(address)": {
        "params": {
          "hostAddress": "The address of the host"
        },
        "returns": {
          "_0": "bytes32[2] The public key of the host"
        }
      },
      "getHostStake(address)": {
        "params": {
          "hostAddress": "The address of the host"
        },
        "returns": {
          "_0": "uint256 The stake of the host"
        }
      },
      "getHosts()": {
        "returns": {
          "_0": "Host[] The hosts"
        }
      },
      "getTaskBlockTimeout(address,bytes32)": {
        "params": {
          "hostAddress": "The address of the host",
          "ipfsSha256": "The IPFS hash of the task"
        },
        "returns": {
          "_0": "uint256 The block timeout of the task"
        }
      },
      "getTaskFee(address,bytes32)": {
        "params": {
          "hostAddress": "The address of the host",
          "ipfsSha256": "The IPFS hash of the task"
        },
        "returns": {
          "_0": "uint256 The fee of the task"
        }
      },
      "penaltyForFailedTask(address,address)": {
        "details": "This function is used to penalize the host for a failed task and send the penalty to the user",
        "params": {
          "hostAddress": "The address of the host",
          "userAddress": "The address of the user"
        }
      },
      "registerAsHost(bytes32[2],uint256)": {
        "params": {
          "blockTimeoutLimit": "The block timeout limit of the host",
          "publicKey": "The ecc public key of the host"
        }
      },
      "setSchedulerContractAddress(address)": {
        "params": {
          "newSchedulerContractAddress": "The new scheduler contract address"
        }
      },
      "updateBlockTimeoutLimit(uint256)": {
        "params": {
          "newBlockTimeoutLimit": "The new block timeout limit"
        }
      },
      "updatePublicKey(bytes32[2])": {
        "params": {
          "newPublicKey": "The new ecc public key"
        }
      },
      "updateTaskBlockTimeout(bytes32,uint256)": {
        "params": {
          "ipfsSha256": "The IPFS hash of the task",
          "newBlockTimeout": "The new block timeout of the task"
        }
      },
      "updateTaskFee(bytes32,uint256)": {
        "params": {
          "ipfsSha256": "The IPFS hash of the task",
          "newFee": "The new fee of the task"
        }
      },
      "widthdrawStake(uint256)": {
        "params": {
          "amount": "The amount to widthdraw"
        }
      }
    },
    "version": 1
  },
  "userdoc": {
    "kind": "user",
    "methods": {
      "FAILED_TASK_PENALTY()": {
        "notice": "The failed task fee"
      },
      "HOST_INITIAL_STAKE()": {
        "notice": "The initial stake for a host"
      },
      "HOST_REGISTER_FEE()": {
        "notice": "The register host fee"
      },
      "TASK_REGISTER_FEE()": {
        "notice": "The task register fee"
      },
      "addStake()": {
        "notice": "The addStake function"
      },
      "addTask(bytes32,uint256,uint256)": {
        "notice": "Add a task to the host"
      },
      "clear()": {
        "notice": "The clear function"
      },
      "deleteHost()": {
        "notice": "The deleteHost function"
      },
      "deleteTask(bytes32)": {
        "notice": "The deleteTask function"
      },
      "getHostBlockTimeoutLimit(address)": {
        "notice": "The get the host block timeout limit"
      },
      "getHostPublicKey(address)": {
        "notice": "The get the host public key"
      },
      "getHostStake(address)": {
        "notice": "The get the host stake"
      },
      "getHosts()": {
        "notice": "The get the hosts"
      },
      "getTaskBlockTimeout(address,bytes32)": {
        "notice": "The get the task block timeout"
      },
      "getTaskFee(address,bytes32)": {
        "notice": "The get the task fee"
      },
      "owner()": {
        "notice": "The owner of the contract"
      },
      "penaltyForFailedTask(address,address)": {
        "notice": "penalty for failed task"
      },
      "registerAsHost(bytes32[2],uint256)": {
        "notice": "The registerAsHost function"
      },
      "schedulerContractAddress()": {
        "notice": "The scheduler contract address"
      },
      "setSchedulerContractAddress(address)": {
        "notice": "The setSchedulerContractAddress function"
      },
      "updateBlockTimeoutLimit(uint256)": {
        "notice": "The updateBlockTimeoutLimit function"
      },
      "updatePublicKey(bytes32[2])": {
        "notice": "The updatePublicKey function"
      },
      "updateTaskBlockTimeout(bytes32,uint256)": {
        "notice": "The updateTaskBlockTimeout function"
      },
      "updateTaskFee(bytes32,uint256)": {
        "notice": "The update task fee function"
      },
      "widthdrawStake(uint256)": {
        "notice": "The widthdrawStake function"
      }
    },
    "version": 1
  }
}