{
  "contractName": "PaymentContract",
  "abi": [
    {
      "inputs": [],
      "stateMutability": "nonpayable",
      "type": "constructor"
    },
    {
      "anonymous": false,
      "inputs": [
        {
          "indexed": true,
          "internalType": "string",
          "name": "did",
          "type": "string"
        },
        {
          "indexed": false,
          "internalType": "uint256",
          "name": "amount",
          "type": "uint256"
        }
      ],
      "name": "PaymentReceived",
      "type": "event"
    },
    {
      "inputs": [
        {
          "internalType": "string",
          "name": "fromDid",
          "type": "string"
        }
      ],
      "name": "pay",
      "outputs": [],
      "stateMutability": "payable",
      "type": "function",
      "payable": true
    },
    {
      "inputs": [
        {
          "internalType": "string",
          "name": "toDid",
          "type": "string"
        },
        {
          "internalType": "address payable",
          "name": "to",
          "type": "address"
        },
        {
          "internalType": "uint256",
          "name": "amount",
          "type": "uint256"
        }
      ],
      "name": "withdraw",
      "outputs": [],
      "stateMutability": "payable",
      "type": "function",
      "payable": true
    },
    {
      "inputs": [
        {
          "internalType": "string",
          "name": "did",
          "type": "string"
        }
      ],
      "name": "getBalance",
      "outputs": [
        {
          "internalType": "int256",
          "name": "",
          "type": "int256"
        }
      ],
      "stateMutability": "view",
      "type": "function",
      "constant": true
    },
    {
      "inputs": [
        {
          "internalType": "string",
          "name": "did",
          "type": "string"
        },
        {
          "internalType": "uint256",
          "name": "amount",
          "type": "uint256"
        }
      ],
      "name": "increaseBalance",
      "outputs": [],
      "stateMutability": "nonpayable",
      "type": "function"
    },
    {
      "inputs": [
        {
          "internalType": "string",
          "name": "did",
          "type": "string"
        },
        {
          "internalType": "uint256",
          "name": "amount",
          "type": "uint256"
        }
      ],
      "name": "decreaseBalance",
      "outputs": [],
      "stateMutability": "nonpayable",
      "type": "function"
    }
  ],
  "bytecode": "0x608060405234801561001057600080fd5b5060008054600160a060020a0319163317905561073e806100326000396000f3fe608060405260043610610066577c010000000000000000000000000000000000000000000000000000000060003504632b66d72e811461006b5780633a51d246146100805780635a73b0bf146100b257806380e3ba71146100c5578063fe2c7eab146100e5575b600080fd5b61007e6100793660046104c1565b610105565b005b34801561008c57600080fd5b506100a061009b3660046104c1565b6101b2565b60405190815260200160405180910390f35b61007e6100c03660046104fe565b6101da565b3480156100d157600080fd5b5061007e6100e0366004610571565b6103a0565b3480156100f157600080fd5b5061007e610100366004610571565b6103d7565b6000341161015d5760405160e560020a62461bcd02815260206004820152601760248201527f56616c7565206d75737420626520706f7369746976652e00000000000000000060448201526064015b60405180910390fd5b8060405161016b91906105b6565b604051908190038120348252907fd78903455e3bfe57a34c1b193ad1751a51ca1b1075f0562c334e3ea6a28148899060200160405180910390a26101af81346103a0565b50565b60006001826040516101c491906105b6565b9081526020016040518091039020549050919050565b60005473ffffffffffffffffffffffffffffffffffffffff1633146102695760405160e560020a62461bcd028152602060048201526024808201527f596f75277265206e6f742074686520736d61727420636f6e7472616374206f7760448201527f6e657221000000000000000000000000000000000000000000000000000000006064820152608401610154565b8060018460405161027a91906105b6565b90815260200160405180910390205412156102da5760405160e560020a62461bcd02815260206004820152601560248201527f496e73756666696369656e742062616c616e63652e00000000000000000000006044820152606401610154565b6102e483826103d7565b6000808373ffffffffffffffffffffffffffffffffffffffff168360405160006040518083038185875af1925050503d806000811461033f576040519150601f19603f3d011682016040523d82523d6000602084013e610344565b606091505b5091509150816103995760405160e560020a62461bcd02815260206004820152601460248201527f4661696c656420746f2073656e642045746865720000000000000000000000006044820152606401610154565b5050505050565b806001836040516103b191906105b6565b908152602001604051809103902060008282546103ce9190610620565b90915550505050565b806001836040516103e891906105b6565b908152602001604051809103902060008282546103ce9190610694565b7f4e487b7100000000000000000000000000000000000000000000000000000000600052604160045260246000fd5b600082601f83011261044557600080fd5b813567ffffffffffffffff8082111561046057610460610405565b604051601f8301601f19908116603f0116810190828211818310171561048857610488610405565b816040528381528660208588010111156104a157600080fd5b836020870160208301376000602085830101528094505050505092915050565b6000602082840312156104d357600080fd5b813567ffffffffffffffff8111156104ea57600080fd5b6104f684828501610434565b949350505050565b60008060006060848603121561051357600080fd5b833567ffffffffffffffff81111561052a57600080fd5b61053686828701610434565b935050602084013573ffffffffffffffffffffffffffffffffffffffff8116811461056057600080fd5b929592945050506040919091013590565b6000806040838503121561058457600080fd5b823567ffffffffffffffff81111561059b57600080fd5b6105a785828601610434565b95602094909401359450505050565b6000825160005b818110156105d757602081860181015185830152016105bd565b818111156105e6576000828501525b509190910192915050565b7f4e487b7100000000000000000000000000000000000000000000000000000000600052601160045260246000fd5b6000808212827f7fffffffffffffffffffffffffffffffffffffffffffffffffffffffffffffff0384138115161561065a5761065a6105f1565b827f800000000000000000000000000000000000000000000000000000000000000003841281161561068e5761068e6105f1565b50500190565b6000808312837f8000000000000000000000000000000000000000000000000000000000000000018312811516156106ce576106ce6105f1565b837f7fffffffffffffffffffffffffffffffffffffffffffffffffffffffffffffff018313811615610702576107026105f1565b5050039056fea26469706673582212205e67f1a0403f074171536f0602ac1a79780aa60386ce8e2162440b089f670b5164736f6c634300080a0033",
  "immutableReferences": {},
  "source": "// SPDX-License-Identifier: MIT\r\npragma solidity >=0.4.22 <0.9.0;\r\n\r\ncontract PaymentContract {\r\n    address private owner;\r\n    mapping(string => int256) private didToBalance;\r\n\r\n    event PaymentReceived(string indexed did, uint256 amount);\r\n\r\n    constructor() {\r\n        owner = msg.sender;\r\n    }\r\n\r\n    modifier onlyOwner() {\r\n        require(msg.sender == owner, \"You're not the smart contract owner!\");\r\n        _;\r\n    }\r\n\r\n    function pay(string memory fromDid) external payable {\r\n        if (msg.value <= 0) {\r\n            revert(\"Value must be positive.\");\r\n        }\r\n        \r\n        emit PaymentReceived(fromDid, msg.value);\r\n        increaseBalance(fromDid, msg.value);\r\n    }\r\n\r\n    function withdraw(string memory toDid, address payable to, uint256 amount) public payable onlyOwner {\r\n        if (didToBalance[toDid] < int(amount)) {\r\n            revert(\"Insufficient balance.\");\r\n        }\r\n\r\n        decreaseBalance(toDid, amount);\r\n        (bool sent, bytes memory data) = to.call{value: amount}(\"\");\r\n        if (!sent) {\r\n            revert(\"Failed to send Ether\");\r\n        }\r\n    }\r\n\r\n    function getBalance(string memory did) public view returns (int256) {\r\n        return didToBalance[did];\r\n    }\r\n    \r\n    function increaseBalance(string memory did, uint256 amount) public {\r\n        didToBalance[did] += int(amount);\r\n    }\r\n\r\n    function decreaseBalance(string memory did, uint256 amount) public {\r\n        didToBalance[did] -= int(amount);\r\n    }\r\n}\r\n",
  "sourcePath": "C:\\Users\\jxlim\\repos\\mec_anywhere\\full_node\\contract\\contracts\\PaymentContract.sol",
  "compiler": {
    "name": "solc",
    "version": "0.8.10+commit.fc410830.Emscripten.clang"
  },
  "schemaVersion": "3.4.12",
  "updatedAt": "2023-12-18T02:44:04.843Z",
  "networkType": "ethereum",
  "devdoc": {
    "kind": "dev",
    "methods": {},
    "version": 1
  },
  "userdoc": {
    "kind": "user",
    "methods": {},
    "version": 1
  }
}